{
  "contractName": "LogStorage",
  "abi": [
    {
      "constant": true,
      "inputs": [
        {
          "name": "",
          "type": "uint256"
        }
      ],
      "name": "logIndex",
      "outputs": [
        {
          "name": "",
          "type": "bytes32"
        }
      ],
      "payable": false,
      "stateMutability": "view",
      "type": "function"
    },
    {
      "constant": true,
      "inputs": [
        {
          "name": "",
          "type": "bytes32"
        }
      ],
      "name": "logList",
      "outputs": [
        {
          "name": "id",
          "type": "bytes32"
        },
        {
          "name": "description",
          "type": "string"
        },
        {
          "name": "createdAt",
          "type": "uint256"
        },
        {
          "name": "video",
          "type": "string"
        },
        {
          "name": "index",
          "type": "uint256"
        },
        {
          "name": "productId",
          "type": "bytes32"
        }
      ],
      "payable": false,
      "stateMutability": "view",
      "type": "function"
    },
    {
      "constant": false,
      "inputs": [
        {
          "name": "_id",
          "type": "bytes32"
        },
        {
          "name": "_productId",
          "type": "bytes32"
        },
        {
          "name": "_description",
          "type": "string"
        },
        {
          "name": "_video",
          "type": "string"
        },
        {
          "name": "_createdAt",
          "type": "uint256"
        }
      ],
      "name": "createLog",
      "outputs": [],
      "payable": false,
      "stateMutability": "nonpayable",
      "type": "function"
    },
    {
      "constant": true,
      "inputs": [
        {
          "name": "_id",
          "type": "bytes32"
        }
      ],
      "name": "getLog",
      "outputs": [
        {
          "components": [
            {
              "name": "id",
              "type": "bytes32"
            },
            {
              "name": "description",
              "type": "string"
            },
            {
              "name": "createdAt",
              "type": "uint256"
            },
            {
              "name": "video",
              "type": "string"
            },
            {
              "name": "index",
              "type": "uint256"
            },
            {
              "name": "productId",
              "type": "bytes32"
            }
          ],
          "name": "",
          "type": "tuple"
        }
      ],
      "payable": false,
      "stateMutability": "view",
      "type": "function"
    },
    {
      "constant": false,
      "inputs": [
        {
          "name": "_id",
          "type": "bytes32"
        }
      ],
      "name": "deleteLog",
      "outputs": [],
      "payable": false,
      "stateMutability": "nonpayable",
      "type": "function"
    },
    {
      "constant": false,
      "inputs": [
        {
          "name": "_id",
          "type": "bytes32"
        },
        {
          "name": "_description",
          "type": "string"
        }
      ],
      "name": "setDescription",
      "outputs": [],
      "payable": false,
      "stateMutability": "nonpayable",
      "type": "function"
    }
  ],
  "bytecode": "0x608060405234801561001057600080fd5b50610d93806100206000396000f300608060405260043610610078576000357c0100000000000000000000000000000000000000000000000000000000900463ffffffff1680636eb258981461007d5780637010416e146100ba57806373f5e7b7146100f7578063b4ac761e14610120578063d67863ea14610149578063f6eb645014610172575b600080fd5b34801561008957600080fd5b506100a4600480360361009f9190810190610a6a565b6101b4565b6040516100b19190610bae565b60405180910390f35b3480156100c657600080fd5b506100e160048036036100dc9190810190610946565b6101d7565b6040516100ee9190610c58565b60405180910390f35b34801561010357600080fd5b5061011e60048036036101199190810190610a16565b610388565b005b34801561012c57600080fd5b5061014760048036036101429190810190610946565b61042a565b005b34801561015557600080fd5b50610170600480360361016b919081019061096f565b6104f1565b005b34801561017e57600080fd5b5061019960048036036101949190810190610946565b610629565b6040516101ab96959493929190610bc9565b60405180910390f35b6001818154811015156101c357fe5b906000526020600020016000915090505481565b6101df610795565b600080836000191660001916815260200190815260200160002060c06040519081016040529081600082015460001916600019168152602001600182018054600181600116156101000203166002900480601f0160208091040260200160405190810160405280929190818152602001828054600181600116156101000203166002900480156102b05780601f10610285576101008083540402835291602001916102b0565b820191906000526020600020905b81548152906001019060200180831161029357829003601f168201915b5050505050815260200160028201548152602001600382018054600181600116156101000203166002900480601f01602080910402602001604051908101604052809291908181526020018280546001816001161561010002031660029004801561035c5780601f106103315761010080835404028352916020019161035c565b820191906000526020600020905b81548152906001019060200180831161033f57829003601f168201915b505050505081526020016004820154815260200160058201546000191660001916815250509050919050565b81600060010260008083600019166000191681526020019081526020016000206005015460001916141515156103f3576040517f08c379a00000000000000000000000000000000000000000000000000000000081526004016103ea90610c38565b60405180910390fd5b81600080856000191660001916815260200190815260200160002060010190805190602001906104249291906107d2565b50505050565b6000806000836000191660001916815260200190815260200160002060040154905060018080805490500381548110151561046157fe5b906000526020600020015460018281548110151561047b57fe5b90600052602060002001816000191690555060018054809190600190036104a29190610852565b50600060018054905011156104ed57806000806001848154811015156104c457fe5b906000526020600020015460001916600019168152602001908152602001600020600401819055505b5050565b600060018054905090508560008088600019166000191681526020019081526020016000206000018160001916905550846000808860001916600019168152602001908152602001600020600501816000191690555083600080886000191660001916815260200190815260200160002060010190805190602001906105789291906107d2565b5082600080886000191660001916815260200190815260200160002060030190805190602001906105aa9291906107d2565b5081600080886000191660001916815260200190815260200160002060020181905550806000808860001916600019168152602001908152602001600020600401819055506001869080600181540180825580915050906001820390600052602060002001600090919290919091509060001916905550505050505050565b6000602052806000526040600020600091509050806000015490806001018054600181600116156101000203166002900480601f0160208091040260200160405190810160405280929190818152602001828054600181600116156101000203166002900480156106db5780601f106106b0576101008083540402835291602001916106db565b820191906000526020600020905b8154815290600101906020018083116106be57829003601f168201915b505050505090806002015490806003018054600181600116156101000203166002900480601f01602080910402602001604051908101604052809291908181526020018280546001816001161561010002031660029004801561077f5780601f106107545761010080835404028352916020019161077f565b820191906000526020600020905b81548152906001019060200180831161076257829003601f168201915b5050505050908060040154908060050154905086565b60c0604051908101604052806000801916815260200160608152602001600081526020016060815260200160008152602001600080191681525090565b828054600181600116156101000203166002900490600052602060002090601f016020900481019282601f1061081357805160ff1916838001178555610841565b82800160010185558215610841579182015b82811115610840578251825591602001919060010190610825565b5b50905061084e919061087e565b5090565b8154818355818111156108795781836000526020600020918201910161087891906108a3565b5b505050565b6108a091905b8082111561089c576000816000905550600101610884565b5090565b90565b6108c591905b808211156108c15760008160009055506001016108a9565b5090565b90565b60006108d48235610cf2565b905092915050565b600082601f83011215156108ef57600080fd5b81356109026108fd82610ca7565b610c7a565b9150808252602083016020830185838301111561091e57600080fd5b610929838284610d06565b50505092915050565b600061093e8235610cfc565b905092915050565b60006020828403121561095857600080fd5b6000610966848285016108c8565b91505092915050565b600080600080600060a0868803121561098757600080fd5b6000610995888289016108c8565b95505060206109a6888289016108c8565b945050604086013567ffffffffffffffff8111156109c357600080fd5b6109cf888289016108dc565b935050606086013567ffffffffffffffff8111156109ec57600080fd5b6109f8888289016108dc565b9250506080610a0988828901610932565b9150509295509295909350565b60008060408385031215610a2957600080fd5b6000610a37858286016108c8565b925050602083013567ffffffffffffffff811115610a5457600080fd5b610a60858286016108dc565b9150509250929050565b600060208284031215610a7c57600080fd5b6000610a8a84828501610932565b91505092915050565b610a9c81610cde565b82525050565b6000610aad82610cd3565b808452610ac1816020860160208601610d15565b610aca81610d48565b602085010191505092915050565b6000601482527f74686973206964206973206e6f742061206c6f670000000000000000000000006020830152604082019050919050565b600060c083016000830151610b276000860182610a93565b5060208301518482036020860152610b3f8282610aa2565b9150506040830151610b546040860182610b9f565b5060608301518482036060860152610b6c8282610aa2565b9150506080830151610b816080860182610b9f565b5060a0830151610b9460a0860182610a93565b508091505092915050565b610ba881610ce8565b82525050565b6000602082019050610bc36000830184610a93565b92915050565b600060c082019050610bde6000830189610a93565b8181036020830152610bf08188610aa2565b9050610bff6040830187610b9f565b8181036060830152610c118186610aa2565b9050610c206080830185610b9f565b610c2d60a0830184610a93565b979650505050505050565b60006020820190508181036000830152610c5181610ad8565b9050919050565b60006020820190508181036000830152610c728184610b0f565b905092915050565b6000604051905081810181811067ffffffffffffffff82111715610c9d57600080fd5b8060405250919050565b600067ffffffffffffffff821115610cbe57600080fd5b601f19601f8301169050602081019050919050565b600081519050919050565b6000819050919050565b6000819050919050565b6000819050919050565b6000819050919050565b82818337600083830152505050565b60005b83811015610d33578082015181840152602081019050610d18565b83811115610d42576000848401525b50505050565b6000601f19601f83011690509190505600a265627a7a72305820220c0f716459fc61a9737b9c3c5390dfcf3a131ee39da39e24358c08f972c78f6c6578706572696d656e74616cf50037",
  "source": "pragma solidity ^0.4.24;\npragma experimental ABIEncoderV2;\n\nimport \"../model/LogModel.sol\";\nimport \"../util/ConvertUtils.sol\";\n\ncontract LogStorage {\n    using ConvertUtils for *;\n\n    mapping(bytes32 => LogModel.Log) public logList;\n    bytes32[] public logIndex;\n\n    modifier isLog(bytes32 _id) {\n        require(logList[_id].productId!=0x0, \"this id is not a log\");\n        _;\n    }\n\n    modifier isNotLog(bytes32 _id) {\n        require(logList[_id].productId==0x0, \"this id is  a log\");\n        _;\n    }\n\n    function createLog(bytes32 _id, bytes32 _productId, string _description, string _video, uint256 _createdAt) public {\n        uint256 newIndex = logIndex.length;\n\n        logList[_id].id = _id;\n        logList[_id].productId = _productId;\n        logList[_id].description = _description;\n        logList[_id].video = _video;\n        logList[_id].createdAt = _createdAt;\n        logList[_id].index = newIndex;\n\n        logIndex.push(_id);\n    }\n\n    function getLog(bytes32 _id) public view returns (LogModel.Log) {\n        return logList[_id];\n    }\n\n    function deleteLog(bytes32 _id) public {\n        uint256 toDeleteIndex = logList[_id].index;\n\n        logIndex[toDeleteIndex] = logIndex[logIndex.length-1];\n        logIndex.length--;\n\n        if(logIndex.length > 0) {\n            logList[logIndex[toDeleteIndex]].index = toDeleteIndex;\n        }\n    }\n\n    function setDescription(bytes32 _id, string _description) public isLog(_id) {\n        logList[_id].description = _description;\n    }\n}",
  "sourcePath": "/home/hieudeptrai/Desktop/MyProject/truffle/xxx/contracts/storage/LogStorage.sol",
  "compiler": {
    "name": "solc",
    "version": "0.4.24+commit.e67f0147.Emscripten.clang"
  },
  "schemaVersion": "2.0.1",
  "updatedAt": "2018-12-01T21:24:43.646Z"
}