{
  "contractName": "LogStorage",
  "abi": [
    {
      "constant": true,
      "inputs": [
        {
          "name": "",
          "type": "uint256"
        }
      ],
      "name": "logIndex",
      "outputs": [
        {
          "name": "",
          "type": "bytes32"
        }
      ],
      "payable": false,
      "stateMutability": "view",
      "type": "function"
    },
    {
      "constant": true,
      "inputs": [
        {
          "name": "",
          "type": "bytes32"
        }
      ],
      "name": "logList",
      "outputs": [
        {
          "name": "id",
          "type": "bytes32"
        },
        {
          "name": "description",
          "type": "string"
        },
        {
          "name": "addedBy",
          "type": "address"
        },
        {
          "name": "createdAt",
          "type": "uint256"
        },
        {
          "name": "video",
          "type": "string"
        },
        {
          "name": "index",
          "type": "uint256"
        },
        {
          "name": "productId",
          "type": "bytes32"
        }
      ],
      "payable": false,
      "stateMutability": "view",
      "type": "function"
    },
    {
      "constant": false,
      "inputs": [
        {
          "name": "_id",
          "type": "bytes32"
        },
        {
          "name": "_productId",
          "type": "bytes32"
        },
        {
          "name": "_description",
          "type": "string"
        },
        {
          "name": "_addedBy",
          "type": "address"
        },
        {
          "name": "_video",
          "type": "string"
        },
        {
          "name": "_createdAt",
          "type": "uint256"
        }
      ],
      "name": "createLog",
      "outputs": [],
      "payable": false,
      "stateMutability": "nonpayable",
      "type": "function"
    },
    {
      "constant": true,
      "inputs": [
        {
          "name": "_id",
          "type": "bytes32"
        }
      ],
      "name": "getLog",
      "outputs": [
        {
          "components": [
            {
              "name": "id",
              "type": "bytes32"
            },
            {
              "name": "description",
              "type": "string"
            },
            {
              "name": "addedBy",
              "type": "address"
            },
            {
              "name": "createdAt",
              "type": "uint256"
            },
            {
              "name": "video",
              "type": "string"
            },
            {
              "name": "index",
              "type": "uint256"
            },
            {
              "name": "productId",
              "type": "bytes32"
            }
          ],
          "name": "",
          "type": "tuple"
        }
      ],
      "payable": false,
      "stateMutability": "view",
      "type": "function"
    },
    {
      "constant": false,
      "inputs": [
        {
          "name": "_id",
          "type": "bytes32"
        }
      ],
      "name": "deleteLog",
      "outputs": [],
      "payable": false,
      "stateMutability": "nonpayable",
      "type": "function"
    },
    {
      "constant": false,
      "inputs": [
        {
          "name": "_id",
          "type": "bytes32"
        },
        {
          "name": "_description",
          "type": "string"
        }
      ],
      "name": "setDescription",
      "outputs": [],
      "payable": false,
      "stateMutability": "nonpayable",
      "type": "function"
    }
  ],
  "bytecode": "0x608060405234801561001057600080fd5b50610f20806100206000396000f300608060405260043610610078576000357c0100000000000000000000000000000000000000000000000000000000900463ffffffff1680630db281e91461007d5780636eb25898146100a65780637010416e146100e357806373f5e7b714610120578063b4ac761e14610149578063f6eb645014610172575b600080fd5b34801561008957600080fd5b506100a4600480360361009f9190810190610a7a565b6101b5565b005b3480156100b257600080fd5b506100cd60048036036100c89190810190610b87565b61034a565b6040516100da9190610ced565b60405180910390f35b3480156100ef57600080fd5b5061010a60048036036101059190810190610a51565b61036d565b6040516101179190610da5565b60405180910390f35b34801561012c57600080fd5b5061014760048036036101429190810190610b33565b610574565b005b34801561015557600080fd5b50610170600480360361016b9190810190610a51565b610616565b005b34801561017e57600080fd5b5061019960048036036101949190810190610a51565b6106dd565b6040516101ac9796959493929190610d08565b60405180910390f35b6000600180549050905086600080896000191660001916815260200190815260200160002060000181600019169055508560008089600019166000191681526020019081526020016000206006018160001916905550846000808960001916600019168152602001908152602001600020600101908051906020019061023c92919061086f565b5083600080896000191660001916815260200190815260200160002060020160006101000a81548173ffffffffffffffffffffffffffffffffffffffff021916908373ffffffffffffffffffffffffffffffffffffffff16021790555082600080896000191660001916815260200190815260200160002060040190805190602001906102ca92919061086f565b508160008089600019166000191681526020019081526020016000206003018190555080600080896000191660001916815260200190815260200160002060050181905550600187908060018154018082558091505090600182039060005260206000200160009091929091909150906000191690555050505050505050565b60018181548110151561035957fe5b906000526020600020016000915090505481565b6103756108ef565b600080836000191660001916815260200190815260200160002060e06040519081016040529081600082015460001916600019168152602001600182018054600181600116156101000203166002900480601f0160208091040260200160405190810160405280929190818152602001828054600181600116156101000203166002900480156104465780601f1061041b57610100808354040283529160200191610446565b820191906000526020600020905b81548152906001019060200180831161042957829003601f168201915b505050505081526020016002820160009054906101000a900473ffffffffffffffffffffffffffffffffffffffff1673ffffffffffffffffffffffffffffffffffffffff1673ffffffffffffffffffffffffffffffffffffffff16815260200160038201548152602001600482018054600181600116156101000203166002900480601f0160208091040260200160405190810160405280929190818152602001828054600181600116156101000203166002900480156105485780601f1061051d57610100808354040283529160200191610548565b820191906000526020600020905b81548152906001019060200180831161052b57829003601f168201915b505050505081526020016005820154815260200160068201546000191660001916815250509050919050565b81600060010260008083600019166000191681526020019081526020016000206006015460001916141515156105df576040517f08c379a00000000000000000000000000000000000000000000000000000000081526004016105d690610d85565b60405180910390fd5b816000808560001916600019168152602001908152602001600020600101908051906020019061061092919061086f565b50505050565b6000806000836000191660001916815260200190815260200160002060050154905060018080805490500381548110151561064d57fe5b906000526020600020015460018281548110151561066757fe5b906000526020600020018160001916905550600180548091906001900361068e9190610949565b50600060018054905011156106d957806000806001848154811015156106b057fe5b906000526020600020015460001916600019168152602001908152602001600020600501819055505b5050565b6000602052806000526040600020600091509050806000015490806001018054600181600116156101000203166002900480601f01602080910402602001604051908101604052809291908181526020018280546001816001161561010002031660029004801561078f5780601f106107645761010080835404028352916020019161078f565b820191906000526020600020905b81548152906001019060200180831161077257829003601f168201915b5050505050908060020160009054906101000a900473ffffffffffffffffffffffffffffffffffffffff1690806003015490806004018054600181600116156101000203166002900480601f0160208091040260200160405190810160405280929190818152602001828054600181600116156101000203166002900480156108595780601f1061082e57610100808354040283529160200191610859565b820191906000526020600020905b81548152906001019060200180831161083c57829003601f168201915b5050505050908060050154908060060154905087565b828054600181600116156101000203166002900490600052602060002090601f016020900481019282601f106108b057805160ff19168380011785556108de565b828001600101855582156108de579182015b828111156108dd5782518255916020019190600101906108c2565b5b5090506108eb9190610975565b5090565b60e0604051908101604052806000801916815260200160608152602001600073ffffffffffffffffffffffffffffffffffffffff168152602001600081526020016060815260200160008152602001600080191681525090565b8154818355818111156109705781836000526020600020918201910161096f919061099a565b5b505050565b61099791905b8082111561099357600081600090555060010161097b565b5090565b90565b6109bc91905b808211156109b85760008160009055506001016109a0565b5090565b90565b60006109cb8235610e5f565b905092915050565b60006109df8235610e7f565b905092915050565b600082601f83011215156109fa57600080fd5b8135610a0d610a0882610df4565b610dc7565b91508082526020830160208301858383011115610a2957600080fd5b610a34838284610e93565b50505092915050565b6000610a498235610e89565b905092915050565b600060208284031215610a6357600080fd5b6000610a71848285016109d3565b91505092915050565b60008060008060008060c08789031215610a9357600080fd5b6000610aa189828a016109d3565b9650506020610ab289828a016109d3565b955050604087013567ffffffffffffffff811115610acf57600080fd5b610adb89828a016109e7565b9450506060610aec89828a016109bf565b935050608087013567ffffffffffffffff811115610b0957600080fd5b610b1589828a016109e7565b92505060a0610b2689828a01610a3d565b9150509295509295509295565b60008060408385031215610b4657600080fd5b6000610b54858286016109d3565b925050602083013567ffffffffffffffff811115610b7157600080fd5b610b7d858286016109e7565b9150509250929050565b600060208284031215610b9957600080fd5b6000610ba784828501610a3d565b91505092915050565b610bb981610e2b565b82525050565b610bc881610e4b565b82525050565b6000610bd982610e20565b808452610bed816020860160208601610ea2565b610bf681610ed5565b602085010191505092915050565b6000601482527f74686973206964206973206e6f742061206c6f670000000000000000000000006020830152604082019050919050565b600060e083016000830151610c536000860182610bbf565b5060208301518482036020860152610c6b8282610bce565b9150506040830151610c806040860182610bb0565b506060830151610c936060860182610cde565b5060808301518482036080860152610cab8282610bce565b91505060a0830151610cc060a0860182610cde565b5060c0830151610cd360c0860182610bbf565b508091505092915050565b610ce781610e55565b82525050565b6000602082019050610d026000830184610bbf565b92915050565b600060e082019050610d1d600083018a610bbf565b8181036020830152610d2f8189610bce565b9050610d3e6040830188610bb0565b610d4b6060830187610cde565b8181036080830152610d5d8186610bce565b9050610d6c60a0830185610cde565b610d7960c0830184610bbf565b98975050505050505050565b60006020820190508181036000830152610d9e81610c04565b9050919050565b60006020820190508181036000830152610dbf8184610c3b565b905092915050565b6000604051905081810181811067ffffffffffffffff82111715610dea57600080fd5b8060405250919050565b600067ffffffffffffffff821115610e0b57600080fd5b601f19601f8301169050602081019050919050565b600081519050919050565b600073ffffffffffffffffffffffffffffffffffffffff82169050919050565b6000819050919050565b6000819050919050565b600073ffffffffffffffffffffffffffffffffffffffff82169050919050565b6000819050919050565b6000819050919050565b82818337600083830152505050565b60005b83811015610ec0578082015181840152602081019050610ea5565b83811115610ecf576000848401525b50505050565b6000601f19601f83011690509190505600a265627a7a72305820bba5a3f0b66b27f2a5ae2dec160caeeafa8e1cc9401ce0baa325297e9bf32e5c6c6578706572696d656e74616cf50037",
  "source": "pragma solidity ^0.4.24;\npragma experimental ABIEncoderV2;\n\nimport \"../model/LogModel.sol\";\nimport \"../util/ConvertUtils.sol\";\n\ncontract LogStorage {\n    using ConvertUtils for *;\n\n    mapping(bytes32 => LogModel.Log) public logList;\n    bytes32[] public logIndex;\n\n    modifier isLog(bytes32 _id) {\n        require(logList[_id].productId!=0x0, \"this id is not a log\");\n        _;\n    }\n\n    modifier isNotLog(bytes32 _id) {\n        require(logList[_id].productId==0x0, \"this id is  a log\");\n        _;\n    }\n\n    function createLog(bytes32 _id, bytes32 _productId, string _description, address _addedBy, string _video, uint256 _createdAt) public {\n        uint256 newIndex = logIndex.length;\n\n        logList[_id].id = _id;\n        logList[_id].productId = _productId;\n        logList[_id].description = _description;\n        logList[_id].addedBy = _addedBy;\n        logList[_id].video = _video;\n        logList[_id].createdAt = _createdAt;\n        logList[_id].index = newIndex;\n\n        logIndex.push(_id);\n    }\n\n    function getLog(bytes32 _id) public view returns (LogModel.Log) {\n        return logList[_id];\n    }\n\n    function deleteLog(bytes32 _id) public {\n        uint256 toDeleteIndex = logList[_id].index;\n\n        logIndex[toDeleteIndex] = logIndex[logIndex.length-1];\n        logIndex.length--;\n\n        if(logIndex.length > 0) {\n            logList[logIndex[toDeleteIndex]].index = toDeleteIndex;\n        }\n    }\n\n    function setDescription(bytes32 _id, string _description) public isLog(_id) {\n        logList[_id].description = _description;\n    }\n}",
  "sourcePath": "/home/hieudeptrai/Desktop/MyProject/truffle/merchandise-check/contracts/storage/LogStorage.sol",
  "compiler": {
    "name": "solc",
    "version": "0.4.24+commit.e67f0147.Emscripten.clang"
  },
  "schemaVersion": "2.0.1",
  "updatedAt": "2018-12-23T13:49:24.638Z"
}