{
  "contractName": "MerchandiseCheck",
  "abi": [
    {
      "constant": true,
      "inputs": [],
      "name": "owner",
      "outputs": [
        {
          "name": "",
          "type": "address"
        }
      ],
      "payable": false,
      "stateMutability": "view",
      "type": "function"
    },
    {
      "constant": false,
      "inputs": [
        {
          "name": "newOwner",
          "type": "address"
        }
      ],
      "name": "transferOwnership",
      "outputs": [],
      "payable": false,
      "stateMutability": "nonpayable",
      "type": "function"
    },
    {
      "inputs": [
        {
          "name": "_supplierStorage",
          "type": "address"
        },
        {
          "name": "_productStorage",
          "type": "address"
        },
        {
          "name": "_logStorage",
          "type": "address"
        },
        {
          "name": "_partnerStorage",
          "type": "address"
        },
        {
          "name": "_rateStorage",
          "type": "address"
        }
      ],
      "payable": false,
      "stateMutability": "nonpayable",
      "type": "constructor"
    },
    {
      "constant": false,
      "inputs": [
        {
          "name": "_address",
          "type": "address"
        }
      ],
      "name": "setSupplierStorage",
      "outputs": [],
      "payable": false,
      "stateMutability": "nonpayable",
      "type": "function"
    },
    {
      "constant": false,
      "inputs": [
        {
          "name": "_address",
          "type": "address"
        }
      ],
      "name": "setProductStorage",
      "outputs": [],
      "payable": false,
      "stateMutability": "nonpayable",
      "type": "function"
    },
    {
      "constant": false,
      "inputs": [
        {
          "name": "_address",
          "type": "address"
        }
      ],
      "name": "setLogStorage",
      "outputs": [],
      "payable": false,
      "stateMutability": "nonpayable",
      "type": "function"
    },
    {
      "constant": false,
      "inputs": [
        {
          "name": "_address",
          "type": "address"
        }
      ],
      "name": "setPartnerStorage",
      "outputs": [],
      "payable": false,
      "stateMutability": "nonpayable",
      "type": "function"
    },
    {
      "constant": false,
      "inputs": [
        {
          "name": "_address",
          "type": "address"
        }
      ],
      "name": "setRateStorage",
      "outputs": [],
      "payable": false,
      "stateMutability": "nonpayable",
      "type": "function"
    },
    {
      "constant": false,
      "inputs": [
        {
          "name": "_address",
          "type": "address"
        },
        {
          "name": "_name",
          "type": "string"
        }
      ],
      "name": "createSupplier",
      "outputs": [],
      "payable": false,
      "stateMutability": "nonpayable",
      "type": "function"
    },
    {
      "constant": false,
      "inputs": [
        {
          "name": "_id",
          "type": "bytes32"
        },
        {
          "name": "_name",
          "type": "string"
        },
        {
          "name": "_description",
          "type": "string"
        },
        {
          "name": "_image",
          "type": "string"
        }
      ],
      "name": "createProduct",
      "outputs": [],
      "payable": false,
      "stateMutability": "nonpayable",
      "type": "function"
    },
    {
      "constant": false,
      "inputs": [
        {
          "name": "_id",
          "type": "bytes32"
        },
        {
          "name": "_productId",
          "type": "bytes32"
        },
        {
          "name": "_description",
          "type": "string"
        },
        {
          "name": "_video",
          "type": "string"
        }
      ],
      "name": "createLog",
      "outputs": [],
      "payable": false,
      "stateMutability": "nonpayable",
      "type": "function"
    },
    {
      "constant": false,
      "inputs": [
        {
          "name": "_address",
          "type": "address"
        },
        {
          "name": "_name",
          "type": "string"
        }
      ],
      "name": "createPartner",
      "outputs": [],
      "payable": false,
      "stateMutability": "nonpayable",
      "type": "function"
    },
    {
      "constant": true,
      "inputs": [],
      "name": "getListSuppliers",
      "outputs": [
        {
          "components": [
            {
              "name": "addr",
              "type": "address"
            },
            {
              "name": "name",
              "type": "string"
            },
            {
              "name": "index",
              "type": "uint256"
            },
            {
              "name": "productIds",
              "type": "bytes32[]"
            },
            {
              "name": "productIdsIndex",
              "type": "uint256[]"
            },
            {
              "name": "partnerIds",
              "type": "bytes32[]"
            },
            {
              "name": "partnerIdsIndex",
              "type": "uint256[]"
            }
          ],
          "name": "",
          "type": "tuple[]"
        }
      ],
      "payable": false,
      "stateMutability": "view",
      "type": "function"
    },
    {
      "constant": true,
      "inputs": [
        {
          "name": "_supplierAddress",
          "type": "address"
        }
      ],
      "name": "getSupplier",
      "outputs": [
        {
          "components": [
            {
              "name": "addr",
              "type": "address"
            },
            {
              "name": "name",
              "type": "string"
            },
            {
              "name": "index",
              "type": "uint256"
            },
            {
              "name": "productIds",
              "type": "bytes32[]"
            },
            {
              "name": "productIdsIndex",
              "type": "uint256[]"
            },
            {
              "name": "partnerIds",
              "type": "bytes32[]"
            },
            {
              "name": "partnerIdsIndex",
              "type": "uint256[]"
            }
          ],
          "name": "",
          "type": "tuple"
        }
      ],
      "payable": false,
      "stateMutability": "view",
      "type": "function"
    },
    {
      "constant": true,
      "inputs": [
        {
          "name": "_productId",
          "type": "bytes32"
        }
      ],
      "name": "getProduct",
      "outputs": [
        {
          "components": [
            {
              "name": "id",
              "type": "bytes32"
            },
            {
              "name": "name",
              "type": "string"
            },
            {
              "name": "description",
              "type": "string"
            },
            {
              "name": "image",
              "type": "string"
            },
            {
              "name": "index",
              "type": "uint256"
            },
            {
              "name": "partnerIds",
              "type": "bytes32[]"
            },
            {
              "name": "partnerIdsIndex",
              "type": "uint256[]"
            },
            {
              "name": "owner",
              "type": "address"
            },
            {
              "name": "logIds",
              "type": "bytes32[]"
            },
            {
              "name": "logIdsIndex",
              "type": "uint256[]"
            }
          ],
          "name": "",
          "type": "tuple"
        }
      ],
      "payable": false,
      "stateMutability": "view",
      "type": "function"
    },
    {
      "constant": true,
      "inputs": [
        {
          "name": "_logId",
          "type": "bytes32"
        }
      ],
      "name": "getLog",
      "outputs": [
        {
          "components": [
            {
              "name": "id",
              "type": "bytes32"
            },
            {
              "name": "description",
              "type": "string"
            },
            {
              "name": "createdAt",
              "type": "uint256"
            },
            {
              "name": "video",
              "type": "string"
            },
            {
              "name": "index",
              "type": "uint256"
            },
            {
              "name": "productId",
              "type": "bytes32"
            }
          ],
          "name": "",
          "type": "tuple"
        }
      ],
      "payable": false,
      "stateMutability": "view",
      "type": "function"
    },
    {
      "constant": true,
      "inputs": [
        {
          "name": "_id",
          "type": "bytes32"
        }
      ],
      "name": "getPartner",
      "outputs": [
        {
          "components": [
            {
              "name": "id",
              "type": "bytes32"
            },
            {
              "name": "addr",
              "type": "address"
            },
            {
              "name": "name",
              "type": "string"
            },
            {
              "name": "index",
              "type": "uint256"
            },
            {
              "name": "supplier",
              "type": "address"
            },
            {
              "name": "productIds",
              "type": "bytes32[]"
            },
            {
              "name": "productIdsIndex",
              "type": "uint256[]"
            }
          ],
          "name": "",
          "type": "tuple"
        }
      ],
      "payable": false,
      "stateMutability": "view",
      "type": "function"
    },
    {
      "constant": true,
      "inputs": [
        {
          "name": "_supplierAddress",
          "type": "address"
        }
      ],
      "name": "getProductsBySupplier",
      "outputs": [
        {
          "components": [
            {
              "name": "id",
              "type": "bytes32"
            },
            {
              "name": "name",
              "type": "string"
            },
            {
              "name": "description",
              "type": "string"
            },
            {
              "name": "image",
              "type": "string"
            },
            {
              "name": "index",
              "type": "uint256"
            },
            {
              "name": "partnerIds",
              "type": "bytes32[]"
            },
            {
              "name": "partnerIdsIndex",
              "type": "uint256[]"
            },
            {
              "name": "owner",
              "type": "address"
            },
            {
              "name": "logIds",
              "type": "bytes32[]"
            },
            {
              "name": "logIdsIndex",
              "type": "uint256[]"
            }
          ],
          "name": "products",
          "type": "tuple[]"
        }
      ],
      "payable": false,
      "stateMutability": "view",
      "type": "function"
    },
    {
      "constant": true,
      "inputs": [
        {
          "name": "_partnerId",
          "type": "bytes32"
        }
      ],
      "name": "getProductsByPartner",
      "outputs": [
        {
          "components": [
            {
              "name": "id",
              "type": "bytes32"
            },
            {
              "name": "name",
              "type": "string"
            },
            {
              "name": "description",
              "type": "string"
            },
            {
              "name": "image",
              "type": "string"
            },
            {
              "name": "index",
              "type": "uint256"
            },
            {
              "name": "partnerIds",
              "type": "bytes32[]"
            },
            {
              "name": "partnerIdsIndex",
              "type": "uint256[]"
            },
            {
              "name": "owner",
              "type": "address"
            },
            {
              "name": "logIds",
              "type": "bytes32[]"
            },
            {
              "name": "logIdsIndex",
              "type": "uint256[]"
            }
          ],
          "name": "products",
          "type": "tuple[]"
        }
      ],
      "payable": false,
      "stateMutability": "view",
      "type": "function"
    },
    {
      "constant": true,
      "inputs": [
        {
          "name": "_productId",
          "type": "bytes32"
        }
      ],
      "name": "getLogsByProduct",
      "outputs": [
        {
          "components": [
            {
              "name": "id",
              "type": "bytes32"
            },
            {
              "name": "description",
              "type": "string"
            },
            {
              "name": "createdAt",
              "type": "uint256"
            },
            {
              "name": "video",
              "type": "string"
            },
            {
              "name": "index",
              "type": "uint256"
            },
            {
              "name": "productId",
              "type": "bytes32"
            }
          ],
          "name": "logs",
          "type": "tuple[]"
        }
      ],
      "payable": false,
      "stateMutability": "view",
      "type": "function"
    },
    {
      "constant": true,
      "inputs": [
        {
          "name": "_supplierAddress",
          "type": "address"
        }
      ],
      "name": "getPartnersBySupplier",
      "outputs": [
        {
          "components": [
            {
              "name": "id",
              "type": "bytes32"
            },
            {
              "name": "addr",
              "type": "address"
            },
            {
              "name": "name",
              "type": "string"
            },
            {
              "name": "index",
              "type": "uint256"
            },
            {
              "name": "supplier",
              "type": "address"
            },
            {
              "name": "productIds",
              "type": "bytes32[]"
            },
            {
              "name": "productIdsIndex",
              "type": "uint256[]"
            }
          ],
          "name": "partners",
          "type": "tuple[]"
        }
      ],
      "payable": false,
      "stateMutability": "view",
      "type": "function"
    },
    {
      "constant": true,
      "inputs": [
        {
          "name": "_productId",
          "type": "bytes32"
        }
      ],
      "name": "getPartnersByProduct",
      "outputs": [
        {
          "components": [
            {
              "name": "id",
              "type": "bytes32"
            },
            {
              "name": "addr",
              "type": "address"
            },
            {
              "name": "name",
              "type": "string"
            },
            {
              "name": "index",
              "type": "uint256"
            },
            {
              "name": "supplier",
              "type": "address"
            },
            {
              "name": "productIds",
              "type": "bytes32[]"
            },
            {
              "name": "productIdsIndex",
              "type": "uint256[]"
            }
          ],
          "name": "partners",
          "type": "tuple[]"
        },
        {
          "name": "rates",
          "type": "uint256[]"
        }
      ],
      "payable": false,
      "stateMutability": "view",
      "type": "function"
    },
    {
      "constant": false,
      "inputs": [
        {
          "name": "_address",
          "type": "address"
        },
        {
          "name": "_name",
          "type": "string"
        }
      ],
      "name": "updateSupplier",
      "outputs": [],
      "payable": false,
      "stateMutability": "nonpayable",
      "type": "function"
    },
    {
      "constant": false,
      "inputs": [
        {
          "name": "_id",
          "type": "bytes32"
        },
        {
          "name": "_name",
          "type": "string"
        },
        {
          "name": "_description",
          "type": "string"
        },
        {
          "name": "_image",
          "type": "string"
        }
      ],
      "name": "updateProduct",
      "outputs": [],
      "payable": false,
      "stateMutability": "nonpayable",
      "type": "function"
    },
    {
      "constant": false,
      "inputs": [
        {
          "name": "_id",
          "type": "bytes32"
        },
        {
          "name": "_name",
          "type": "string"
        }
      ],
      "name": "updatePartner",
      "outputs": [],
      "payable": false,
      "stateMutability": "nonpayable",
      "type": "function"
    },
    {
      "constant": false,
      "inputs": [
        {
          "name": "_partnerId",
          "type": "bytes32"
        },
        {
          "name": "_star",
          "type": "uint8"
        }
      ],
      "name": "ratePartner",
      "outputs": [],
      "payable": false,
      "stateMutability": "nonpayable",
      "type": "function"
    },
    {
      "constant": true,
      "inputs": [
        {
          "name": "_partnerId",
          "type": "bytes32"
        }
      ],
      "name": "getAverageRate",
      "outputs": [
        {
          "name": "",
          "type": "uint256"
        }
      ],
      "payable": false,
      "stateMutability": "view",
      "type": "function"
    },
    {
      "constant": true,
      "inputs": [
        {
          "name": "_partnerId",
          "type": "bytes32"
        }
      ],
      "name": "getRatesByPartner",
      "outputs": [
        {
          "name": "",
          "type": "uint8[]"
        }
      ],
      "payable": false,
      "stateMutability": "view",
      "type": "function"
    },
    {
      "constant": false,
      "inputs": [
        {
          "name": "_address",
          "type": "address"
        }
      ],
      "name": "deleteSupplier",
      "outputs": [],
      "payable": false,
      "stateMutability": "nonpayable",
      "type": "function"
    },
    {
      "constant": false,
      "inputs": [
        {
          "name": "_id",
          "type": "bytes32"
        }
      ],
      "name": "deleteProduct",
      "outputs": [],
      "payable": false,
      "stateMutability": "nonpayable",
      "type": "function"
    },
    {
      "constant": false,
      "inputs": [
        {
          "name": "_id",
          "type": "bytes32"
        }
      ],
      "name": "deleteLog",
      "outputs": [],
      "payable": false,
      "stateMutability": "nonpayable",
      "type": "function"
    },
    {
      "constant": false,
      "inputs": [
        {
          "name": "_partnerId",
          "type": "bytes32"
        }
      ],
      "name": "deletePartner",
      "outputs": [],
      "payable": false,
      "stateMutability": "nonpayable",
      "type": "function"
    },
    {
      "constant": false,
      "inputs": [
        {
          "name": "_productId",
          "type": "bytes32"
        },
        {
          "name": "_partnerId",
          "type": "bytes32"
        }
      ],
      "name": "assignProductToPartner",
      "outputs": [],
      "payable": false,
      "stateMutability": "nonpayable",
      "type": "function"
    },
    {
      "constant": false,
      "inputs": [
        {
          "name": "_productId",
          "type": "bytes32"
        },
        {
          "name": "_partnerId",
          "type": "bytes32"
        }
      ],
      "name": "unassignProductToPartner",
      "outputs": [],
      "payable": false,
      "stateMutability": "nonpayable",
      "type": "function"
    }
  ],
  "bytecode": "0x60806040523480156200001157600080fd5b5060405160a080620055a883398101806040526200003391908101906200026a565b336000806101000a81548173ffffffffffffffffffffffffffffffffffffffff021916908373ffffffffffffffffffffffffffffffffffffffff1602179055506200008d8562000100640100000000026401000000009004565b620000a78462000144640100000000026401000000009004565b620000c18362000188640100000000026401000000009004565b620000db82620001cc640100000000026401000000009004565b620000f58162000210640100000000026401000000009004565b50505050506200030c565b80600160006101000a81548173ffffffffffffffffffffffffffffffffffffffff021916908373ffffffffffffffffffffffffffffffffffffffff16021790555050565b80600260006101000a81548173ffffffffffffffffffffffffffffffffffffffff021916908373ffffffffffffffffffffffffffffffffffffffff16021790555050565b80600360006101000a81548173ffffffffffffffffffffffffffffffffffffffff021916908373ffffffffffffffffffffffffffffffffffffffff16021790555050565b80600460006101000a81548173ffffffffffffffffffffffffffffffffffffffff021916908373ffffffffffffffffffffffffffffffffffffffff16021790555050565b80600560006101000a81548173ffffffffffffffffffffffffffffffffffffffff021916908373ffffffffffffffffffffffffffffffffffffffff16021790555050565b6000620002628251620002ec565b905092915050565b600080600080600060a086880312156200028357600080fd5b6000620002938882890162000254565b9550506020620002a68882890162000254565b9450506040620002b98882890162000254565b9350506060620002cc8882890162000254565b9250506080620002df8882890162000254565b9150509295509295909350565b600073ffffffffffffffffffffffffffffffffffffffff82169050919050565b61528c806200031c6000396000f3006080604052600436106101a1576000357c0100000000000000000000000000000000000000000000000000000000900463ffffffff1680631a013095146101a657806325e34c11146101cf578063290344c7146101f85780633289c3851461022157806339f701fd1461025e5780633a20e9df1461028757806342c00ce9146102c45780634c856575146102ed578063525a933d1461032a5780635bf85c31146103535780637010416e146103905780637a12b9c5146103cd5780638144a0eb146103f6578063880a169b146104345780638da5cb5b1461045d57806394727b41146104885780639cc2fcc6146104b1578063a5a49796146104ee578063adf2184814610517578063b0c6031f14610540578063b4ac761e14610569578063b4bfea0414610592578063ba30c87a146105cf578063bf5e9f621461060c578063c62062b014610635578063ca66e08f1461065e578063e33d947214610687578063e368d75c146106b0578063e4d450e6146106db578063e8ad4c5d14610718578063e8ee5a6b14610741578063f2fde38b1461076a578063fe7009f214610793575b600080fd5b3480156101b257600080fd5b506101cd60048036036101c89190810190613cd1565b6107d0565b005b3480156101db57600080fd5b506101f660048036036101f19190810190613ca8565b610952565b005b34801561020457600080fd5b5061021f600480360361021a9190810190613ef3565b610996565b005b34801561022d57600080fd5b5061024860048036036102439190810190613da7565b610af8565b6040516102559190614be5565b60405180910390f35b34801561026a57600080fd5b5061028560048036036102809190810190613e0c565b610d6a565b005b34801561029357600080fd5b506102ae60048036036102a99190810190613da7565b61108d565b6040516102bb9190614ebb565b60405180910390f35b3480156102d057600080fd5b506102eb60048036036102e69190810190613ca8565b61116a565b005b3480156102f957600080fd5b50610314600480360361030f9190810190613da7565b611216565b6040516103219190614eff565b60405180910390f35b34801561033657600080fd5b50610351600480360361034c9190810190613ca8565b6112e8565b005b34801561035f57600080fd5b5061037a60048036036103759190810190613da7565b61132c565b6040516103879190614e99565b60405180910390f35b34801561039c57600080fd5b506103b760048036036103b29190810190613da7565b611409565b6040516103c49190614e77565b60405180910390f35b3480156103d957600080fd5b506103f460048036036103ef9190810190613ca8565b6114e6565b005b34801561040257600080fd5b5061041d60048036036104189190810190613da7565b61152a565b60405161042b929190614bae565b60405180910390f35b34801561044057600080fd5b5061045b60048036036104569190810190613ca8565b6118c7565b005b34801561046957600080fd5b5061047261190b565b60405161047f9190614af6565b60405180910390f35b34801561049457600080fd5b506104af60048036036104aa9190810190613da7565b611930565b005b3480156104bd57600080fd5b506104d860048036036104d39190810190613ca8565b611b64565b6040516104e59190614be5565b60405180910390f35b3480156104fa57600080fd5b5061051560048036036105109190810190613f9e565b611dd6565b005b34801561052357600080fd5b5061053e60048036036105399190810190613ef3565b611e85565b005b34801561054c57600080fd5b5061056760048036036105629190810190613cd1565b611f3a565b005b34801561057557600080fd5b50610590600480360361058b9190810190613da7565b61203f565b005b34801561059e57600080fd5b506105b960048036036105b49190810190613da7565b612273565b6040516105c69190614c29565b60405180910390f35b3480156105db57600080fd5b506105f660048036036105f19190810190613da7565b61234a565b6040516106039190614b6a565b60405180910390f35b34801561061857600080fd5b50610633600480360361062e9190810190613dd0565b6125c3565b005b34801561064157600080fd5b5061065c60048036036106579190810190613cd1565b61271d565b005b34801561066a57600080fd5b5061068560048036036106809190810190613da7565b6127cc565b005b34801561069357600080fd5b506106ae60048036036106a99190810190613dd0565b612957565b005b3480156106bc57600080fd5b506106c5612ab1565b6040516106d29190614c07565b60405180910390f35b3480156106e757600080fd5b5061070260048036036106fd9190810190613ca8565b612b7b565b60405161070f9190614b8c565b60405180910390f35b34801561072457600080fd5b5061073f600480360361073a9190810190613ca8565b612ded565b005b34801561074d57600080fd5b5061076860048036036107639190810190613e9f565b612e31565b005b34801561077657600080fd5b50610791600480360361078c9190810190613ca8565b612ee0565b005b34801561079f57600080fd5b506107ba60048036036107b59190810190613ca8565b612fb0565b6040516107c79190614edd565b60405180910390f35b60006107f18373ffffffffffffffffffffffffffffffffffffffff1661308d565b9050600460009054906101000a900473ffffffffffffffffffffffffffffffffffffffff1673ffffffffffffffffffffffffffffffffffffffff16639db20685828585336040518563ffffffff167c01000000000000000000000000000000000000000000000000000000000281526004016108709493929190614c66565b600060405180830381600087803b15801561088a57600080fd5b505af115801561089e573d6000803e3d6000fd5b50505050600160009054906101000a900473ffffffffffffffffffffffffffffffffffffffff1673ffffffffffffffffffffffffffffffffffffffff1663e66a788c33836040518363ffffffff167c010000000000000000000000000000000000000000000000000000000002815260040161091b929190614b11565b600060405180830381600087803b15801561093557600080fd5b505af1158015610949573d6000803e3d6000fd5b50505050505050565b80600560006101000a81548173ffffffffffffffffffffffffffffffffffffffff021916908373ffffffffffffffffffffffffffffffffffffffff16021790555050565b600260009054906101000a900473ffffffffffffffffffffffffffffffffffffffff1673ffffffffffffffffffffffffffffffffffffffff1663ac5dede985338686866040518663ffffffff167c0100000000000000000000000000000000000000000000000000000000028152600401610a15959493929190614cb2565b600060405180830381600087803b158015610a2f57600080fd5b505af1158015610a43573d6000803e3d6000fd5b50505050600160009054906101000a900473ffffffffffffffffffffffffffffffffffffffff1673ffffffffffffffffffffffffffffffffffffffff1663d58e7e7233866040518363ffffffff167c0100000000000000000000000000000000000000000000000000000000028152600401610ac0929190614b11565b600060405180830381600087803b158015610ada57600080fd5b505af1158015610aee573d6000803e3d6000fd5b5050505050505050565b6060610b0261313b565b6000610b0c6131a8565b600460009054906101000a900473ffffffffffffffffffffffffffffffffffffffff1673ffffffffffffffffffffffffffffffffffffffff16635bf85c31866040518263ffffffff167c0100000000000000000000000000000000000000000000000000000000028152600401610b839190614c4b565b600060405180830381600087803b158015610b9d57600080fd5b505af1158015610bb1573d6000803e3d6000fd5b505050506040513d6000823e3d601f19601f82011682018060405250610bda919081019061401b565b925060018360a0015151111515610bf357839350610d62565b60018360a001515103604051908082528060200260200182016040528015610c3557816020015b610c22613215565b815260200190600190039081610c1a5790505b509350600191505b8260a0015151821015610d6157600260009054906101000a900473ffffffffffffffffffffffffffffffffffffffff1673ffffffffffffffffffffffffffffffffffffffff16633a20e9df8460a0015184815181101515610c9a57fe5b906020019060200201516040518263ffffffff167c0100000000000000000000000000000000000000000000000000000000028152600401610cdc9190614c4b565b600060405180830381600087803b158015610cf657600080fd5b505af1158015610d0a573d6000803e3d6000fd5b505050506040513d6000823e3d601f19601f82011682018060405250610d33919081019061405c565b9050808460018403815181101515610d4757fe5b906020019060200201819052508180600101925050610c3d565b5b505050919050565b610d726131a8565b6000806000600260009054906101000a900473ffffffffffffffffffffffffffffffffffffffff1673ffffffffffffffffffffffffffffffffffffffff16633a20e9df886040518263ffffffff167c0100000000000000000000000000000000000000000000000000000000028152600401610dee9190614c4b565b600060405180830381600087803b158015610e0857600080fd5b505af1158015610e1c573d6000803e3d6000fd5b505050506040513d6000823e3d601f19601f82011682018060405250610e45919081019061405c565b93503373ffffffffffffffffffffffffffffffffffffffff168460e0015173ffffffffffffffffffffffffffffffffffffffff16149250610ea7610e9e3373ffffffffffffffffffffffffffffffffffffffff1661308d565b600019166130b7565b9150600090508360c0015151821015610edd5760008460c0015183815181101515610ece57fe5b90602001906020020151141590505b8280610ee65750805b1515610f27576040517f08c379a0000000000000000000000000000000000000000000000000000000008152600401610f1e90614e57565b60405180910390fd5b600360009054906101000a900473ffffffffffffffffffffffffffffffffffffffff1673ffffffffffffffffffffffffffffffffffffffff1663d67863ea89898989426040518663ffffffff167c0100000000000000000000000000000000000000000000000000000000028152600401610fa6959493929190614d43565b600060405180830381600087803b158015610fc057600080fd5b505af1158015610fd4573d6000803e3d6000fd5b50505050600260009054906101000a900473ffffffffffffffffffffffffffffffffffffffff1673ffffffffffffffffffffffffffffffffffffffff1663870c6122888a6040518363ffffffff167c0100000000000000000000000000000000000000000000000000000000028152600401611051929190614d1a565b600060405180830381600087803b15801561106b57600080fd5b505af115801561107f573d6000803e3d6000fd5b505050505050505050505050565b6110956131a8565b600260009054906101000a900473ffffffffffffffffffffffffffffffffffffffff1673ffffffffffffffffffffffffffffffffffffffff16633a20e9df836040518263ffffffff167c010000000000000000000000000000000000000000000000000000000002815260040161110c9190614c4b565b600060405180830381600087803b15801561112657600080fd5b505af115801561113a573d6000803e3d6000fd5b505050506040513d6000823e3d601f19601f82011682018060405250611163919081019061405c565b9050919050565b600160009054906101000a900473ffffffffffffffffffffffffffffffffffffffff1673ffffffffffffffffffffffffffffffffffffffff166342c00ce9826040518263ffffffff167c01000000000000000000000000000000000000000000000000000000000281526004016111e19190614af6565b600060405180830381600087803b1580156111fb57600080fd5b505af115801561120f573d6000803e3d6000fd5b5050505050565b6000600560009054906101000a900473ffffffffffffffffffffffffffffffffffffffff1673ffffffffffffffffffffffffffffffffffffffff16634c856575836040518263ffffffff167c010000000000000000000000000000000000000000000000000000000002815260040161128f9190614c4b565b602060405180830381600087803b1580156112a957600080fd5b505af11580156112bd573d6000803e3d6000fd5b505050506040513d601f19601f820116820180604052506112e191908101906140de565b9050919050565b80600160006101000a81548173ffffffffffffffffffffffffffffffffffffffff021916908373ffffffffffffffffffffffffffffffffffffffff16021790555050565b61133461313b565b600460009054906101000a900473ffffffffffffffffffffffffffffffffffffffff1673ffffffffffffffffffffffffffffffffffffffff16635bf85c31836040518263ffffffff167c01000000000000000000000000000000000000000000000000000000000281526004016113ab9190614c4b565b600060405180830381600087803b1580156113c557600080fd5b505af11580156113d9573d6000803e3d6000fd5b505050506040513d6000823e3d601f19601f82011682018060405250611402919081019061401b565b9050919050565b611411613282565b600360009054906101000a900473ffffffffffffffffffffffffffffffffffffffff1673ffffffffffffffffffffffffffffffffffffffff16637010416e836040518263ffffffff167c01000000000000000000000000000000000000000000000000000000000281526004016114889190614c4b565b600060405180830381600087803b1580156114a257600080fd5b505af11580156114b6573d6000803e3d6000fd5b505050506040513d6000823e3d601f19601f820116820180604052506114df9190810190613fda565b9050919050565b80600260006101000a81548173ffffffffffffffffffffffffffffffffffffffff021916908373ffffffffffffffffffffffffffffffffffffffff16021790555050565b6060806115356131a8565b60008061154061313b565b600260009054906101000a900473ffffffffffffffffffffffffffffffffffffffff1673ffffffffffffffffffffffffffffffffffffffff16633a20e9df886040518263ffffffff167c01000000000000000000000000000000000000000000000000000000000281526004016115b79190614c4b565b600060405180830381600087803b1580156115d157600080fd5b505af11580156115e5573d6000803e3d6000fd5b505050506040513d6000823e3d601f19601f8201168201806040525061160e919081019061405c565b935060018460a001515111151561162a578585955095506118be565b60018460a00151510360405190808252806020026020018201604052801561166c57816020015b6116596132bf565b8152602001906001900390816116515790505b50955060018460a0015151036040519080825280602002602001820160405280156116a65781602001602082028038833980820191505090505b509450600192505b8360a00151518310156118bd578360a00151838151811015156116cd57fe5b906020019060200201519150600460009054906101000a900473ffffffffffffffffffffffffffffffffffffffff1673ffffffffffffffffffffffffffffffffffffffff16635bf85c31836040518263ffffffff167c01000000000000000000000000000000000000000000000000000000000281526004016117509190614c4b565b600060405180830381600087803b15801561176a57600080fd5b505af115801561177e573d6000803e3d6000fd5b505050506040513d6000823e3d601f19601f820116820180604052506117a7919081019061401b565b90508086600185038151811015156117bb57fe5b90602001906020020181905250600560009054906101000a900473ffffffffffffffffffffffffffffffffffffffff1673ffffffffffffffffffffffffffffffffffffffff16634c856575836040518263ffffffff167c010000000000000000000000000000000000000000000000000000000002815260040161183f9190614c4b565b602060405180830381600087803b15801561185957600080fd5b505af115801561186d573d6000803e3d6000fd5b505050506040513d601f19601f8201168201806040525061189191908101906140de565b85600185038151811015156118a257fe5b906020019060200201818152505082806001019350506116ae565b5b50505050915091565b80600360006101000a81548173ffffffffffffffffffffffffffffffffffffffff021916908373ffffffffffffffffffffffffffffffffffffffff16021790555050565b6000809054906101000a900473ffffffffffffffffffffffffffffffffffffffff1681565b6119386131a8565b600260009054906101000a900473ffffffffffffffffffffffffffffffffffffffff1673ffffffffffffffffffffffffffffffffffffffff16633a20e9df836040518263ffffffff167c01000000000000000000000000000000000000000000000000000000000281526004016119af9190614c4b565b600060405180830381600087803b1580156119c957600080fd5b505af11580156119dd573d6000803e3d6000fd5b505050506040513d6000823e3d601f19601f82011682018060405250611a06919081019061405c565b9050600160009054906101000a900473ffffffffffffffffffffffffffffffffffffffff1673ffffffffffffffffffffffffffffffffffffffff1663420521858260e00151846040518363ffffffff167c0100000000000000000000000000000000000000000000000000000000028152600401611a85929190614b11565b600060405180830381600087803b158015611a9f57600080fd5b505af1158015611ab3573d6000803e3d6000fd5b50505050600260009054906101000a900473ffffffffffffffffffffffffffffffffffffffff1673ffffffffffffffffffffffffffffffffffffffff166394727b41836040518263ffffffff167c0100000000000000000000000000000000000000000000000000000000028152600401611b2e9190614c4b565b600060405180830381600087803b158015611b4857600080fd5b505af1158015611b5c573d6000803e3d6000fd5b505050505050565b6060611b6e61332c565b6000611b786131a8565b600160009054906101000a900473ffffffffffffffffffffffffffffffffffffffff1673ffffffffffffffffffffffffffffffffffffffff1663fe7009f2866040518263ffffffff167c0100000000000000000000000000000000000000000000000000000000028152600401611bef9190614af6565b600060405180830381600087803b158015611c0957600080fd5b505af1158015611c1d573d6000803e3d6000fd5b505050506040513d6000823e3d601f19601f82011682018060405250611c46919081019061409d565b92506001836060015151111515611c5f57839350611dce565b600183606001515103604051908082528060200260200182016040528015611ca157816020015b611c8e613215565b815260200190600190039081611c865790505b509350600191505b826060015151821015611dcd57600260009054906101000a900473ffffffffffffffffffffffffffffffffffffffff1673ffffffffffffffffffffffffffffffffffffffff16633a20e9df846060015184815181101515611d0657fe5b906020019060200201516040518263ffffffff167c0100000000000000000000000000000000000000000000000000000000028152600401611d489190614c4b565b600060405180830381600087803b158015611d6257600080fd5b505af1158015611d76573d6000803e3d6000fd5b505050506040513d6000823e3d601f19601f82011682018060405250611d9f919081019061405c565b9050808460018403815181101515611db357fe5b906020019060200201819052508180600101925050611ca9565b5b505050919050565b600560009054906101000a900473ffffffffffffffffffffffffffffffffffffffff1673ffffffffffffffffffffffffffffffffffffffff1663bacca52783836040518363ffffffff167c0100000000000000000000000000000000000000000000000000000000028152600401611e4f929190614e2e565b600060405180830381600087803b158015611e6957600080fd5b505af1158015611e7d573d6000803e3d6000fd5b505050505050565b600260009054906101000a900473ffffffffffffffffffffffffffffffffffffffff1673ffffffffffffffffffffffffffffffffffffffff1663adf21848858585856040518563ffffffff167c0100000000000000000000000000000000000000000000000000000000028152600401611f029493929190614dd4565b600060405180830381600087803b158015611f1c57600080fd5b505af1158015611f30573d6000803e3d6000fd5b5050505050505050565b6000809054906101000a900473ffffffffffffffffffffffffffffffffffffffff1673ffffffffffffffffffffffffffffffffffffffff163373ffffffffffffffffffffffffffffffffffffffff16141561203b57600160009054906101000a900473ffffffffffffffffffffffffffffffffffffffff1673ffffffffffffffffffffffffffffffffffffffff1663b0c6031f83836040518363ffffffff167c0100000000000000000000000000000000000000000000000000000000028152600401612008929190614b3a565b600060405180830381600087803b15801561202257600080fd5b505af1158015612036573d6000803e3d6000fd5b505050505b5050565b612047613282565b600360009054906101000a900473ffffffffffffffffffffffffffffffffffffffff1673ffffffffffffffffffffffffffffffffffffffff16637010416e836040518263ffffffff167c01000000000000000000000000000000000000000000000000000000000281526004016120be9190614c4b565b600060405180830381600087803b1580156120d857600080fd5b505af11580156120ec573d6000803e3d6000fd5b505050506040513d6000823e3d601f19601f820116820180604052506121159190810190613fda565b9050600260009054906101000a900473ffffffffffffffffffffffffffffffffffffffff1673ffffffffffffffffffffffffffffffffffffffff1663b68d6cee8260a00151846040518363ffffffff167c0100000000000000000000000000000000000000000000000000000000028152600401612194929190614d1a565b600060405180830381600087803b1580156121ae57600080fd5b505af11580156121c2573d6000803e3d6000fd5b50505050600360009054906101000a900473ffffffffffffffffffffffffffffffffffffffff1673ffffffffffffffffffffffffffffffffffffffff1663b4ac761e836040518263ffffffff167c010000000000000000000000000000000000000000000000000000000002815260040161223d9190614c4b565b600060405180830381600087803b15801561225757600080fd5b505af115801561226b573d6000803e3d6000fd5b505050505050565b6060600560009054906101000a900473ffffffffffffffffffffffffffffffffffffffff1673ffffffffffffffffffffffffffffffffffffffff1663b4bfea04836040518263ffffffff167c01000000000000000000000000000000000000000000000000000000000281526004016122ec9190614c4b565b600060405180830381600087803b15801561230657600080fd5b505af115801561231a573d6000803e3d6000fd5b505050506040513d6000823e3d601f19601f820116820180604052506123439190810190613d66565b9050919050565b60606123546131a8565b600061235e613282565b600260009054906101000a900473ffffffffffffffffffffffffffffffffffffffff1673ffffffffffffffffffffffffffffffffffffffff16633a20e9df866040518263ffffffff167c01000000000000000000000000000000000000000000000000000000000281526004016123d59190614c4b565b600060405180830381600087803b1580156123ef57600080fd5b505af1158015612403573d6000803e3d6000fd5b505050506040513d6000823e3d601f19601f8201168201806040525061242c919081019061405c565b9250600183610100015151111515612446578393506125bb565b6001836101000151510360405190808252806020026020018201604052801561248957816020015b612476613380565b81526020019060019003908161246e5790505b509350600191505b826101000151518210156125b757600360009054906101000a900473ffffffffffffffffffffffffffffffffffffffff1673ffffffffffffffffffffffffffffffffffffffff16637010416e846101000151848151811015156124f057fe5b906020019060200201516040518263ffffffff167c01000000000000000000000000000000000000000000000000000000000281526004016125329190614c4b565b600060405180830381600087803b15801561254c57600080fd5b505af1158015612560573d6000803e3d6000fd5b505050506040513d6000823e3d601f19601f820116820180604052506125899190810190613fda565b905080846001840381518110151561259d57fe5b906020019060200201819052508180600101925050612491565b8393505b505050919050565b600260009054906101000a900473ffffffffffffffffffffffffffffffffffffffff1673ffffffffffffffffffffffffffffffffffffffff1663709b440d83836040518363ffffffff167c010000000000000000000000000000000000000000000000000000000002815260040161263c929190614d1a565b600060405180830381600087803b15801561265657600080fd5b505af115801561266a573d6000803e3d6000fd5b50505050600460009054906101000a900473ffffffffffffffffffffffffffffffffffffffff1673ffffffffffffffffffffffffffffffffffffffff16633146610d82846040518363ffffffff167c01000000000000000000000000000000000000000000000000000000000281526004016126e7929190614d1a565b600060405180830381600087803b15801561270157600080fd5b505af1158015612715573d6000803e3d6000fd5b505050505050565b600160009054906101000a900473ffffffffffffffffffffffffffffffffffffffff1673ffffffffffffffffffffffffffffffffffffffff1663c62062b083836040518363ffffffff167c0100000000000000000000000000000000000000000000000000000000028152600401612796929190614b3a565b600060405180830381600087803b1580156127b057600080fd5b505af11580156127c4573d6000803e3d6000fd5b505050505050565b6127d461313b565b600460009054906101000a900473ffffffffffffffffffffffffffffffffffffffff1673ffffffffffffffffffffffffffffffffffffffff16635bf85c31836040518263ffffffff167c010000000000000000000000000000000000000000000000000000000002815260040161284b9190614c4b565b600060405180830381600087803b15801561286557600080fd5b505af1158015612879573d6000803e3d6000fd5b505050506040513d6000823e3d601f19601f820116820180604052506128a2919081019061401b565b9050600160009054906101000a900473ffffffffffffffffffffffffffffffffffffffff1673ffffffffffffffffffffffffffffffffffffffff1663b1dcdf3f8260800151846040518363ffffffff167c0100000000000000000000000000000000000000000000000000000000028152600401612921929190614b11565b600060405180830381600087803b15801561293b57600080fd5b505af115801561294f573d6000803e3d6000fd5b505050505050565b600260009054906101000a900473ffffffffffffffffffffffffffffffffffffffff1673ffffffffffffffffffffffffffffffffffffffff16639a4da53a83836040518363ffffffff167c01000000000000000000000000000000000000000000000000000000000281526004016129d0929190614d1a565b600060405180830381600087803b1580156129ea57600080fd5b505af11580156129fe573d6000803e3d6000fd5b50505050600460009054906101000a900473ffffffffffffffffffffffffffffffffffffffff1673ffffffffffffffffffffffffffffffffffffffff166359f0dc5a82846040518363ffffffff167c0100000000000000000000000000000000000000000000000000000000028152600401612a7b929190614d1a565b600060405180830381600087803b158015612a9557600080fd5b505af1158015612aa9573d6000803e3d6000fd5b505050505050565b6060600160009054906101000a900473ffffffffffffffffffffffffffffffffffffffff1673ffffffffffffffffffffffffffffffffffffffff1663e368d75c6040518163ffffffff167c0100000000000000000000000000000000000000000000000000000000028152600401600060405180830381600087803b158015612b3957600080fd5b505af1158015612b4d573d6000803e3d6000fd5b505050506040513d6000823e3d601f19601f82011682018060405250612b769190810190613d25565b905090565b6060612b8561332c565b6000612b8f61313b565b600160009054906101000a900473ffffffffffffffffffffffffffffffffffffffff1673ffffffffffffffffffffffffffffffffffffffff1663fe7009f2866040518263ffffffff167c0100000000000000000000000000000000000000000000000000000000028152600401612c069190614af6565b600060405180830381600087803b158015612c2057600080fd5b505af1158015612c34573d6000803e3d6000fd5b505050506040513d6000823e3d601f19601f82011682018060405250612c5d919081019061409d565b925060018360a0015151111515612c7657839350612de5565b60018360a001515103604051908082528060200260200182016040528015612cb857816020015b612ca56132bf565b815260200190600190039081612c9d5790505b509350600191505b8260a0015151821015612de457600460009054906101000a900473ffffffffffffffffffffffffffffffffffffffff1673ffffffffffffffffffffffffffffffffffffffff16635bf85c318460a0015184815181101515612d1d57fe5b906020019060200201516040518263ffffffff167c0100000000000000000000000000000000000000000000000000000000028152600401612d5f9190614c4b565b600060405180830381600087803b158015612d7957600080fd5b505af1158015612d8d573d6000803e3d6000fd5b505050506040513d6000823e3d601f19601f82011682018060405250612db6919081019061401b565b9050808460018403815181101515612dca57fe5b906020019060200201819052508180600101925050612cc0565b5b505050919050565b80600460006101000a81548173ffffffffffffffffffffffffffffffffffffffff021916908373ffffffffffffffffffffffffffffffffffffffff16021790555050565b600460009054906101000a900473ffffffffffffffffffffffffffffffffffffffff1673ffffffffffffffffffffffffffffffffffffffff1663e8ee5a6b83836040518363ffffffff167c0100000000000000000000000000000000000000000000000000000000028152600401612eaa929190614da4565b600060405180830381600087803b158015612ec457600080fd5b505af1158015612ed8573d6000803e3d6000fd5b505050505050565b6000809054906101000a900473ffffffffffffffffffffffffffffffffffffffff1673ffffffffffffffffffffffffffffffffffffffff163373ffffffffffffffffffffffffffffffffffffffff161415612fad57600073ffffffffffffffffffffffffffffffffffffffff168173ffffffffffffffffffffffffffffffffffffffff16141515612fac57806000806101000a81548173ffffffffffffffffffffffffffffffffffffffff021916908373ffffffffffffffffffffffffffffffffffffffff1602179055505b5b50565b612fb861332c565b600160009054906101000a900473ffffffffffffffffffffffffffffffffffffffff1673ffffffffffffffffffffffffffffffffffffffff1663fe7009f2836040518263ffffffff167c010000000000000000000000000000000000000000000000000000000002815260040161302f9190614af6565b600060405180830381600087803b15801561304957600080fd5b505af115801561305d573d6000803e3d6000fd5b505050506040513d6000823e3d601f19601f82011682018060405250613086919081019061409d565b9050919050565b600060608273ffffffffffffffffffffffffffffffffffffffff169060020a026001029050919050565b60008060008090505b602060ff168110156131315783816020811015156130da57fe5b1a7f0100000000000000000000000000000000000000000000000000000000000000027f010000000000000000000000000000000000000000000000000000000000000090048201915080806001019150506130c0565b8192505050919050565b60e06040519081016040528060008019168152602001600073ffffffffffffffffffffffffffffffffffffffff1681526020016060815260200160008152602001600073ffffffffffffffffffffffffffffffffffffffff16815260200160608152602001606081525090565b6101406040519081016040528060008019168152602001606081526020016060815260200160608152602001600081526020016060815260200160608152602001600073ffffffffffffffffffffffffffffffffffffffff16815260200160608152602001606081525090565b6101406040519081016040528060008019168152602001606081526020016060815260200160608152602001600081526020016060815260200160608152602001600073ffffffffffffffffffffffffffffffffffffffff16815260200160608152602001606081525090565b60c0604051908101604052806000801916815260200160608152602001600081526020016060815260200160008152602001600080191681525090565b60e06040519081016040528060008019168152602001600073ffffffffffffffffffffffffffffffffffffffff1681526020016060815260200160008152602001600073ffffffffffffffffffffffffffffffffffffffff16815260200160608152602001606081525090565b60e060405190810160405280600073ffffffffffffffffffffffffffffffffffffffff1681526020016060815260200160008152602001606081526020016060815260200160608152602001606081525090565b60c0604051908101604052806000801916815260200160608152602001600081526020016060815260200160008152602001600080191681525090565b60006133c982356151be565b905092915050565b60006133dd82516151be565b905092915050565b600082601f83011215156133f857600080fd5b815161340b61340682614f47565b614f1a565b9150818183526020840193506020810190508385602084028201111561343057600080fd5b60005b83811015613460578161344688826135fe565b845260208401935060208301925050600181019050613433565b5050505092915050565b600082601f830112151561347d57600080fd5b815161349061348b82614f6f565b614f1a565b9150818183526020840193506020810190508360005b838110156134d657815186016134bc8882613a1c565b8452602084019350602083019250506001810190506134a6565b5050505092915050565b600082601f83011215156134f357600080fd5b815161350661350182614f97565b614f1a565b9150818183526020840193506020810190508385602084028201111561352b57600080fd5b60005b8381101561355b57816135418882613c6c565b84526020840193506020830192505060018101905061352e565b5050505092915050565b600082601f830112151561357857600080fd5b815161358b61358682614fbf565b614f1a565b915081818352602084019350602081019050838560208402820111156135b057600080fd5b60005b838110156135e057816135c68882613c94565b8452602084019350602083019250506001810190506135b3565b5050505092915050565b60006135f682356151de565b905092915050565b600061360a82516151de565b905092915050565b600082601f830112151561362557600080fd5b815161363861363382614fe7565b614f1a565b9150808252602083016020830185838301111561365457600080fd5b61365f83828461520e565b50505092915050565b600082601f830112151561367b57600080fd5b813561368e61368982615013565b614f1a565b915080825260208301602083018583830111156136aa57600080fd5b6136b58382846151ff565b50505092915050565b600060c082840312156136d057600080fd5b6136da60c0614f1a565b905060006136ea848285016135fe565b600083015250602082015167ffffffffffffffff81111561370a57600080fd5b61371684828501613612565b602083015250604061372a84828501613c6c565b604083015250606082015167ffffffffffffffff81111561374a57600080fd5b61375684828501613612565b606083015250608061376a84828501613c6c565b60808301525060a061377e848285016135fe565b60a08301525092915050565b600060e0828403121561379c57600080fd5b6137a660e0614f1a565b905060006137b6848285016135fe565b60008301525060206137ca848285016133d1565b602083015250604082015167ffffffffffffffff8111156137ea57600080fd5b6137f684828501613612565b604083015250606061380a84828501613c6c565b606083015250608061381e848285016133d1565b60808301525060a082015167ffffffffffffffff81111561383e57600080fd5b61384a848285016133e5565b60a08301525060c082015167ffffffffffffffff81111561386a57600080fd5b613876848285016134e0565b60c08301525092915050565b6000610140828403121561389557600080fd5b6138a0610140614f1a565b905060006138b0848285016135fe565b600083015250602082015167ffffffffffffffff8111156138d057600080fd5b6138dc84828501613612565b602083015250604082015167ffffffffffffffff8111156138fc57600080fd5b61390884828501613612565b604083015250606082015167ffffffffffffffff81111561392857600080fd5b61393484828501613612565b606083015250608061394884828501613c6c565b60808301525060a082015167ffffffffffffffff81111561396857600080fd5b613974848285016133e5565b60a08301525060c082015167ffffffffffffffff81111561399457600080fd5b6139a0848285016134e0565b60c08301525060e06139b4848285016133d1565b60e08301525061010082015167ffffffffffffffff8111156139d557600080fd5b6139e1848285016133e5565b6101008301525061012082015167ffffffffffffffff811115613a0357600080fd5b613a0f848285016134e0565b6101208301525092915050565b600060e08284031215613a2e57600080fd5b613a3860e0614f1a565b90506000613a48848285016133d1565b600083015250602082015167ffffffffffffffff811115613a6857600080fd5b613a7484828501613612565b6020830152506040613a8884828501613c6c565b604083015250606082015167ffffffffffffffff811115613aa857600080fd5b613ab4848285016133e5565b606083015250608082015167ffffffffffffffff811115613ad457600080fd5b613ae0848285016134e0565b60808301525060a082015167ffffffffffffffff811115613b0057600080fd5b613b0c848285016133e5565b60a08301525060c082015167ffffffffffffffff811115613b2c57600080fd5b613b38848285016134e0565b60c08301525092915050565b600060e08284031215613b5657600080fd5b613b6060e0614f1a565b90506000613b70848285016133d1565b600083015250602082015167ffffffffffffffff811115613b9057600080fd5b613b9c84828501613612565b6020830152506040613bb084828501613c6c565b604083015250606082015167ffffffffffffffff811115613bd057600080fd5b613bdc848285016133e5565b606083015250608082015167ffffffffffffffff811115613bfc57600080fd5b613c08848285016134e0565b60808301525060a082015167ffffffffffffffff811115613c2857600080fd5b613c34848285016133e5565b60a08301525060c082015167ffffffffffffffff811115613c5457600080fd5b613c60848285016134e0565b60c08301525092915050565b6000613c7882516151e8565b905092915050565b6000613c8c82356151f2565b905092915050565b6000613ca082516151f2565b905092915050565b600060208284031215613cba57600080fd5b6000613cc8848285016133bd565b91505092915050565b60008060408385031215613ce457600080fd5b6000613cf2858286016133bd565b925050602083013567ffffffffffffffff811115613d0f57600080fd5b613d1b85828601613668565b9150509250929050565b600060208284031215613d3757600080fd5b600082015167ffffffffffffffff811115613d5157600080fd5b613d5d8482850161346a565b91505092915050565b600060208284031215613d7857600080fd5b600082015167ffffffffffffffff811115613d9257600080fd5b613d9e84828501613565565b91505092915050565b600060208284031215613db957600080fd5b6000613dc7848285016135ea565b91505092915050565b60008060408385031215613de357600080fd5b6000613df1858286016135ea565b9250506020613e02858286016135ea565b9150509250929050565b60008060008060808587031215613e2257600080fd5b6000613e30878288016135ea565b9450506020613e41878288016135ea565b935050604085013567ffffffffffffffff811115613e5e57600080fd5b613e6a87828801613668565b925050606085013567ffffffffffffffff811115613e8757600080fd5b613e9387828801613668565b91505092959194509250565b60008060408385031215613eb257600080fd5b6000613ec0858286016135ea565b925050602083013567ffffffffffffffff811115613edd57600080fd5b613ee985828601613668565b9150509250929050565b60008060008060808587031215613f0957600080fd5b6000613f17878288016135ea565b945050602085013567ffffffffffffffff811115613f3457600080fd5b613f4087828801613668565b935050604085013567ffffffffffffffff811115613f5d57600080fd5b613f6987828801613668565b925050606085013567ffffffffffffffff811115613f8657600080fd5b613f9287828801613668565b91505092959194509250565b60008060408385031215613fb157600080fd5b6000613fbf858286016135ea565b9250506020613fd085828601613c80565b9150509250929050565b600060208284031215613fec57600080fd5b600082015167ffffffffffffffff81111561400657600080fd5b614012848285016136be565b91505092915050565b60006020828403121561402d57600080fd5b600082015167ffffffffffffffff81111561404757600080fd5b6140538482850161378a565b91505092915050565b60006020828403121561406e57600080fd5b600082015167ffffffffffffffff81111561408857600080fd5b61409484828501613882565b91505092915050565b6000602082840312156140af57600080fd5b600082015167ffffffffffffffff8111156140c957600080fd5b6140d584828501613b44565b91505092915050565b6000602082840312156140f057600080fd5b60006140fe84828501613c6c565b91505092915050565b6141108161517d565b82525050565b6000614121826150a7565b8084526020840193506141338361503f565b60005b828110156141655761414986835161443a565b61415282615115565b9150602086019550600181019050614136565b50849250505092915050565b600061417c826150b2565b808452602084019350836020820285016141958561504c565b60005b848110156141ce5783830388526141b083835161457c565b92506141bb82615122565b9150602088019750600181019050614198565b508196508694505050505092915050565b60006141ea826150bd565b8084526020840193508360208202850161420385615059565b60005b8481101561423c57838303885261421e8383516146b6565b92506142298261512f565b9150602088019750600181019050614206565b508196508694505050505092915050565b6000614258826150c8565b8084526020840193508360208202850161427185615066565b60005b848110156142aa57838303885261428c838351614864565b92506142978261513c565b9150602088019750600181019050614274565b508196508694505050505092915050565b60006142c6826150d3565b808452602084019350836020820285016142df85615073565b60005b848110156143185783830388526142fa838351614a20565b925061430582615149565b91506020880197506001810190506142e2565b508196508694505050505092915050565b6000614334826150e9565b8084526020840193506143468361508d565b60005b828110156143785761435c868351614ad8565b61436582615163565b9150602086019550600181019050614349565b50849250505092915050565b600061438f826150de565b8084526020840193506143a183615080565b60005b828110156143d3576143b7868351614ad8565b6143c082615156565b91506020860195506001810190506143a4565b50849250505092915050565b60006143ea826150f4565b8084526020840193506143fc8361509a565b60005b8281101561442e57614412868351614ae7565b61441b82615170565b91506020860195506001810190506143ff565b50849250505092915050565b6144438161519d565b82525050565b60006144548261510a565b80845261446881602086016020860161520e565b61447181615241565b602085010191505092915050565b600061448a826150ff565b80845261449e81602086016020860161520e565b6144a781615241565b602085010191505092915050565b6000602082527f646f6e27742068617665207065726d697373696f6e20746f20616464206c6f676020830152604082019050919050565b600060c083016000830151614504600086018261443a565b506020830151848203602086015261451c828261447f565b91505060408301516145316040860182614ad8565b5060608301518482036060860152614549828261447f565b915050608083015161455e6080860182614ad8565b5060a083015161457160a086018261443a565b508091505092915050565b600060c083016000830151614594600086018261443a565b50602083015184820360208601526145ac828261447f565b91505060408301516145c16040860182614ad8565b50606083015184820360608601526145d9828261447f565b91505060808301516145ee6080860182614ad8565b5060a083015161460160a086018261443a565b508091505092915050565b600060e083016000830151614624600086018261443a565b5060208301516146376020860182614107565b506040830151848203604086015261464f828261447f565b91505060608301516146646060860182614ad8565b5060808301516146776080860182614107565b5060a083015184820360a086015261468f8282614116565b91505060c083015184820360c08601526146a98282614384565b9150508091505092915050565b600060e0830160008301516146ce600086018261443a565b5060208301516146e16020860182614107565b50604083015184820360408601526146f9828261447f565b915050606083015161470e6060860182614ad8565b5060808301516147216080860182614107565b5060a083015184820360a08601526147398282614116565b91505060c083015184820360c08601526147538282614384565b9150508091505092915050565b600061014083016000830151614779600086018261443a565b5060208301518482036020860152614791828261447f565b915050604083015184820360408601526147ab828261447f565b915050606083015184820360608601526147c5828261447f565b91505060808301516147da6080860182614ad8565b5060a083015184820360a08601526147f28282614116565b91505060c083015184820360c086015261480c8282614384565b91505060e083015161482160e0860182614107565b5061010083015184820361010086015261483b8282614116565b9150506101208301518482036101208601526148578282614384565b9150508091505092915050565b60006101408301600083015161487d600086018261443a565b5060208301518482036020860152614895828261447f565b915050604083015184820360408601526148af828261447f565b915050606083015184820360608601526148c9828261447f565b91505060808301516148de6080860182614ad8565b5060a083015184820360a08601526148f68282614116565b91505060c083015184820360c08601526149108282614384565b91505060e083015161492560e0860182614107565b5061010083015184820361010086015261493f8282614116565b91505061012083015184820361012086015261495b8282614384565b9150508091505092915050565b600060e0830160008301516149806000860182614107565b5060208301518482036020860152614998828261447f565b91505060408301516149ad6040860182614ad8565b50606083015184820360608601526149c58282614116565b915050608083015184820360808601526149df8282614384565b91505060a083015184820360a08601526149f98282614116565b91505060c083015184820360c0860152614a138282614384565b9150508091505092915050565b600060e083016000830151614a386000860182614107565b5060208301518482036020860152614a50828261447f565b9150506040830151614a656040860182614ad8565b5060608301518482036060860152614a7d8282614116565b91505060808301518482036080860152614a978282614384565b91505060a083015184820360a0860152614ab18282614116565b91505060c083015184820360c0860152614acb8282614384565b9150508091505092915050565b614ae1816151a7565b82525050565b614af0816151b1565b82525050565b6000602082019050614b0b6000830184614107565b92915050565b6000604082019050614b266000830185614107565b614b33602083018461443a565b9392505050565b6000604082019050614b4f6000830185614107565b8181036020830152614b618184614449565b90509392505050565b60006020820190508181036000830152614b848184614171565b905092915050565b60006020820190508181036000830152614ba681846141df565b905092915050565b60006040820190508181036000830152614bc881856141df565b90508181036020830152614bdc8184614329565b90509392505050565b60006020820190508181036000830152614bff818461424d565b905092915050565b60006020820190508181036000830152614c2181846142bb565b905092915050565b60006020820190508181036000830152614c4381846143df565b905092915050565b6000602082019050614c60600083018461443a565b92915050565b6000608082019050614c7b600083018761443a565b614c886020830186614107565b8181036040830152614c9a8185614449565b9050614ca96060830184614107565b95945050505050565b600060a082019050614cc7600083018861443a565b614cd46020830187614107565b8181036040830152614ce68186614449565b90508181036060830152614cfa8185614449565b90508181036080830152614d0e8184614449565b90509695505050505050565b6000604082019050614d2f600083018561443a565b614d3c602083018461443a565b9392505050565b600060a082019050614d58600083018861443a565b614d65602083018761443a565b8181036040830152614d778186614449565b90508181036060830152614d8b8185614449565b9050614d9a6080830184614ad8565b9695505050505050565b6000604082019050614db9600083018561443a565b8181036020830152614dcb8184614449565b90509392505050565b6000608082019050614de9600083018761443a565b8181036020830152614dfb8186614449565b90508181036040830152614e0f8185614449565b90508181036060830152614e238184614449565b905095945050505050565b6000604082019050614e43600083018561443a565b614e506020830184614ae7565b9392505050565b60006020820190508181036000830152614e70816144b5565b9050919050565b60006020820190508181036000830152614e9181846144ec565b905092915050565b60006020820190508181036000830152614eb3818461460c565b905092915050565b60006020820190508181036000830152614ed58184614760565b905092915050565b60006020820190508181036000830152614ef78184614968565b905092915050565b6000602082019050614f146000830184614ad8565b92915050565b6000604051905081810181811067ffffffffffffffff82111715614f3d57600080fd5b8060405250919050565b600067ffffffffffffffff821115614f5e57600080fd5b602082029050602081019050919050565b600067ffffffffffffffff821115614f8657600080fd5b602082029050602081019050919050565b600067ffffffffffffffff821115614fae57600080fd5b602082029050602081019050919050565b600067ffffffffffffffff821115614fd657600080fd5b602082029050602081019050919050565b600067ffffffffffffffff821115614ffe57600080fd5b601f19601f8301169050602081019050919050565b600067ffffffffffffffff82111561502a57600080fd5b601f19601f8301169050602081019050919050565b6000602082019050919050565b6000602082019050919050565b6000602082019050919050565b6000602082019050919050565b6000602082019050919050565b6000602082019050919050565b6000602082019050919050565b6000602082019050919050565b600081519050919050565b600081519050919050565b600081519050919050565b600081519050919050565b600081519050919050565b600081519050919050565b600081519050919050565b600081519050919050565b600081519050919050565b600081519050919050565b6000602082019050919050565b6000602082019050919050565b6000602082019050919050565b6000602082019050919050565b6000602082019050919050565b6000602082019050919050565b6000602082019050919050565b6000602082019050919050565b600073ffffffffffffffffffffffffffffffffffffffff82169050919050565b6000819050919050565b6000819050919050565b600060ff82169050919050565b600073ffffffffffffffffffffffffffffffffffffffff82169050919050565b6000819050919050565b6000819050919050565b600060ff82169050919050565b82818337600083830152505050565b60005b8381101561522c578082015181840152602081019050615211565b8381111561523b576000848401525b50505050565b6000601f19601f83011690509190505600a265627a7a723058201e2da8162593a91e324576c991e91a4745080f1448523100c131d258af3df80a6c6578706572696d656e74616cf50037",
  "source": "pragma solidity ^0.4.24;\npragma experimental ABIEncoderV2;\n\nimport \"./storage/SupplierStorage.sol\";\nimport \"./storage/ProductStorage.sol\";\nimport \"./storage/LogStorage.sol\";\nimport \"./storage/PartnerStorage.sol\";\nimport \"./storage/RateStorage.sol\";\nimport \"./util/Ownable.sol\";\n\ncontract MerchandiseCheck is Ownable {\n    using ConvertUtils for *;\n\n    SupplierStorage private supplierStorage;\n    ProductStorage private productStorage;\n    LogStorage private logStorage;\n    PartnerStorage private partnerStorage;\n    RateStorage private rateStorage;\n\n    constructor (address _supplierStorage, address _productStorage, address _logStorage, address _partnerStorage, address _rateStorage) public {\n        setSupplierStorage(_supplierStorage);\n        setProductStorage(_productStorage);\n        setLogStorage(_logStorage);\n        setPartnerStorage(_partnerStorage);\n        setRateStorage(_rateStorage);\n    }\n\n    // set storage\n    function setSupplierStorage(address _address) public {\n        supplierStorage = SupplierStorage(_address);\n    }\n    function setProductStorage(address _address) public {\n        productStorage = ProductStorage(_address);\n    }\n    function setLogStorage(address _address) public {\n        logStorage = LogStorage(_address);\n    }\n    function setPartnerStorage(address _address) public {\n        partnerStorage = PartnerStorage(_address);\n    }\n    function setRateStorage(address _address) public {\n        rateStorage = RateStorage(_address);\n    }\n\n    // create\n    function createSupplier(address _address, string _name) public onlyOwner {\n        supplierStorage.createSupplier(_address, _name);\n    }\n\n    function createProduct(bytes32 _id, string _name, string _description, string _image) public {\n        productStorage.createProduct(_id, msg.sender, _name, _description, _image);\n        supplierStorage.addProduct(msg.sender, _id);\n    }\n\n    function createLog(bytes32 _id, bytes32 _productId, string _description, string _video) public {\n        ProductModel.Product memory product = productStorage.getProduct(_productId);\n        bool isProductOwner = product.owner == msg.sender;\n        uint senderHash = msg.sender.addressToBytes().bytesArrayToUint();\n        bool isPartner = false;\n        if(senderHash < product.partnerIdsIndex.length){\n            isPartner = product.partnerIdsIndex[senderHash] != 0x0;\n        }\n        require(isProductOwner || isPartner, \"don't have permission to add log\");\n\n        logStorage.createLog(_id, _productId, _description, _video, block.timestamp);\n        productStorage.addLog(_productId, _id);\n    }\n\n    function createPartner(address _address, string _name) public {\n        bytes32 _id = _address.addressToBytes();\n        partnerStorage.createPartner(_id, _address, _name, msg.sender);\n        supplierStorage.addPartner(msg.sender, _id);\n    }\n\n    // get\n    function getListSuppliers() public view returns(SupplierModel.Supplier[]) {\n        return supplierStorage.getListSuppliers();\n    }\n\n    function getSupplier(address _supplierAddress) public view returns(SupplierModel.Supplier) {\n        return supplierStorage.getSupplier(_supplierAddress);\n    }\n\n    function getProduct(bytes32 _productId) public view returns(ProductModel.Product) {\n        return productStorage.getProduct(_productId);\n    }\n\n    function getLog(bytes32 _logId) public view returns(LogModel.Log) {\n        return logStorage.getLog(_logId);\n    }\n\n    function getPartner(bytes32 _id) public view returns (PartnerModel.Partner) {\n        return partnerStorage.getPartner(_id);\n    }\n    \n    function getProductsBySupplier(address _supplierAddress) public view returns(ProductModel.Product[] products) {\n        SupplierModel.Supplier memory supplier = supplierStorage.getSupplier(_supplierAddress);\n        if(supplier.productIds.length<=1){\n            return products;\n        }\n        products = new ProductModel.Product[](supplier.productIds.length-1);\n        for (uint256 i = 1; i < supplier.productIds.length; i++) {\n            ProductModel.Product memory p = productStorage.getProduct(supplier.productIds[i]);\n            products[i-1] = p;\n        }\n    }\n\n    function getProductsByPartner(bytes32 _partnerId) public view returns(ProductModel.Product[] products) {\n        PartnerModel.Partner memory partner = partnerStorage.getPartner(_partnerId);\n        if(partner.productIds.length<=1){\n            return products;\n        }\n        products = new ProductModel.Product[](partner.productIds.length-1);\n        for (uint256 i = 1; i < partner.productIds.length; i++) {\n            ProductModel.Product memory p = productStorage.getProduct(partner.productIds[i]);\n            products[i-1] = p;\n        }\n    }\n\n    function getLogsByProduct(bytes32 _productId) public view returns(LogModel.Log[] logs) {\n        ProductModel.Product memory product = productStorage.getProduct(_productId);\n        if(product.logIds.length<=1){\n            return logs;\n        }\n        logs = new LogModel.Log[](product.logIds.length-1);\n        for (uint256 i = 1; i < product.logIds.length; i++) {\n            LogModel.Log memory log = logStorage.getLog(product.logIds[i]);\n            logs[i-1] = log;\n        }\n\n        return logs;\n    }\n\n    function getPartnersBySupplier(address _supplierAddress) public view returns(PartnerModel.Partner[] partners) {\n        SupplierModel.Supplier memory supplier = supplierStorage.getSupplier(_supplierAddress);\n        if(supplier.partnerIds.length<=1){\n            return partners;\n        }\n        partners = new PartnerModel.Partner[](supplier.partnerIds.length-1);\n        for (uint256 i = 1; i < supplier.partnerIds.length; i++) {\n            PartnerModel.Partner memory p = partnerStorage.getPartner(supplier.partnerIds[i]);\n            partners[i-1] = p;\n        }\n    }\n\n    function getPartnersByProduct(bytes32 _productId) public view returns(PartnerModel.Partner[] partners, uint256[] rates) {\n        ProductModel.Product memory product = productStorage.getProduct(_productId);\n        if(product.partnerIds.length<=1){\n            return (partners, rates);\n        }\n        partners = new PartnerModel.Partner[](product.partnerIds.length-1);\n        rates = new uint256[](product.partnerIds.length-1);\n        for (uint256 i = 1; i < product.partnerIds.length; i++) {\n            bytes32 partnerId = product.partnerIds[i];\n            PartnerModel.Partner memory p = partnerStorage.getPartner(partnerId);\n            partners[i-1] = p;\n            rates[i-1] = rateStorage.getAverageRate(partnerId);\n        }\n    }\n\n    // update\n    function updateSupplier(address _address, string _name) public {\n        supplierStorage.updateSupplier(_address, _name);\n    }\n\n    function updateProduct(bytes32 _id, string _name, string _description, string _image) public {\n        productStorage.updateProduct(_id, _name, _description, _image);\n    }\n\n    function updatePartner(bytes32 _id, string _name) public {\n        partnerStorage.updatePartner(_id, _name);\n    }\n\n    function ratePartner(bytes32 _partnerId, uint8 _star) public {\n        rateStorage.rate(_partnerId, _star);\n    }\n\n    function getAverageRate(bytes32 _partnerId) public view returns(uint256) {\n        return rateStorage.getAverageRate(_partnerId);\n    }\n\n    function getRatesByPartner(bytes32 _partnerId) public view returns(uint8[]) {\n        return rateStorage.getRatesByPartner(_partnerId);\n    }\n\n    // delete\n    function deleteSupplier(address _address) public {\n        supplierStorage.deleteSupplier(_address);\n    }\n\n    function deleteProduct(bytes32 _id) public {\n        ProductModel.Product memory product = productStorage.getProduct(_id);\n        supplierStorage.removeProduct(product.owner, _id);\n        productStorage.deleteProduct(_id);\n    }\n\n    function deleteLog(bytes32 _id) public {\n        LogModel.Log memory log = logStorage.getLog(_id);\n        productStorage.removeLog(log.productId, _id);\n        logStorage.deleteLog(_id);\n    }\n\n    function deletePartner(bytes32 _partnerId) public {\n        PartnerModel.Partner memory partner = partnerStorage.getPartner(_partnerId);\n        supplierStorage.removePartner(partner.supplier, _partnerId);\n        // partnerStorage.deletePartner(_partnerId);\n    }\n\n    function assignProductToPartner(bytes32 _productId, bytes32 _partnerId) public {\n        productStorage.addPartner(_productId, _partnerId);\n        partnerStorage.addProduct(_partnerId, _productId);\n    }\n\n    function unassignProductToPartner(bytes32 _productId, bytes32 _partnerId) public {\n        productStorage.removePartner(_productId, _partnerId);\n        partnerStorage.removeProduct(_partnerId, _productId);\n    }\n}",
  "sourcePath": "/home/hieudeptrai/Desktop/MyProject/truffle/xxx/contracts/MerchandiseCheck.sol",
  "compiler": {
    "name": "solc",
    "version": "0.4.24+commit.e67f0147.Emscripten.clang"
  },
  "schemaVersion": "2.0.1",
  "updatedAt": "2018-12-01T21:24:43.761Z"
}