{
  "contractName": "MerchandiseCheck",
  "abi": [
    {
      "constant": true,
      "inputs": [],
      "name": "owner",
      "outputs": [
        {
          "name": "",
          "type": "address"
        }
      ],
      "payable": false,
      "stateMutability": "view",
      "type": "function"
    },
    {
      "constant": false,
      "inputs": [
        {
          "name": "newOwner",
          "type": "address"
        }
      ],
      "name": "transferOwnership",
      "outputs": [],
      "payable": false,
      "stateMutability": "nonpayable",
      "type": "function"
    },
    {
      "inputs": [
        {
          "name": "_supplierStorage",
          "type": "address"
        },
        {
          "name": "_productStorage",
          "type": "address"
        },
        {
          "name": "_logStorage",
          "type": "address"
        },
        {
          "name": "_partnerStorage",
          "type": "address"
        },
        {
          "name": "_rateStorage",
          "type": "address"
        }
      ],
      "payable": false,
      "stateMutability": "nonpayable",
      "type": "constructor"
    },
    {
      "constant": false,
      "inputs": [
        {
          "name": "_address",
          "type": "address"
        }
      ],
      "name": "setSupplierStorage",
      "outputs": [],
      "payable": false,
      "stateMutability": "nonpayable",
      "type": "function"
    },
    {
      "constant": false,
      "inputs": [
        {
          "name": "_address",
          "type": "address"
        }
      ],
      "name": "setProductStorage",
      "outputs": [],
      "payable": false,
      "stateMutability": "nonpayable",
      "type": "function"
    },
    {
      "constant": false,
      "inputs": [
        {
          "name": "_address",
          "type": "address"
        }
      ],
      "name": "setLogStorage",
      "outputs": [],
      "payable": false,
      "stateMutability": "nonpayable",
      "type": "function"
    },
    {
      "constant": false,
      "inputs": [
        {
          "name": "_address",
          "type": "address"
        }
      ],
      "name": "setPartnerStorage",
      "outputs": [],
      "payable": false,
      "stateMutability": "nonpayable",
      "type": "function"
    },
    {
      "constant": false,
      "inputs": [
        {
          "name": "_address",
          "type": "address"
        }
      ],
      "name": "setRateStorage",
      "outputs": [],
      "payable": false,
      "stateMutability": "nonpayable",
      "type": "function"
    },
    {
      "constant": false,
      "inputs": [
        {
          "name": "_address",
          "type": "address"
        },
        {
          "name": "_name",
          "type": "string"
        }
      ],
      "name": "createSupplier",
      "outputs": [],
      "payable": false,
      "stateMutability": "nonpayable",
      "type": "function"
    },
    {
      "constant": false,
      "inputs": [
        {
          "name": "_id",
          "type": "bytes32"
        },
        {
          "name": "_name",
          "type": "string"
        },
        {
          "name": "_description",
          "type": "string"
        },
        {
          "name": "_image",
          "type": "string"
        }
      ],
      "name": "createProduct",
      "outputs": [],
      "payable": false,
      "stateMutability": "nonpayable",
      "type": "function"
    },
    {
      "constant": false,
      "inputs": [
        {
          "name": "_id",
          "type": "bytes32"
        },
        {
          "name": "_productId",
          "type": "bytes32"
        },
        {
          "name": "_description",
          "type": "string"
        },
        {
          "name": "_video",
          "type": "string"
        }
      ],
      "name": "createLog",
      "outputs": [],
      "payable": false,
      "stateMutability": "nonpayable",
      "type": "function"
    },
    {
      "constant": false,
      "inputs": [
        {
          "name": "_address",
          "type": "address"
        },
        {
          "name": "_name",
          "type": "string"
        }
      ],
      "name": "createPartner",
      "outputs": [],
      "payable": false,
      "stateMutability": "nonpayable",
      "type": "function"
    },
    {
      "constant": true,
      "inputs": [],
      "name": "getListSuppliers",
      "outputs": [
        {
          "components": [
            {
              "name": "addr",
              "type": "address"
            },
            {
              "name": "name",
              "type": "string"
            },
            {
              "name": "index",
              "type": "uint256"
            },
            {
              "name": "productIds",
              "type": "bytes32[]"
            },
            {
              "name": "productIdsIndex",
              "type": "uint256[]"
            },
            {
              "name": "partnerIds",
              "type": "bytes32[]"
            },
            {
              "name": "partnerIdsIndex",
              "type": "uint256[]"
            }
          ],
          "name": "",
          "type": "tuple[]"
        }
      ],
      "payable": false,
      "stateMutability": "view",
      "type": "function"
    },
    {
      "constant": true,
      "inputs": [
        {
          "name": "_supplierAddress",
          "type": "address"
        }
      ],
      "name": "getSupplier",
      "outputs": [
        {
          "components": [
            {
              "name": "addr",
              "type": "address"
            },
            {
              "name": "name",
              "type": "string"
            },
            {
              "name": "index",
              "type": "uint256"
            },
            {
              "name": "productIds",
              "type": "bytes32[]"
            },
            {
              "name": "productIdsIndex",
              "type": "uint256[]"
            },
            {
              "name": "partnerIds",
              "type": "bytes32[]"
            },
            {
              "name": "partnerIdsIndex",
              "type": "uint256[]"
            }
          ],
          "name": "",
          "type": "tuple"
        }
      ],
      "payable": false,
      "stateMutability": "view",
      "type": "function"
    },
    {
      "constant": true,
      "inputs": [
        {
          "name": "_productId",
          "type": "bytes32"
        }
      ],
      "name": "getProduct",
      "outputs": [
        {
          "components": [
            {
              "name": "id",
              "type": "bytes32"
            },
            {
              "name": "name",
              "type": "string"
            },
            {
              "name": "description",
              "type": "string"
            },
            {
              "name": "image",
              "type": "string"
            },
            {
              "name": "index",
              "type": "uint256"
            },
            {
              "name": "partnerIds",
              "type": "bytes32[]"
            },
            {
              "name": "partnerIdsIndex",
              "type": "uint256[]"
            },
            {
              "name": "owner",
              "type": "address"
            },
            {
              "name": "logIds",
              "type": "bytes32[]"
            },
            {
              "name": "logIdsIndex",
              "type": "uint256[]"
            }
          ],
          "name": "",
          "type": "tuple"
        }
      ],
      "payable": false,
      "stateMutability": "view",
      "type": "function"
    },
    {
      "constant": true,
      "inputs": [
        {
          "name": "_logId",
          "type": "bytes32"
        }
      ],
      "name": "getLog",
      "outputs": [
        {
          "components": [
            {
              "name": "id",
              "type": "bytes32"
            },
            {
              "name": "description",
              "type": "string"
            },
            {
              "name": "addedBy",
              "type": "address"
            },
            {
              "name": "createdAt",
              "type": "uint256"
            },
            {
              "name": "video",
              "type": "string"
            },
            {
              "name": "index",
              "type": "uint256"
            },
            {
              "name": "productId",
              "type": "bytes32"
            }
          ],
          "name": "",
          "type": "tuple"
        }
      ],
      "payable": false,
      "stateMutability": "view",
      "type": "function"
    },
    {
      "constant": true,
      "inputs": [
        {
          "name": "_id",
          "type": "bytes32"
        }
      ],
      "name": "getPartner",
      "outputs": [
        {
          "components": [
            {
              "name": "id",
              "type": "bytes32"
            },
            {
              "name": "addr",
              "type": "address"
            },
            {
              "name": "name",
              "type": "string"
            },
            {
              "name": "index",
              "type": "uint256"
            },
            {
              "name": "supplier",
              "type": "address"
            },
            {
              "name": "productIds",
              "type": "bytes32[]"
            },
            {
              "name": "productIdsIndex",
              "type": "uint256[]"
            }
          ],
          "name": "",
          "type": "tuple"
        }
      ],
      "payable": false,
      "stateMutability": "view",
      "type": "function"
    },
    {
      "constant": true,
      "inputs": [
        {
          "name": "_supplierAddress",
          "type": "address"
        }
      ],
      "name": "getProductsBySupplier",
      "outputs": [
        {
          "components": [
            {
              "name": "id",
              "type": "bytes32"
            },
            {
              "name": "name",
              "type": "string"
            },
            {
              "name": "description",
              "type": "string"
            },
            {
              "name": "image",
              "type": "string"
            },
            {
              "name": "index",
              "type": "uint256"
            },
            {
              "name": "partnerIds",
              "type": "bytes32[]"
            },
            {
              "name": "partnerIdsIndex",
              "type": "uint256[]"
            },
            {
              "name": "owner",
              "type": "address"
            },
            {
              "name": "logIds",
              "type": "bytes32[]"
            },
            {
              "name": "logIdsIndex",
              "type": "uint256[]"
            }
          ],
          "name": "products",
          "type": "tuple[]"
        }
      ],
      "payable": false,
      "stateMutability": "view",
      "type": "function"
    },
    {
      "constant": true,
      "inputs": [
        {
          "name": "_partnerId",
          "type": "bytes32"
        }
      ],
      "name": "getProductsByPartner",
      "outputs": [
        {
          "components": [
            {
              "name": "id",
              "type": "bytes32"
            },
            {
              "name": "name",
              "type": "string"
            },
            {
              "name": "description",
              "type": "string"
            },
            {
              "name": "image",
              "type": "string"
            },
            {
              "name": "index",
              "type": "uint256"
            },
            {
              "name": "partnerIds",
              "type": "bytes32[]"
            },
            {
              "name": "partnerIdsIndex",
              "type": "uint256[]"
            },
            {
              "name": "owner",
              "type": "address"
            },
            {
              "name": "logIds",
              "type": "bytes32[]"
            },
            {
              "name": "logIdsIndex",
              "type": "uint256[]"
            }
          ],
          "name": "products",
          "type": "tuple[]"
        }
      ],
      "payable": false,
      "stateMutability": "view",
      "type": "function"
    },
    {
      "constant": true,
      "inputs": [
        {
          "name": "_productId",
          "type": "bytes32"
        }
      ],
      "name": "getLogsByProduct",
      "outputs": [
        {
          "components": [
            {
              "name": "id",
              "type": "bytes32"
            },
            {
              "name": "description",
              "type": "string"
            },
            {
              "name": "addedBy",
              "type": "address"
            },
            {
              "name": "createdAt",
              "type": "uint256"
            },
            {
              "name": "video",
              "type": "string"
            },
            {
              "name": "index",
              "type": "uint256"
            },
            {
              "name": "productId",
              "type": "bytes32"
            }
          ],
          "name": "logs",
          "type": "tuple[]"
        }
      ],
      "payable": false,
      "stateMutability": "view",
      "type": "function"
    },
    {
      "constant": true,
      "inputs": [
        {
          "name": "_supplierAddress",
          "type": "address"
        }
      ],
      "name": "getPartnersBySupplier",
      "outputs": [
        {
          "components": [
            {
              "name": "id",
              "type": "bytes32"
            },
            {
              "name": "addr",
              "type": "address"
            },
            {
              "name": "name",
              "type": "string"
            },
            {
              "name": "index",
              "type": "uint256"
            },
            {
              "name": "supplier",
              "type": "address"
            },
            {
              "name": "productIds",
              "type": "bytes32[]"
            },
            {
              "name": "productIdsIndex",
              "type": "uint256[]"
            }
          ],
          "name": "partners",
          "type": "tuple[]"
        }
      ],
      "payable": false,
      "stateMutability": "view",
      "type": "function"
    },
    {
      "constant": true,
      "inputs": [
        {
          "name": "_productId",
          "type": "bytes32"
        }
      ],
      "name": "getPartnersByProduct",
      "outputs": [
        {
          "components": [
            {
              "name": "id",
              "type": "bytes32"
            },
            {
              "name": "addr",
              "type": "address"
            },
            {
              "name": "name",
              "type": "string"
            },
            {
              "name": "index",
              "type": "uint256"
            },
            {
              "name": "supplier",
              "type": "address"
            },
            {
              "name": "productIds",
              "type": "bytes32[]"
            },
            {
              "name": "productIdsIndex",
              "type": "uint256[]"
            }
          ],
          "name": "partners",
          "type": "tuple[]"
        },
        {
          "name": "rates",
          "type": "uint256[]"
        }
      ],
      "payable": false,
      "stateMutability": "view",
      "type": "function"
    },
    {
      "constant": false,
      "inputs": [
        {
          "name": "_address",
          "type": "address"
        },
        {
          "name": "_name",
          "type": "string"
        }
      ],
      "name": "updateSupplier",
      "outputs": [],
      "payable": false,
      "stateMutability": "nonpayable",
      "type": "function"
    },
    {
      "constant": false,
      "inputs": [
        {
          "name": "_id",
          "type": "bytes32"
        },
        {
          "name": "_name",
          "type": "string"
        },
        {
          "name": "_description",
          "type": "string"
        },
        {
          "name": "_image",
          "type": "string"
        }
      ],
      "name": "updateProduct",
      "outputs": [],
      "payable": false,
      "stateMutability": "nonpayable",
      "type": "function"
    },
    {
      "constant": false,
      "inputs": [
        {
          "name": "_id",
          "type": "bytes32"
        },
        {
          "name": "_name",
          "type": "string"
        }
      ],
      "name": "updatePartner",
      "outputs": [],
      "payable": false,
      "stateMutability": "nonpayable",
      "type": "function"
    },
    {
      "constant": false,
      "inputs": [
        {
          "name": "_partnerId",
          "type": "bytes32"
        },
        {
          "name": "_star",
          "type": "uint8"
        }
      ],
      "name": "ratePartner",
      "outputs": [],
      "payable": false,
      "stateMutability": "nonpayable",
      "type": "function"
    },
    {
      "constant": true,
      "inputs": [
        {
          "name": "_partnerId",
          "type": "bytes32"
        }
      ],
      "name": "getAverageRate",
      "outputs": [
        {
          "name": "",
          "type": "uint256"
        }
      ],
      "payable": false,
      "stateMutability": "view",
      "type": "function"
    },
    {
      "constant": true,
      "inputs": [
        {
          "name": "_partnerId",
          "type": "bytes32"
        }
      ],
      "name": "getRatesByPartner",
      "outputs": [
        {
          "name": "",
          "type": "uint8[]"
        }
      ],
      "payable": false,
      "stateMutability": "view",
      "type": "function"
    },
    {
      "constant": false,
      "inputs": [
        {
          "name": "_address",
          "type": "address"
        }
      ],
      "name": "deleteSupplier",
      "outputs": [],
      "payable": false,
      "stateMutability": "nonpayable",
      "type": "function"
    },
    {
      "constant": false,
      "inputs": [
        {
          "name": "_id",
          "type": "bytes32"
        }
      ],
      "name": "deleteProduct",
      "outputs": [],
      "payable": false,
      "stateMutability": "nonpayable",
      "type": "function"
    },
    {
      "constant": false,
      "inputs": [
        {
          "name": "_id",
          "type": "bytes32"
        }
      ],
      "name": "deleteLog",
      "outputs": [],
      "payable": false,
      "stateMutability": "nonpayable",
      "type": "function"
    },
    {
      "constant": false,
      "inputs": [
        {
          "name": "_partnerId",
          "type": "bytes32"
        }
      ],
      "name": "deletePartner",
      "outputs": [],
      "payable": false,
      "stateMutability": "nonpayable",
      "type": "function"
    },
    {
      "constant": false,
      "inputs": [
        {
          "name": "_productId",
          "type": "bytes32"
        },
        {
          "name": "_partnerId",
          "type": "bytes32"
        }
      ],
      "name": "assignProductToPartner",
      "outputs": [],
      "payable": false,
      "stateMutability": "nonpayable",
      "type": "function"
    },
    {
      "constant": false,
      "inputs": [
        {
          "name": "_productId",
          "type": "bytes32"
        },
        {
          "name": "_partnerId",
          "type": "bytes32"
        }
      ],
      "name": "unassignProductToPartner",
      "outputs": [],
      "payable": false,
      "stateMutability": "nonpayable",
      "type": "function"
    }
  ],
  "bytecode": "0x60806040523480156200001157600080fd5b5060405160a0806200562c83398101806040526200003391908101906200026a565b336000806101000a81548173ffffffffffffffffffffffffffffffffffffffff021916908373ffffffffffffffffffffffffffffffffffffffff1602179055506200008d8562000100640100000000026401000000009004565b620000a78462000144640100000000026401000000009004565b620000c18362000188640100000000026401000000009004565b620000db82620001cc640100000000026401000000009004565b620000f58162000210640100000000026401000000009004565b50505050506200030c565b80600160006101000a81548173ffffffffffffffffffffffffffffffffffffffff021916908373ffffffffffffffffffffffffffffffffffffffff16021790555050565b80600260006101000a81548173ffffffffffffffffffffffffffffffffffffffff021916908373ffffffffffffffffffffffffffffffffffffffff16021790555050565b80600360006101000a81548173ffffffffffffffffffffffffffffffffffffffff021916908373ffffffffffffffffffffffffffffffffffffffff16021790555050565b80600460006101000a81548173ffffffffffffffffffffffffffffffffffffffff021916908373ffffffffffffffffffffffffffffffffffffffff16021790555050565b80600560006101000a81548173ffffffffffffffffffffffffffffffffffffffff021916908373ffffffffffffffffffffffffffffffffffffffff16021790555050565b6000620002628251620002ec565b905092915050565b600080600080600060a086880312156200028357600080fd5b6000620002938882890162000254565b9550506020620002a68882890162000254565b9450506040620002b98882890162000254565b9350506060620002cc8882890162000254565b9250506080620002df8882890162000254565b9150509295509295909350565b600073ffffffffffffffffffffffffffffffffffffffff82169050919050565b615310806200031c6000396000f3006080604052600436106101a1576000357c0100000000000000000000000000000000000000000000000000000000900463ffffffff1680631a013095146101a657806325e34c11146101cf578063290344c7146101f85780633289c3851461022157806339f701fd1461025e5780633a20e9df1461028757806342c00ce9146102c45780634c856575146102ed578063525a933d1461032a5780635bf85c31146103535780637010416e146103905780637a12b9c5146103cd5780638144a0eb146103f6578063880a169b146104345780638da5cb5b1461045d57806394727b41146104885780639cc2fcc6146104b1578063a5a49796146104ee578063adf2184814610517578063b0c6031f14610540578063b4ac761e14610569578063b4bfea0414610592578063ba30c87a146105cf578063bf5e9f621461060c578063c62062b014610635578063ca66e08f1461065e578063e33d947214610687578063e368d75c146106b0578063e4d450e6146106db578063e8ad4c5d14610718578063e8ee5a6b14610741578063f2fde38b1461076a578063fe7009f214610793575b600080fd5b3480156101b257600080fd5b506101cd60048036036101c89190810190613d21565b6107d0565b005b3480156101db57600080fd5b506101f660048036036101f19190810190613cf8565b610952565b005b34801561020457600080fd5b5061021f600480360361021a9190810190613f43565b610996565b005b34801561022d57600080fd5b5061024860048036036102439190810190613df7565b610af8565b6040516102559190614c5b565b60405180910390f35b34801561026a57600080fd5b5061028560048036036102809190810190613e5c565b610d6a565b005b34801561029357600080fd5b506102ae60048036036102a99190810190613df7565b61108f565b6040516102bb9190614f3f565b60405180910390f35b3480156102d057600080fd5b506102eb60048036036102e69190810190613cf8565b61116c565b005b3480156102f957600080fd5b50610314600480360361030f9190810190613df7565b611218565b6040516103219190614f83565b60405180910390f35b34801561033657600080fd5b50610351600480360361034c9190810190613cf8565b6112ea565b005b34801561035f57600080fd5b5061037a60048036036103759190810190613df7565b61132e565b6040516103879190614f1d565b60405180910390f35b34801561039c57600080fd5b506103b760048036036103b29190810190613df7565b61140b565b6040516103c49190614efb565b60405180910390f35b3480156103d957600080fd5b506103f460048036036103ef9190810190613cf8565b6114e8565b005b34801561040257600080fd5b5061041d60048036036104189190810190613df7565b61152c565b60405161042b929190614c24565b60405180910390f35b34801561044057600080fd5b5061045b60048036036104569190810190613cf8565b6118c9565b005b34801561046957600080fd5b5061047261190d565b60405161047f9190614b6c565b60405180910390f35b34801561049457600080fd5b506104af60048036036104aa9190810190613df7565b611932565b005b3480156104bd57600080fd5b506104d860048036036104d39190810190613cf8565b611b66565b6040516104e59190614c5b565b60405180910390f35b3480156104fa57600080fd5b5061051560048036036105109190810190613fee565b611dd8565b005b34801561052357600080fd5b5061053e60048036036105399190810190613f43565b611e87565b005b34801561054c57600080fd5b5061056760048036036105629190810190613d21565b611f3c565b005b34801561057557600080fd5b50610590600480360361058b9190810190613df7565b612041565b005b34801561059e57600080fd5b506105b960048036036105b49190810190613df7565b612275565b6040516105c69190614c9f565b60405180910390f35b3480156105db57600080fd5b506105f660048036036105f19190810190613df7565b61234c565b6040516106039190614be0565b60405180910390f35b34801561061857600080fd5b50610633600480360361062e9190810190613e20565b6125c5565b005b34801561064157600080fd5b5061065c60048036036106579190810190613d21565b61271f565b005b34801561066a57600080fd5b5061068560048036036106809190810190613df7565b6127ce565b005b34801561069357600080fd5b506106ae60048036036106a99190810190613e20565b612959565b005b3480156106bc57600080fd5b506106c5612ab3565b6040516106d29190614c7d565b60405180910390f35b3480156106e757600080fd5b5061070260048036036106fd9190810190613cf8565b612b7d565b60405161070f9190614c02565b60405180910390f35b34801561072457600080fd5b5061073f600480360361073a9190810190613cf8565b612def565b005b34801561074d57600080fd5b5061076860048036036107639190810190613eef565b612e33565b005b34801561077657600080fd5b50610791600480360361078c9190810190613cf8565b612ee2565b005b34801561079f57600080fd5b506107ba60048036036107b59190810190613cf8565b612fb2565b6040516107c79190614f61565b60405180910390f35b60006107f18373ffffffffffffffffffffffffffffffffffffffff1661308f565b9050600460009054906101000a900473ffffffffffffffffffffffffffffffffffffffff1673ffffffffffffffffffffffffffffffffffffffff16639db20685828585336040518563ffffffff167c01000000000000000000000000000000000000000000000000000000000281526004016108709493929190614cdc565b600060405180830381600087803b15801561088a57600080fd5b505af115801561089e573d6000803e3d6000fd5b50505050600160009054906101000a900473ffffffffffffffffffffffffffffffffffffffff1673ffffffffffffffffffffffffffffffffffffffff1663e66a788c33836040518363ffffffff167c010000000000000000000000000000000000000000000000000000000002815260040161091b929190614b87565b600060405180830381600087803b15801561093557600080fd5b505af1158015610949573d6000803e3d6000fd5b50505050505050565b80600560006101000a81548173ffffffffffffffffffffffffffffffffffffffff021916908373ffffffffffffffffffffffffffffffffffffffff16021790555050565b600260009054906101000a900473ffffffffffffffffffffffffffffffffffffffff1673ffffffffffffffffffffffffffffffffffffffff1663ac5dede985338686866040518663ffffffff167c0100000000000000000000000000000000000000000000000000000000028152600401610a15959493929190614d28565b600060405180830381600087803b158015610a2f57600080fd5b505af1158015610a43573d6000803e3d6000fd5b50505050600160009054906101000a900473ffffffffffffffffffffffffffffffffffffffff1673ffffffffffffffffffffffffffffffffffffffff1663d58e7e7233866040518363ffffffff167c0100000000000000000000000000000000000000000000000000000000028152600401610ac0929190614b87565b600060405180830381600087803b158015610ada57600080fd5b505af1158015610aee573d6000803e3d6000fd5b5050505050505050565b6060610b0261313d565b6000610b0c6131aa565b600460009054906101000a900473ffffffffffffffffffffffffffffffffffffffff1673ffffffffffffffffffffffffffffffffffffffff16635bf85c31866040518263ffffffff167c0100000000000000000000000000000000000000000000000000000000028152600401610b839190614cc1565b600060405180830381600087803b158015610b9d57600080fd5b505af1158015610bb1573d6000803e3d6000fd5b505050506040513d6000823e3d601f19601f82011682018060405250610bda919081019061406b565b925060018360a0015151111515610bf357839350610d62565b60018360a001515103604051908082528060200260200182016040528015610c3557816020015b610c22613217565b815260200190600190039081610c1a5790505b509350600191505b8260a0015151821015610d6157600260009054906101000a900473ffffffffffffffffffffffffffffffffffffffff1673ffffffffffffffffffffffffffffffffffffffff16633a20e9df8460a0015184815181101515610c9a57fe5b906020019060200201516040518263ffffffff167c0100000000000000000000000000000000000000000000000000000000028152600401610cdc9190614cc1565b600060405180830381600087803b158015610cf657600080fd5b505af1158015610d0a573d6000803e3d6000fd5b505050506040513d6000823e3d601f19601f82011682018060405250610d3391908101906140ac565b9050808460018403815181101515610d4757fe5b906020019060200201819052508180600101925050610c3d565b5b505050919050565b610d726131aa565b6000806000600260009054906101000a900473ffffffffffffffffffffffffffffffffffffffff1673ffffffffffffffffffffffffffffffffffffffff16633a20e9df886040518263ffffffff167c0100000000000000000000000000000000000000000000000000000000028152600401610dee9190614cc1565b600060405180830381600087803b158015610e0857600080fd5b505af1158015610e1c573d6000803e3d6000fd5b505050506040513d6000823e3d601f19601f82011682018060405250610e4591908101906140ac565b93503373ffffffffffffffffffffffffffffffffffffffff168460e0015173ffffffffffffffffffffffffffffffffffffffff16149250610ea7610e9e3373ffffffffffffffffffffffffffffffffffffffff1661308f565b600019166130b9565b9150600090508360c0015151821015610edd5760008460c0015183815181101515610ece57fe5b90602001906020020151141590505b8280610ee65750805b1515610f27576040517f08c379a0000000000000000000000000000000000000000000000000000000008152600401610f1e90614edb565b60405180910390fd5b600360009054906101000a900473ffffffffffffffffffffffffffffffffffffffff1673ffffffffffffffffffffffffffffffffffffffff16630db281e9898989338a426040518763ffffffff167c0100000000000000000000000000000000000000000000000000000000028152600401610fa896959493929190614db9565b600060405180830381600087803b158015610fc257600080fd5b505af1158015610fd6573d6000803e3d6000fd5b50505050600260009054906101000a900473ffffffffffffffffffffffffffffffffffffffff1673ffffffffffffffffffffffffffffffffffffffff1663870c6122888a6040518363ffffffff167c0100000000000000000000000000000000000000000000000000000000028152600401611053929190614d90565b600060405180830381600087803b15801561106d57600080fd5b505af1158015611081573d6000803e3d6000fd5b505050505050505050505050565b6110976131aa565b600260009054906101000a900473ffffffffffffffffffffffffffffffffffffffff1673ffffffffffffffffffffffffffffffffffffffff16633a20e9df836040518263ffffffff167c010000000000000000000000000000000000000000000000000000000002815260040161110e9190614cc1565b600060405180830381600087803b15801561112857600080fd5b505af115801561113c573d6000803e3d6000fd5b505050506040513d6000823e3d601f19601f8201168201806040525061116591908101906140ac565b9050919050565b600160009054906101000a900473ffffffffffffffffffffffffffffffffffffffff1673ffffffffffffffffffffffffffffffffffffffff166342c00ce9826040518263ffffffff167c01000000000000000000000000000000000000000000000000000000000281526004016111e39190614b6c565b600060405180830381600087803b1580156111fd57600080fd5b505af1158015611211573d6000803e3d6000fd5b5050505050565b6000600560009054906101000a900473ffffffffffffffffffffffffffffffffffffffff1673ffffffffffffffffffffffffffffffffffffffff16634c856575836040518263ffffffff167c01000000000000000000000000000000000000000000000000000000000281526004016112919190614cc1565b602060405180830381600087803b1580156112ab57600080fd5b505af11580156112bf573d6000803e3d6000fd5b505050506040513d601f19601f820116820180604052506112e3919081019061412e565b9050919050565b80600160006101000a81548173ffffffffffffffffffffffffffffffffffffffff021916908373ffffffffffffffffffffffffffffffffffffffff16021790555050565b61133661313d565b600460009054906101000a900473ffffffffffffffffffffffffffffffffffffffff1673ffffffffffffffffffffffffffffffffffffffff16635bf85c31836040518263ffffffff167c01000000000000000000000000000000000000000000000000000000000281526004016113ad9190614cc1565b600060405180830381600087803b1580156113c757600080fd5b505af11580156113db573d6000803e3d6000fd5b505050506040513d6000823e3d601f19601f82011682018060405250611404919081019061406b565b9050919050565b611413613284565b600360009054906101000a900473ffffffffffffffffffffffffffffffffffffffff1673ffffffffffffffffffffffffffffffffffffffff16637010416e836040518263ffffffff167c010000000000000000000000000000000000000000000000000000000002815260040161148a9190614cc1565b600060405180830381600087803b1580156114a457600080fd5b505af11580156114b8573d6000803e3d6000fd5b505050506040513d6000823e3d601f19601f820116820180604052506114e1919081019061402a565b9050919050565b80600260006101000a81548173ffffffffffffffffffffffffffffffffffffffff021916908373ffffffffffffffffffffffffffffffffffffffff16021790555050565b6060806115376131aa565b60008061154261313d565b600260009054906101000a900473ffffffffffffffffffffffffffffffffffffffff1673ffffffffffffffffffffffffffffffffffffffff16633a20e9df886040518263ffffffff167c01000000000000000000000000000000000000000000000000000000000281526004016115b99190614cc1565b600060405180830381600087803b1580156115d357600080fd5b505af11580156115e7573d6000803e3d6000fd5b505050506040513d6000823e3d601f19601f8201168201806040525061161091908101906140ac565b935060018460a001515111151561162c578585955095506118c0565b60018460a00151510360405190808252806020026020018201604052801561166e57816020015b61165b6132de565b8152602001906001900390816116535790505b50955060018460a0015151036040519080825280602002602001820160405280156116a85781602001602082028038833980820191505090505b509450600192505b8360a00151518310156118bf578360a00151838151811015156116cf57fe5b906020019060200201519150600460009054906101000a900473ffffffffffffffffffffffffffffffffffffffff1673ffffffffffffffffffffffffffffffffffffffff16635bf85c31836040518263ffffffff167c01000000000000000000000000000000000000000000000000000000000281526004016117529190614cc1565b600060405180830381600087803b15801561176c57600080fd5b505af1158015611780573d6000803e3d6000fd5b505050506040513d6000823e3d601f19601f820116820180604052506117a9919081019061406b565b90508086600185038151811015156117bd57fe5b90602001906020020181905250600560009054906101000a900473ffffffffffffffffffffffffffffffffffffffff1673ffffffffffffffffffffffffffffffffffffffff16634c856575836040518263ffffffff167c01000000000000000000000000000000000000000000000000000000000281526004016118419190614cc1565b602060405180830381600087803b15801561185b57600080fd5b505af115801561186f573d6000803e3d6000fd5b505050506040513d601f19601f82011682018060405250611893919081019061412e565b85600185038151811015156118a457fe5b906020019060200201818152505082806001019350506116b0565b5b50505050915091565b80600360006101000a81548173ffffffffffffffffffffffffffffffffffffffff021916908373ffffffffffffffffffffffffffffffffffffffff16021790555050565b6000809054906101000a900473ffffffffffffffffffffffffffffffffffffffff1681565b61193a6131aa565b600260009054906101000a900473ffffffffffffffffffffffffffffffffffffffff1673ffffffffffffffffffffffffffffffffffffffff16633a20e9df836040518263ffffffff167c01000000000000000000000000000000000000000000000000000000000281526004016119b19190614cc1565b600060405180830381600087803b1580156119cb57600080fd5b505af11580156119df573d6000803e3d6000fd5b505050506040513d6000823e3d601f19601f82011682018060405250611a0891908101906140ac565b9050600160009054906101000a900473ffffffffffffffffffffffffffffffffffffffff1673ffffffffffffffffffffffffffffffffffffffff1663420521858260e00151846040518363ffffffff167c0100000000000000000000000000000000000000000000000000000000028152600401611a87929190614b87565b600060405180830381600087803b158015611aa157600080fd5b505af1158015611ab5573d6000803e3d6000fd5b50505050600260009054906101000a900473ffffffffffffffffffffffffffffffffffffffff1673ffffffffffffffffffffffffffffffffffffffff166394727b41836040518263ffffffff167c0100000000000000000000000000000000000000000000000000000000028152600401611b309190614cc1565b600060405180830381600087803b158015611b4a57600080fd5b505af1158015611b5e573d6000803e3d6000fd5b505050505050565b6060611b7061334b565b6000611b7a6131aa565b600160009054906101000a900473ffffffffffffffffffffffffffffffffffffffff1673ffffffffffffffffffffffffffffffffffffffff1663fe7009f2866040518263ffffffff167c0100000000000000000000000000000000000000000000000000000000028152600401611bf19190614b6c565b600060405180830381600087803b158015611c0b57600080fd5b505af1158015611c1f573d6000803e3d6000fd5b505050506040513d6000823e3d601f19601f82011682018060405250611c4891908101906140ed565b92506001836060015151111515611c6157839350611dd0565b600183606001515103604051908082528060200260200182016040528015611ca357816020015b611c90613217565b815260200190600190039081611c885790505b509350600191505b826060015151821015611dcf57600260009054906101000a900473ffffffffffffffffffffffffffffffffffffffff1673ffffffffffffffffffffffffffffffffffffffff16633a20e9df846060015184815181101515611d0857fe5b906020019060200201516040518263ffffffff167c0100000000000000000000000000000000000000000000000000000000028152600401611d4a9190614cc1565b600060405180830381600087803b158015611d6457600080fd5b505af1158015611d78573d6000803e3d6000fd5b505050506040513d6000823e3d601f19601f82011682018060405250611da191908101906140ac565b9050808460018403815181101515611db557fe5b906020019060200201819052508180600101925050611cab565b5b505050919050565b600560009054906101000a900473ffffffffffffffffffffffffffffffffffffffff1673ffffffffffffffffffffffffffffffffffffffff1663bacca52783836040518363ffffffff167c0100000000000000000000000000000000000000000000000000000000028152600401611e51929190614eb2565b600060405180830381600087803b158015611e6b57600080fd5b505af1158015611e7f573d6000803e3d6000fd5b505050505050565b600260009054906101000a900473ffffffffffffffffffffffffffffffffffffffff1673ffffffffffffffffffffffffffffffffffffffff1663adf21848858585856040518563ffffffff167c0100000000000000000000000000000000000000000000000000000000028152600401611f049493929190614e58565b600060405180830381600087803b158015611f1e57600080fd5b505af1158015611f32573d6000803e3d6000fd5b5050505050505050565b6000809054906101000a900473ffffffffffffffffffffffffffffffffffffffff1673ffffffffffffffffffffffffffffffffffffffff163373ffffffffffffffffffffffffffffffffffffffff16141561203d57600160009054906101000a900473ffffffffffffffffffffffffffffffffffffffff1673ffffffffffffffffffffffffffffffffffffffff1663b0c6031f83836040518363ffffffff167c010000000000000000000000000000000000000000000000000000000002815260040161200a929190614bb0565b600060405180830381600087803b15801561202457600080fd5b505af1158015612038573d6000803e3d6000fd5b505050505b5050565b612049613284565b600360009054906101000a900473ffffffffffffffffffffffffffffffffffffffff1673ffffffffffffffffffffffffffffffffffffffff16637010416e836040518263ffffffff167c01000000000000000000000000000000000000000000000000000000000281526004016120c09190614cc1565b600060405180830381600087803b1580156120da57600080fd5b505af11580156120ee573d6000803e3d6000fd5b505050506040513d6000823e3d601f19601f82011682018060405250612117919081019061402a565b9050600260009054906101000a900473ffffffffffffffffffffffffffffffffffffffff1673ffffffffffffffffffffffffffffffffffffffff1663b68d6cee8260c00151846040518363ffffffff167c0100000000000000000000000000000000000000000000000000000000028152600401612196929190614d90565b600060405180830381600087803b1580156121b057600080fd5b505af11580156121c4573d6000803e3d6000fd5b50505050600360009054906101000a900473ffffffffffffffffffffffffffffffffffffffff1673ffffffffffffffffffffffffffffffffffffffff1663b4ac761e836040518263ffffffff167c010000000000000000000000000000000000000000000000000000000002815260040161223f9190614cc1565b600060405180830381600087803b15801561225957600080fd5b505af115801561226d573d6000803e3d6000fd5b505050505050565b6060600560009054906101000a900473ffffffffffffffffffffffffffffffffffffffff1673ffffffffffffffffffffffffffffffffffffffff1663b4bfea04836040518263ffffffff167c01000000000000000000000000000000000000000000000000000000000281526004016122ee9190614cc1565b600060405180830381600087803b15801561230857600080fd5b505af115801561231c573d6000803e3d6000fd5b505050506040513d6000823e3d601f19601f820116820180604052506123459190810190613db6565b9050919050565b60606123566131aa565b6000612360613284565b600260009054906101000a900473ffffffffffffffffffffffffffffffffffffffff1673ffffffffffffffffffffffffffffffffffffffff16633a20e9df866040518263ffffffff167c01000000000000000000000000000000000000000000000000000000000281526004016123d79190614cc1565b600060405180830381600087803b1580156123f157600080fd5b505af1158015612405573d6000803e3d6000fd5b505050506040513d6000823e3d601f19601f8201168201806040525061242e91908101906140ac565b9250600183610100015151111515612448578393506125bd565b6001836101000151510360405190808252806020026020018201604052801561248b57816020015b61247861339f565b8152602001906001900390816124705790505b509350600191505b826101000151518210156125b957600360009054906101000a900473ffffffffffffffffffffffffffffffffffffffff1673ffffffffffffffffffffffffffffffffffffffff16637010416e846101000151848151811015156124f257fe5b906020019060200201516040518263ffffffff167c01000000000000000000000000000000000000000000000000000000000281526004016125349190614cc1565b600060405180830381600087803b15801561254e57600080fd5b505af1158015612562573d6000803e3d6000fd5b505050506040513d6000823e3d601f19601f8201168201806040525061258b919081019061402a565b905080846001840381518110151561259f57fe5b906020019060200201819052508180600101925050612493565b8393505b505050919050565b600260009054906101000a900473ffffffffffffffffffffffffffffffffffffffff1673ffffffffffffffffffffffffffffffffffffffff1663709b440d83836040518363ffffffff167c010000000000000000000000000000000000000000000000000000000002815260040161263e929190614d90565b600060405180830381600087803b15801561265857600080fd5b505af115801561266c573d6000803e3d6000fd5b50505050600460009054906101000a900473ffffffffffffffffffffffffffffffffffffffff1673ffffffffffffffffffffffffffffffffffffffff16633146610d82846040518363ffffffff167c01000000000000000000000000000000000000000000000000000000000281526004016126e9929190614d90565b600060405180830381600087803b15801561270357600080fd5b505af1158015612717573d6000803e3d6000fd5b505050505050565b600160009054906101000a900473ffffffffffffffffffffffffffffffffffffffff1673ffffffffffffffffffffffffffffffffffffffff1663c62062b083836040518363ffffffff167c0100000000000000000000000000000000000000000000000000000000028152600401612798929190614bb0565b600060405180830381600087803b1580156127b257600080fd5b505af11580156127c6573d6000803e3d6000fd5b505050505050565b6127d661313d565b600460009054906101000a900473ffffffffffffffffffffffffffffffffffffffff1673ffffffffffffffffffffffffffffffffffffffff16635bf85c31836040518263ffffffff167c010000000000000000000000000000000000000000000000000000000002815260040161284d9190614cc1565b600060405180830381600087803b15801561286757600080fd5b505af115801561287b573d6000803e3d6000fd5b505050506040513d6000823e3d601f19601f820116820180604052506128a4919081019061406b565b9050600160009054906101000a900473ffffffffffffffffffffffffffffffffffffffff1673ffffffffffffffffffffffffffffffffffffffff1663b1dcdf3f8260800151846040518363ffffffff167c0100000000000000000000000000000000000000000000000000000000028152600401612923929190614b87565b600060405180830381600087803b15801561293d57600080fd5b505af1158015612951573d6000803e3d6000fd5b505050505050565b600260009054906101000a900473ffffffffffffffffffffffffffffffffffffffff1673ffffffffffffffffffffffffffffffffffffffff16639a4da53a83836040518363ffffffff167c01000000000000000000000000000000000000000000000000000000000281526004016129d2929190614d90565b600060405180830381600087803b1580156129ec57600080fd5b505af1158015612a00573d6000803e3d6000fd5b50505050600460009054906101000a900473ffffffffffffffffffffffffffffffffffffffff1673ffffffffffffffffffffffffffffffffffffffff166359f0dc5a82846040518363ffffffff167c0100000000000000000000000000000000000000000000000000000000028152600401612a7d929190614d90565b600060405180830381600087803b158015612a9757600080fd5b505af1158015612aab573d6000803e3d6000fd5b505050505050565b6060600160009054906101000a900473ffffffffffffffffffffffffffffffffffffffff1673ffffffffffffffffffffffffffffffffffffffff1663e368d75c6040518163ffffffff167c0100000000000000000000000000000000000000000000000000000000028152600401600060405180830381600087803b158015612b3b57600080fd5b505af1158015612b4f573d6000803e3d6000fd5b505050506040513d6000823e3d601f19601f82011682018060405250612b789190810190613d75565b905090565b6060612b8761334b565b6000612b9161313d565b600160009054906101000a900473ffffffffffffffffffffffffffffffffffffffff1673ffffffffffffffffffffffffffffffffffffffff1663fe7009f2866040518263ffffffff167c0100000000000000000000000000000000000000000000000000000000028152600401612c089190614b6c565b600060405180830381600087803b158015612c2257600080fd5b505af1158015612c36573d6000803e3d6000fd5b505050506040513d6000823e3d601f19601f82011682018060405250612c5f91908101906140ed565b925060018360a0015151111515612c7857839350612de7565b60018360a001515103604051908082528060200260200182016040528015612cba57816020015b612ca76132de565b815260200190600190039081612c9f5790505b509350600191505b8260a0015151821015612de657600460009054906101000a900473ffffffffffffffffffffffffffffffffffffffff1673ffffffffffffffffffffffffffffffffffffffff16635bf85c318460a0015184815181101515612d1f57fe5b906020019060200201516040518263ffffffff167c0100000000000000000000000000000000000000000000000000000000028152600401612d619190614cc1565b600060405180830381600087803b158015612d7b57600080fd5b505af1158015612d8f573d6000803e3d6000fd5b505050506040513d6000823e3d601f19601f82011682018060405250612db8919081019061406b565b9050808460018403815181101515612dcc57fe5b906020019060200201819052508180600101925050612cc2565b5b505050919050565b80600460006101000a81548173ffffffffffffffffffffffffffffffffffffffff021916908373ffffffffffffffffffffffffffffffffffffffff16021790555050565b600460009054906101000a900473ffffffffffffffffffffffffffffffffffffffff1673ffffffffffffffffffffffffffffffffffffffff1663e8ee5a6b83836040518363ffffffff167c0100000000000000000000000000000000000000000000000000000000028152600401612eac929190614e28565b600060405180830381600087803b158015612ec657600080fd5b505af1158015612eda573d6000803e3d6000fd5b505050505050565b6000809054906101000a900473ffffffffffffffffffffffffffffffffffffffff1673ffffffffffffffffffffffffffffffffffffffff163373ffffffffffffffffffffffffffffffffffffffff161415612faf57600073ffffffffffffffffffffffffffffffffffffffff168173ffffffffffffffffffffffffffffffffffffffff16141515612fae57806000806101000a81548173ffffffffffffffffffffffffffffffffffffffff021916908373ffffffffffffffffffffffffffffffffffffffff1602179055505b5b50565b612fba61334b565b600160009054906101000a900473ffffffffffffffffffffffffffffffffffffffff1673ffffffffffffffffffffffffffffffffffffffff1663fe7009f2836040518263ffffffff167c01000000000000000000000000000000000000000000000000000000000281526004016130319190614b6c565b600060405180830381600087803b15801561304b57600080fd5b505af115801561305f573d6000803e3d6000fd5b505050506040513d6000823e3d601f19601f8201168201806040525061308891908101906140ed565b9050919050565b600060608273ffffffffffffffffffffffffffffffffffffffff169060020a026001029050919050565b60008060008090505b602060ff168110156131335783816020811015156130dc57fe5b1a7f0100000000000000000000000000000000000000000000000000000000000000027f010000000000000000000000000000000000000000000000000000000000000090048201915080806001019150506130c2565b8192505050919050565b60e06040519081016040528060008019168152602001600073ffffffffffffffffffffffffffffffffffffffff1681526020016060815260200160008152602001600073ffffffffffffffffffffffffffffffffffffffff16815260200160608152602001606081525090565b6101406040519081016040528060008019168152602001606081526020016060815260200160608152602001600081526020016060815260200160608152602001600073ffffffffffffffffffffffffffffffffffffffff16815260200160608152602001606081525090565b6101406040519081016040528060008019168152602001606081526020016060815260200160608152602001600081526020016060815260200160608152602001600073ffffffffffffffffffffffffffffffffffffffff16815260200160608152602001606081525090565b60e0604051908101604052806000801916815260200160608152602001600073ffffffffffffffffffffffffffffffffffffffff168152602001600081526020016060815260200160008152602001600080191681525090565b60e06040519081016040528060008019168152602001600073ffffffffffffffffffffffffffffffffffffffff1681526020016060815260200160008152602001600073ffffffffffffffffffffffffffffffffffffffff16815260200160608152602001606081525090565b60e060405190810160405280600073ffffffffffffffffffffffffffffffffffffffff1681526020016060815260200160008152602001606081526020016060815260200160608152602001606081525090565b60e0604051908101604052806000801916815260200160608152602001600073ffffffffffffffffffffffffffffffffffffffff168152602001600081526020016060815260200160008152602001600080191681525090565b60006134058235615242565b905092915050565b60006134198251615242565b905092915050565b600082601f830112151561343457600080fd5b815161344761344282614fcb565b614f9e565b9150818183526020840193506020810190508385602084028201111561346c57600080fd5b60005b8381101561349c5781613482888261363a565b84526020840193506020830192505060018101905061346f565b5050505092915050565b600082601f83011215156134b957600080fd5b81516134cc6134c782614ff3565b614f9e565b9150818183526020840193506020810190508360005b8381101561351257815186016134f88882613a6c565b8452602084019350602083019250506001810190506134e2565b5050505092915050565b600082601f830112151561352f57600080fd5b815161354261353d8261501b565b614f9e565b9150818183526020840193506020810190508385602084028201111561356757600080fd5b60005b83811015613597578161357d8882613cbc565b84526020840193506020830192505060018101905061356a565b5050505092915050565b600082601f83011215156135b457600080fd5b81516135c76135c282615043565b614f9e565b915081818352602084019350602081019050838560208402820111156135ec57600080fd5b60005b8381101561361c57816136028882613ce4565b8452602084019350602083019250506001810190506135ef565b5050505092915050565b60006136328235615262565b905092915050565b60006136468251615262565b905092915050565b600082601f830112151561366157600080fd5b815161367461366f8261506b565b614f9e565b9150808252602083016020830185838301111561369057600080fd5b61369b838284615292565b50505092915050565b600082601f83011215156136b757600080fd5b81356136ca6136c582615097565b614f9e565b915080825260208301602083018583830111156136e657600080fd5b6136f1838284615283565b50505092915050565b600060e0828403121561370c57600080fd5b61371660e0614f9e565b905060006137268482850161363a565b600083015250602082015167ffffffffffffffff81111561374657600080fd5b6137528482850161364e565b60208301525060406137668482850161340d565b604083015250606061377a84828501613cbc565b606083015250608082015167ffffffffffffffff81111561379a57600080fd5b6137a68482850161364e565b60808301525060a06137ba84828501613cbc565b60a08301525060c06137ce8482850161363a565b60c08301525092915050565b600060e082840312156137ec57600080fd5b6137f660e0614f9e565b905060006138068482850161363a565b600083015250602061381a8482850161340d565b602083015250604082015167ffffffffffffffff81111561383a57600080fd5b6138468482850161364e565b604083015250606061385a84828501613cbc565b606083015250608061386e8482850161340d565b60808301525060a082015167ffffffffffffffff81111561388e57600080fd5b61389a84828501613421565b60a08301525060c082015167ffffffffffffffff8111156138ba57600080fd5b6138c68482850161351c565b60c08301525092915050565b600061014082840312156138e557600080fd5b6138f0610140614f9e565b905060006139008482850161363a565b600083015250602082015167ffffffffffffffff81111561392057600080fd5b61392c8482850161364e565b602083015250604082015167ffffffffffffffff81111561394c57600080fd5b6139588482850161364e565b604083015250606082015167ffffffffffffffff81111561397857600080fd5b6139848482850161364e565b606083015250608061399884828501613cbc565b60808301525060a082015167ffffffffffffffff8111156139b857600080fd5b6139c484828501613421565b60a08301525060c082015167ffffffffffffffff8111156139e457600080fd5b6139f08482850161351c565b60c08301525060e0613a048482850161340d565b60e08301525061010082015167ffffffffffffffff811115613a2557600080fd5b613a3184828501613421565b6101008301525061012082015167ffffffffffffffff811115613a5357600080fd5b613a5f8482850161351c565b6101208301525092915050565b600060e08284031215613a7e57600080fd5b613a8860e0614f9e565b90506000613a988482850161340d565b600083015250602082015167ffffffffffffffff811115613ab857600080fd5b613ac48482850161364e565b6020830152506040613ad884828501613cbc565b604083015250606082015167ffffffffffffffff811115613af857600080fd5b613b0484828501613421565b606083015250608082015167ffffffffffffffff811115613b2457600080fd5b613b308482850161351c565b60808301525060a082015167ffffffffffffffff811115613b5057600080fd5b613b5c84828501613421565b60a08301525060c082015167ffffffffffffffff811115613b7c57600080fd5b613b888482850161351c565b60c08301525092915050565b600060e08284031215613ba657600080fd5b613bb060e0614f9e565b90506000613bc08482850161340d565b600083015250602082015167ffffffffffffffff811115613be057600080fd5b613bec8482850161364e565b6020830152506040613c0084828501613cbc565b604083015250606082015167ffffffffffffffff811115613c2057600080fd5b613c2c84828501613421565b606083015250608082015167ffffffffffffffff811115613c4c57600080fd5b613c588482850161351c565b60808301525060a082015167ffffffffffffffff811115613c7857600080fd5b613c8484828501613421565b60a08301525060c082015167ffffffffffffffff811115613ca457600080fd5b613cb08482850161351c565b60c08301525092915050565b6000613cc8825161526c565b905092915050565b6000613cdc8235615276565b905092915050565b6000613cf08251615276565b905092915050565b600060208284031215613d0a57600080fd5b6000613d18848285016133f9565b91505092915050565b60008060408385031215613d3457600080fd5b6000613d42858286016133f9565b925050602083013567ffffffffffffffff811115613d5f57600080fd5b613d6b858286016136a4565b9150509250929050565b600060208284031215613d8757600080fd5b600082015167ffffffffffffffff811115613da157600080fd5b613dad848285016134a6565b91505092915050565b600060208284031215613dc857600080fd5b600082015167ffffffffffffffff811115613de257600080fd5b613dee848285016135a1565b91505092915050565b600060208284031215613e0957600080fd5b6000613e1784828501613626565b91505092915050565b60008060408385031215613e3357600080fd5b6000613e4185828601613626565b9250506020613e5285828601613626565b9150509250929050565b60008060008060808587031215613e7257600080fd5b6000613e8087828801613626565b9450506020613e9187828801613626565b935050604085013567ffffffffffffffff811115613eae57600080fd5b613eba878288016136a4565b925050606085013567ffffffffffffffff811115613ed757600080fd5b613ee3878288016136a4565b91505092959194509250565b60008060408385031215613f0257600080fd5b6000613f1085828601613626565b925050602083013567ffffffffffffffff811115613f2d57600080fd5b613f39858286016136a4565b9150509250929050565b60008060008060808587031215613f5957600080fd5b6000613f6787828801613626565b945050602085013567ffffffffffffffff811115613f8457600080fd5b613f90878288016136a4565b935050604085013567ffffffffffffffff811115613fad57600080fd5b613fb9878288016136a4565b925050606085013567ffffffffffffffff811115613fd657600080fd5b613fe2878288016136a4565b91505092959194509250565b6000806040838503121561400157600080fd5b600061400f85828601613626565b925050602061402085828601613cd0565b9150509250929050565b60006020828403121561403c57600080fd5b600082015167ffffffffffffffff81111561405657600080fd5b614062848285016136fa565b91505092915050565b60006020828403121561407d57600080fd5b600082015167ffffffffffffffff81111561409757600080fd5b6140a3848285016137da565b91505092915050565b6000602082840312156140be57600080fd5b600082015167ffffffffffffffff8111156140d857600080fd5b6140e4848285016138d2565b91505092915050565b6000602082840312156140ff57600080fd5b600082015167ffffffffffffffff81111561411957600080fd5b61412584828501613b94565b91505092915050565b60006020828403121561414057600080fd5b600061414e84828501613cbc565b91505092915050565b61416081615201565b82525050565b60006141718261512b565b808452602084019350614183836150c3565b60005b828110156141b55761419986835161448a565b6141a282615199565b9150602086019550600181019050614186565b50849250505092915050565b60006141cc82615136565b808452602084019350836020820285016141e5856150d0565b60005b8481101561421e5783830388526142008383516145df565b925061420b826151a6565b91506020880197506001810190506141e8565b508196508694505050505092915050565b600061423a82615141565b80845260208401935083602082028501614253856150dd565b60005b8481101561428c57838303885261426e83835161472c565b9250614279826151b3565b9150602088019750600181019050614256565b508196508694505050505092915050565b60006142a88261514c565b808452602084019350836020820285016142c1856150ea565b60005b848110156142fa5783830388526142dc8383516148da565b92506142e7826151c0565b91506020880197506001810190506142c4565b508196508694505050505092915050565b600061431682615157565b8084526020840193508360208202850161432f856150f7565b60005b8481101561436857838303885261434a838351614a96565b9250614355826151cd565b9150602088019750600181019050614332565b508196508694505050505092915050565b60006143848261516d565b80845260208401935061439683615111565b60005b828110156143c8576143ac868351614b4e565b6143b5826151e7565b9150602086019550600181019050614399565b50849250505092915050565b60006143df82615162565b8084526020840193506143f183615104565b60005b8281101561442357614407868351614b4e565b614410826151da565b91506020860195506001810190506143f4565b50849250505092915050565b600061443a82615178565b80845260208401935061444c8361511e565b60005b8281101561447e57614462868351614b5d565b61446b826151f4565b915060208601955060018101905061444f565b50849250505092915050565b61449381615221565b82525050565b60006144a48261518e565b8084526144b8816020860160208601615292565b6144c1816152c5565b602085010191505092915050565b60006144da82615183565b8084526144ee816020860160208601615292565b6144f7816152c5565b602085010191505092915050565b6000602082527f646f6e27742068617665207065726d697373696f6e20746f20616464206c6f676020830152604082019050919050565b600060e083016000830151614554600086018261448a565b506020830151848203602086015261456c82826144cf565b91505060408301516145816040860182614157565b5060608301516145946060860182614b4e565b50608083015184820360808601526145ac82826144cf565b91505060a08301516145c160a0860182614b4e565b5060c08301516145d460c086018261448a565b508091505092915050565b600060e0830160008301516145f7600086018261448a565b506020830151848203602086015261460f82826144cf565b91505060408301516146246040860182614157565b5060608301516146376060860182614b4e565b506080830151848203608086015261464f82826144cf565b91505060a083015161466460a0860182614b4e565b5060c083015161467760c086018261448a565b508091505092915050565b600060e08301600083015161469a600086018261448a565b5060208301516146ad6020860182614157565b50604083015184820360408601526146c582826144cf565b91505060608301516146da6060860182614b4e565b5060808301516146ed6080860182614157565b5060a083015184820360a08601526147058282614166565b91505060c083015184820360c086015261471f82826143d4565b9150508091505092915050565b600060e083016000830151614744600086018261448a565b5060208301516147576020860182614157565b506040830151848203604086015261476f82826144cf565b91505060608301516147846060860182614b4e565b5060808301516147976080860182614157565b5060a083015184820360a08601526147af8282614166565b91505060c083015184820360c08601526147c982826143d4565b9150508091505092915050565b6000610140830160008301516147ef600086018261448a565b506020830151848203602086015261480782826144cf565b9150506040830151848203604086015261482182826144cf565b9150506060830151848203606086015261483b82826144cf565b91505060808301516148506080860182614b4e565b5060a083015184820360a08601526148688282614166565b91505060c083015184820360c086015261488282826143d4565b91505060e083015161489760e0860182614157565b506101008301518482036101008601526148b18282614166565b9150506101208301518482036101208601526148cd82826143d4565b9150508091505092915050565b6000610140830160008301516148f3600086018261448a565b506020830151848203602086015261490b82826144cf565b9150506040830151848203604086015261492582826144cf565b9150506060830151848203606086015261493f82826144cf565b91505060808301516149546080860182614b4e565b5060a083015184820360a086015261496c8282614166565b91505060c083015184820360c086015261498682826143d4565b91505060e083015161499b60e0860182614157565b506101008301518482036101008601526149b58282614166565b9150506101208301518482036101208601526149d182826143d4565b9150508091505092915050565b600060e0830160008301516149f66000860182614157565b5060208301518482036020860152614a0e82826144cf565b9150506040830151614a236040860182614b4e565b5060608301518482036060860152614a3b8282614166565b91505060808301518482036080860152614a5582826143d4565b91505060a083015184820360a0860152614a6f8282614166565b91505060c083015184820360c0860152614a8982826143d4565b9150508091505092915050565b600060e083016000830151614aae6000860182614157565b5060208301518482036020860152614ac682826144cf565b9150506040830151614adb6040860182614b4e565b5060608301518482036060860152614af38282614166565b91505060808301518482036080860152614b0d82826143d4565b91505060a083015184820360a0860152614b278282614166565b91505060c083015184820360c0860152614b4182826143d4565b9150508091505092915050565b614b578161522b565b82525050565b614b6681615235565b82525050565b6000602082019050614b816000830184614157565b92915050565b6000604082019050614b9c6000830185614157565b614ba9602083018461448a565b9392505050565b6000604082019050614bc56000830185614157565b8181036020830152614bd78184614499565b90509392505050565b60006020820190508181036000830152614bfa81846141c1565b905092915050565b60006020820190508181036000830152614c1c818461422f565b905092915050565b60006040820190508181036000830152614c3e818561422f565b90508181036020830152614c528184614379565b90509392505050565b60006020820190508181036000830152614c75818461429d565b905092915050565b60006020820190508181036000830152614c97818461430b565b905092915050565b60006020820190508181036000830152614cb9818461442f565b905092915050565b6000602082019050614cd6600083018461448a565b92915050565b6000608082019050614cf1600083018761448a565b614cfe6020830186614157565b8181036040830152614d108185614499565b9050614d1f6060830184614157565b95945050505050565b600060a082019050614d3d600083018861448a565b614d4a6020830187614157565b8181036040830152614d5c8186614499565b90508181036060830152614d708185614499565b90508181036080830152614d848184614499565b90509695505050505050565b6000604082019050614da5600083018561448a565b614db2602083018461448a565b9392505050565b600060c082019050614dce600083018961448a565b614ddb602083018861448a565b8181036040830152614ded8187614499565b9050614dfc6060830186614157565b8181036080830152614e0e8185614499565b9050614e1d60a0830184614b4e565b979650505050505050565b6000604082019050614e3d600083018561448a565b8181036020830152614e4f8184614499565b90509392505050565b6000608082019050614e6d600083018761448a565b8181036020830152614e7f8186614499565b90508181036040830152614e938185614499565b90508181036060830152614ea78184614499565b905095945050505050565b6000604082019050614ec7600083018561448a565b614ed46020830184614b5d565b9392505050565b60006020820190508181036000830152614ef481614505565b9050919050565b60006020820190508181036000830152614f15818461453c565b905092915050565b60006020820190508181036000830152614f378184614682565b905092915050565b60006020820190508181036000830152614f5981846147d6565b905092915050565b60006020820190508181036000830152614f7b81846149de565b905092915050565b6000602082019050614f986000830184614b4e565b92915050565b6000604051905081810181811067ffffffffffffffff82111715614fc157600080fd5b8060405250919050565b600067ffffffffffffffff821115614fe257600080fd5b602082029050602081019050919050565b600067ffffffffffffffff82111561500a57600080fd5b602082029050602081019050919050565b600067ffffffffffffffff82111561503257600080fd5b602082029050602081019050919050565b600067ffffffffffffffff82111561505a57600080fd5b602082029050602081019050919050565b600067ffffffffffffffff82111561508257600080fd5b601f19601f8301169050602081019050919050565b600067ffffffffffffffff8211156150ae57600080fd5b601f19601f8301169050602081019050919050565b6000602082019050919050565b6000602082019050919050565b6000602082019050919050565b6000602082019050919050565b6000602082019050919050565b6000602082019050919050565b6000602082019050919050565b6000602082019050919050565b600081519050919050565b600081519050919050565b600081519050919050565b600081519050919050565b600081519050919050565b600081519050919050565b600081519050919050565b600081519050919050565b600081519050919050565b600081519050919050565b6000602082019050919050565b6000602082019050919050565b6000602082019050919050565b6000602082019050919050565b6000602082019050919050565b6000602082019050919050565b6000602082019050919050565b6000602082019050919050565b600073ffffffffffffffffffffffffffffffffffffffff82169050919050565b6000819050919050565b6000819050919050565b600060ff82169050919050565b600073ffffffffffffffffffffffffffffffffffffffff82169050919050565b6000819050919050565b6000819050919050565b600060ff82169050919050565b82818337600083830152505050565b60005b838110156152b0578082015181840152602081019050615295565b838111156152bf576000848401525b50505050565b6000601f19601f83011690509190505600a265627a7a72305820a735697e2a4456ee064b49d423d353af62acfcaea057207b87253ece61011d706c6578706572696d656e74616cf50037",
  "source": "pragma solidity ^0.4.24;\npragma experimental ABIEncoderV2;\n\nimport \"./storage/SupplierStorage.sol\";\nimport \"./storage/ProductStorage.sol\";\nimport \"./storage/LogStorage.sol\";\nimport \"./storage/PartnerStorage.sol\";\nimport \"./storage/RateStorage.sol\";\nimport \"./util/Ownable.sol\";\n\ncontract MerchandiseCheck is Ownable {\n    using ConvertUtils for *;\n\n    SupplierStorage private supplierStorage;\n    ProductStorage private productStorage;\n    LogStorage private logStorage;\n    PartnerStorage private partnerStorage;\n    RateStorage private rateStorage;\n\n    constructor (address _supplierStorage, address _productStorage, address _logStorage, address _partnerStorage, address _rateStorage) public {\n        setSupplierStorage(_supplierStorage);\n        setProductStorage(_productStorage);\n        setLogStorage(_logStorage);\n        setPartnerStorage(_partnerStorage);\n        setRateStorage(_rateStorage);\n    }\n\n    // set storage\n    function setSupplierStorage(address _address) public {\n        supplierStorage = SupplierStorage(_address);\n    }\n    function setProductStorage(address _address) public {\n        productStorage = ProductStorage(_address);\n    }\n    function setLogStorage(address _address) public {\n        logStorage = LogStorage(_address);\n    }\n    function setPartnerStorage(address _address) public {\n        partnerStorage = PartnerStorage(_address);\n    }\n    function setRateStorage(address _address) public {\n        rateStorage = RateStorage(_address);\n    }\n\n    // create\n    function createSupplier(address _address, string _name) public onlyOwner {\n        supplierStorage.createSupplier(_address, _name);\n    }\n\n    function createProduct(bytes32 _id, string _name, string _description, string _image) public {\n        productStorage.createProduct(_id, msg.sender, _name, _description, _image);\n        supplierStorage.addProduct(msg.sender, _id);\n    }\n\n    function createLog(bytes32 _id, bytes32 _productId, string _description, string _video) public {\n        ProductModel.Product memory product = productStorage.getProduct(_productId);\n        bool isProductOwner = product.owner == msg.sender;\n        uint senderHash = msg.sender.addressToBytes().bytesArrayToUint();\n        bool isPartner = false;\n        if(senderHash < product.partnerIdsIndex.length){\n            isPartner = product.partnerIdsIndex[senderHash] != 0x0;\n        }\n        require(isProductOwner || isPartner, \"don't have permission to add log\");\n\n        logStorage.createLog(_id, _productId, _description, msg.sender, _video, block.timestamp);\n        productStorage.addLog(_productId, _id);\n    }\n\n    function createPartner(address _address, string _name) public {\n        bytes32 _id = _address.addressToBytes();\n        partnerStorage.createPartner(_id, _address, _name, msg.sender);\n        supplierStorage.addPartner(msg.sender, _id);\n    }\n\n    // get\n    function getListSuppliers() public view returns(SupplierModel.Supplier[]) {\n        return supplierStorage.getListSuppliers();\n    }\n\n    function getSupplier(address _supplierAddress) public view returns(SupplierModel.Supplier) {\n        return supplierStorage.getSupplier(_supplierAddress);\n    }\n\n    function getProduct(bytes32 _productId) public view returns(ProductModel.Product) {\n        return productStorage.getProduct(_productId);\n    }\n\n    function getLog(bytes32 _logId) public view returns(LogModel.Log) {\n        return logStorage.getLog(_logId);\n    }\n\n    function getPartner(bytes32 _id) public view returns (PartnerModel.Partner) {\n        return partnerStorage.getPartner(_id);\n    }\n    \n    function getProductsBySupplier(address _supplierAddress) public view returns(ProductModel.Product[] products) {\n        SupplierModel.Supplier memory supplier = supplierStorage.getSupplier(_supplierAddress);\n        if(supplier.productIds.length<=1){\n            return products;\n        }\n        products = new ProductModel.Product[](supplier.productIds.length-1);\n        for (uint256 i = 1; i < supplier.productIds.length; i++) {\n            ProductModel.Product memory p = productStorage.getProduct(supplier.productIds[i]);\n            products[i-1] = p;\n        }\n    }\n\n    function getProductsByPartner(bytes32 _partnerId) public view returns(ProductModel.Product[] products) {\n        PartnerModel.Partner memory partner = partnerStorage.getPartner(_partnerId);\n        if(partner.productIds.length<=1){\n            return products;\n        }\n        products = new ProductModel.Product[](partner.productIds.length-1);\n        for (uint256 i = 1; i < partner.productIds.length; i++) {\n            ProductModel.Product memory p = productStorage.getProduct(partner.productIds[i]);\n            products[i-1] = p;\n        }\n    }\n\n    function getLogsByProduct(bytes32 _productId) public view returns(LogModel.Log[] logs) {\n        ProductModel.Product memory product = productStorage.getProduct(_productId);\n        if(product.logIds.length<=1){\n            return logs;\n        }\n        logs = new LogModel.Log[](product.logIds.length-1);\n        for (uint256 i = 1; i < product.logIds.length; i++) {\n            LogModel.Log memory log = logStorage.getLog(product.logIds[i]);\n            logs[i-1] = log;\n        }\n\n        return logs;\n    }\n\n    function getPartnersBySupplier(address _supplierAddress) public view returns(PartnerModel.Partner[] partners) {\n        SupplierModel.Supplier memory supplier = supplierStorage.getSupplier(_supplierAddress);\n        if(supplier.partnerIds.length<=1){\n            return partners;\n        }\n        partners = new PartnerModel.Partner[](supplier.partnerIds.length-1);\n        for (uint256 i = 1; i < supplier.partnerIds.length; i++) {\n            PartnerModel.Partner memory p = partnerStorage.getPartner(supplier.partnerIds[i]);\n            partners[i-1] = p;\n        }\n    }\n\n    function getPartnersByProduct(bytes32 _productId) public view returns(PartnerModel.Partner[] partners, uint256[] rates) {\n        ProductModel.Product memory product = productStorage.getProduct(_productId);\n        if(product.partnerIds.length<=1){\n            return (partners, rates);\n        }\n        partners = new PartnerModel.Partner[](product.partnerIds.length-1);\n        rates = new uint256[](product.partnerIds.length-1);\n        for (uint256 i = 1; i < product.partnerIds.length; i++) {\n            bytes32 partnerId = product.partnerIds[i];\n            PartnerModel.Partner memory p = partnerStorage.getPartner(partnerId);\n            partners[i-1] = p;\n            rates[i-1] = rateStorage.getAverageRate(partnerId);\n        }\n    }\n\n    // update\n    function updateSupplier(address _address, string _name) public {\n        supplierStorage.updateSupplier(_address, _name);\n    }\n\n    function updateProduct(bytes32 _id, string _name, string _description, string _image) public {\n        productStorage.updateProduct(_id, _name, _description, _image);\n    }\n\n    function updatePartner(bytes32 _id, string _name) public {\n        partnerStorage.updatePartner(_id, _name);\n    }\n\n    function ratePartner(bytes32 _partnerId, uint8 _star) public {\n        rateStorage.rate(_partnerId, _star);\n    }\n\n    function getAverageRate(bytes32 _partnerId) public view returns(uint256) {\n        return rateStorage.getAverageRate(_partnerId);\n    }\n\n    function getRatesByPartner(bytes32 _partnerId) public view returns(uint8[]) {\n        return rateStorage.getRatesByPartner(_partnerId);\n    }\n\n    // delete\n    function deleteSupplier(address _address) public {\n        supplierStorage.deleteSupplier(_address);\n    }\n\n    function deleteProduct(bytes32 _id) public {\n        ProductModel.Product memory product = productStorage.getProduct(_id);\n        supplierStorage.removeProduct(product.owner, _id);\n        productStorage.deleteProduct(_id);\n    }\n\n    function deleteLog(bytes32 _id) public {\n        LogModel.Log memory log = logStorage.getLog(_id);\n        productStorage.removeLog(log.productId, _id);\n        logStorage.deleteLog(_id);\n    }\n\n    function deletePartner(bytes32 _partnerId) public {\n        PartnerModel.Partner memory partner = partnerStorage.getPartner(_partnerId);\n        supplierStorage.removePartner(partner.supplier, _partnerId);\n        // partnerStorage.deletePartner(_partnerId);\n    }\n\n    function assignProductToPartner(bytes32 _productId, bytes32 _partnerId) public {\n        productStorage.addPartner(_productId, _partnerId);\n        partnerStorage.addProduct(_partnerId, _productId);\n    }\n\n    function unassignProductToPartner(bytes32 _productId, bytes32 _partnerId) public {\n        productStorage.removePartner(_productId, _partnerId);\n        partnerStorage.removeProduct(_partnerId, _productId);\n    }\n}",
  "sourcePath": "/home/hieudeptrai/Desktop/MyProject/truffle/merchandise-check/contracts/MerchandiseCheck.sol",
  "compiler": {
    "name": "solc",
    "version": "0.4.24+commit.e67f0147.Emscripten.clang"
  },
  "schemaVersion": "2.0.1",
  "updatedAt": "2018-12-23T13:49:24.760Z"
}