{
  "contractName": "PartnerStorage",
  "abi": [
    {
      "constant": true,
      "inputs": [
        {
          "name": "",
          "type": "uint256"
        }
      ],
      "name": "partnerIndex",
      "outputs": [
        {
          "name": "",
          "type": "bytes32"
        }
      ],
      "payable": false,
      "stateMutability": "view",
      "type": "function"
    },
    {
      "constant": true,
      "inputs": [
        {
          "name": "",
          "type": "bytes32"
        }
      ],
      "name": "partnerList",
      "outputs": [
        {
          "name": "id",
          "type": "bytes32"
        },
        {
          "name": "addr",
          "type": "address"
        },
        {
          "name": "name",
          "type": "string"
        },
        {
          "name": "index",
          "type": "uint256"
        },
        {
          "name": "supplier",
          "type": "address"
        }
      ],
      "payable": false,
      "stateMutability": "view",
      "type": "function"
    },
    {
      "constant": false,
      "inputs": [
        {
          "name": "_id",
          "type": "bytes32"
        },
        {
          "name": "_address",
          "type": "address"
        },
        {
          "name": "_name",
          "type": "string"
        },
        {
          "name": "_supplier",
          "type": "address"
        }
      ],
      "name": "createPartner",
      "outputs": [],
      "payable": false,
      "stateMutability": "nonpayable",
      "type": "function"
    },
    {
      "constant": true,
      "inputs": [],
      "name": "getListPartners",
      "outputs": [
        {
          "components": [
            {
              "name": "id",
              "type": "bytes32"
            },
            {
              "name": "addr",
              "type": "address"
            },
            {
              "name": "name",
              "type": "string"
            },
            {
              "name": "index",
              "type": "uint256"
            },
            {
              "name": "supplier",
              "type": "address"
            },
            {
              "name": "productIds",
              "type": "bytes32[]"
            },
            {
              "name": "productIdsIndex",
              "type": "uint256[]"
            }
          ],
          "name": "",
          "type": "tuple[]"
        }
      ],
      "payable": false,
      "stateMutability": "view",
      "type": "function"
    },
    {
      "constant": true,
      "inputs": [
        {
          "name": "_id",
          "type": "bytes32"
        }
      ],
      "name": "getPartner",
      "outputs": [
        {
          "components": [
            {
              "name": "id",
              "type": "bytes32"
            },
            {
              "name": "addr",
              "type": "address"
            },
            {
              "name": "name",
              "type": "string"
            },
            {
              "name": "index",
              "type": "uint256"
            },
            {
              "name": "supplier",
              "type": "address"
            },
            {
              "name": "productIds",
              "type": "bytes32[]"
            },
            {
              "name": "productIdsIndex",
              "type": "uint256[]"
            }
          ],
          "name": "",
          "type": "tuple"
        }
      ],
      "payable": false,
      "stateMutability": "view",
      "type": "function"
    },
    {
      "constant": false,
      "inputs": [
        {
          "name": "_id",
          "type": "bytes32"
        }
      ],
      "name": "deletePartner",
      "outputs": [],
      "payable": false,
      "stateMutability": "nonpayable",
      "type": "function"
    },
    {
      "constant": false,
      "inputs": [
        {
          "name": "_id",
          "type": "bytes32"
        },
        {
          "name": "_name",
          "type": "string"
        }
      ],
      "name": "updatePartner",
      "outputs": [],
      "payable": false,
      "stateMutability": "nonpayable",
      "type": "function"
    },
    {
      "constant": false,
      "inputs": [
        {
          "name": "_id",
          "type": "bytes32"
        },
        {
          "name": "_productID",
          "type": "bytes32"
        }
      ],
      "name": "addProduct",
      "outputs": [],
      "payable": false,
      "stateMutability": "nonpayable",
      "type": "function"
    },
    {
      "constant": false,
      "inputs": [
        {
          "name": "_id",
          "type": "bytes32"
        },
        {
          "name": "_productID",
          "type": "bytes32"
        }
      ],
      "name": "removeProduct",
      "outputs": [],
      "payable": false,
      "stateMutability": "nonpayable",
      "type": "function"
    }
  ],
  "bytecode": "0x608060405234801561001057600080fd5b506118cf806100206000396000f300608060405260043610610099576000357c0100000000000000000000000000000000000000000000000000000000900463ffffffff1680633146610d1461009e578063457d5c31146100c75780634f3f21031461010457806359f0dc5a1461012f5780635bf85c31146101585780639db2068514610195578063adb20667146101be578063ca66e08f146101ff578063e8ee5a6b14610228575b600080fd5b3480156100aa57600080fd5b506100c560048036036100c09190810190611263565b610251565b005b3480156100d357600080fd5b506100ee60048036036100e991908101906112f3565b6103bb565b6040516100fb9190611650565b60405180910390f35b34801561011057600080fd5b506101196103de565b604051610126919061162e565b60405180910390f35b34801561013b57600080fd5b5061015660048036036101519190810190611263565b6106c4565b005b34801561016457600080fd5b5061017f600480360361017a91908101906111bf565b610858565b60405161018c91906116e5565b60405180910390f35b3480156101a157600080fd5b506101bc60048036036101b791908101906111e8565b610aab565b005b3480156101ca57600080fd5b506101e560048036036101e091908101906111bf565b610c20565b6040516101f695949392919061166b565b60405180910390f35b34801561020b57600080fd5b50610226600480360361022191908101906111bf565b610d2e565b005b34801561023457600080fd5b5061024f600480360361024a919081019061129f565b610e51565b005b60008060008085600019166000191681526020019081526020016000206005018054905014156102a75760016000808560001916600019168152602001908152602001600020600501816102a59190610f31565b505b60008084600019166000191681526020019081526020016000206005018290806001815401808255809150509060018203906000526020600020016000909192909190915090600019169055506103018260001916610ead565b90508060008085600019166000191681526020019081526020016000206006018054905011151561035a57600181016000808560001916600019168152602001908152602001600020600601816103589190610f5d565b505b6001600080856000191660001916815260200190815260200160002060050180549050036000808560001916600019168152602001908152602001600020600601828154811015156103a857fe5b9060005260206000200181905550505050565b6001818154811015156103ca57fe5b906000526020600020016000915090505481565b606080600060018054905060405190808252806020026020018201604052801561042257816020015b61040f610f89565b8152602001906001900390816104075790505b509150600090505b6001805490508110156106bc5760008060018381548110151561044957fe5b90600052602060002001546000191660001916815260200190815260200160002060e060405190810160405290816000820154600019166000191681526020016001820160009054906101000a900473ffffffffffffffffffffffffffffffffffffffff1673ffffffffffffffffffffffffffffffffffffffff1673ffffffffffffffffffffffffffffffffffffffff168152602001600282018054600181600116156101000203166002900480601f0160208091040260200160405190810160405280929190818152602001828054600181600116156101000203166002900480156105775780601f1061054c57610100808354040283529160200191610577565b820191906000526020600020905b81548152906001019060200180831161055a57829003601f168201915b50505050508152602001600382015481526020016004820160009054906101000a900473ffffffffffffffffffffffffffffffffffffffff1673ffffffffffffffffffffffffffffffffffffffff1673ffffffffffffffffffffffffffffffffffffffff1681526020016005820180548060200260200160405190810160405280929190818152602001828054801561063357602002820191906000526020600020905b8154600019168152602001906001019080831161061b575b505050505081526020016006820180548060200260200160405190810160405280929190818152602001828054801561068b57602002820191906000526020600020905b815481526020019060010190808311610677575b50505050508152505082828151811015156106a257fe5b90602001906020020181905250808060010191505061042a565b819250505090565b6000806106d48360001916610ead565b915060008085600019166000191681526020019081526020016000206006018281548110151561070057fe5b9060005260206000200154905060008114151515610753576040517f08c379a000000000000000000000000000000000000000000000000000000000815260040161074a906116c5565b60405180910390fd5b60008085600019166000191681526020019081526020016000206005016001600080876000191660001916815260200190815260200160002060050180549050038154811015156107a057fe5b90600052602060002001546000808660001916600019168152602001908152602001600020600501828154811015156107d557fe5b90600052602060002001816000191690555060008085600019166000191681526020019081526020016000206005018054809190600190036108179190610f31565b50600080600086600019166000191681526020019081526020016000206006018381548110151561084457fe5b906000526020600020018190555050505050565b610860610ff6565b600080836000191660001916815260200190815260200160002060e060405190810160405290816000820154600019166000191681526020016001820160009054906101000a900473ffffffffffffffffffffffffffffffffffffffff1673ffffffffffffffffffffffffffffffffffffffff1673ffffffffffffffffffffffffffffffffffffffff168152602001600282018054600181600116156101000203166002900480601f0160208091040260200160405190810160405280929190818152602001828054600181600116156101000203166002900480156109875780601f1061095c57610100808354040283529160200191610987565b820191906000526020600020905b81548152906001019060200180831161096a57829003601f168201915b50505050508152602001600382015481526020016004820160009054906101000a900473ffffffffffffffffffffffffffffffffffffffff1673ffffffffffffffffffffffffffffffffffffffff1673ffffffffffffffffffffffffffffffffffffffff16815260200160058201805480602002602001604051908101604052809291908181526020018280548015610a4357602002820191906000526020600020905b81546000191681526020019060010190808311610a2b575b5050505050815260200160068201805480602002602001604051908101604052809291908181526020018280548015610a9b57602002820191906000526020600020905b815481526020019060010190808311610a87575b5050505050815250509050919050565b60006001805490509050846000808760001916600019168152602001908152602001600020600001816000191690555083600080876000191660001916815260200190815260200160002060010160006101000a81548173ffffffffffffffffffffffffffffffffffffffff021916908373ffffffffffffffffffffffffffffffffffffffff1602179055508260008087600019166000191681526020019081526020016000206002019080519060200190610b68929190611063565b5081600080876000191660001916815260200190815260200160002060040160006101000a81548173ffffffffffffffffffffffffffffffffffffffff021916908373ffffffffffffffffffffffffffffffffffffffff1602179055508060008087600019166000191681526020019081526020016000206003018190555060018590806001815401808255809150509060018203906000526020600020016000909192909190915090600019169055505050505050565b60006020528060005260406000206000915090508060000154908060010160009054906101000a900473ffffffffffffffffffffffffffffffffffffffff1690806002018054600181600116156101000203166002900480601f016020809104026020016040519081016040528092919081815260200182805460018160011615610100020316600290048015610cf85780601f10610ccd57610100808354040283529160200191610cf8565b820191906000526020600020905b815481529060010190602001808311610cdb57829003601f168201915b5050505050908060030154908060040160009054906101000a900473ffffffffffffffffffffffffffffffffffffffff16905085565b600080600080846000191660001916815260200190815260200160002060010160006101000a81548173ffffffffffffffffffffffffffffffffffffffff021916908373ffffffffffffffffffffffffffffffffffffffff1602179055506000808360001916600019168152602001908152602001600020600301549050600180808054905003815481101515610dc157fe5b9060005260206000200154600182815481101515610ddb57fe5b9060005260206000200181600019169055506001805480919060019003610e029190610f31565b5060006001805490501115610e4d5780600080600184815481101515610e2457fe5b906000526020600020015460001916600019168152602001908152602001600020600301819055505b5050565b81600080846000191660001916815260200190815260200160002060000181600019169055508060008084600019166000191681526020019081526020016000206002019080519060200190610ea8929190611063565b505050565b60008060008090505b602060ff16811015610f27578381602081101515610ed057fe5b1a7f0100000000000000000000000000000000000000000000000000000000000000027f01000000000000000000000000000000000000000000000000000000000000009004820191508080600101915050610eb6565b8192505050919050565b815481835581811115610f5857818360005260206000209182019101610f5791906110e3565b5b505050565b815481835581811115610f8457818360005260206000209182019101610f839190611108565b5b505050565b60e06040519081016040528060008019168152602001600073ffffffffffffffffffffffffffffffffffffffff1681526020016060815260200160008152602001600073ffffffffffffffffffffffffffffffffffffffff16815260200160608152602001606081525090565b60e06040519081016040528060008019168152602001600073ffffffffffffffffffffffffffffffffffffffff1681526020016060815260200160008152602001600073ffffffffffffffffffffffffffffffffffffffff16815260200160608152602001606081525090565b828054600181600116156101000203166002900490600052602060002090601f016020900481019282601f106110a457805160ff19168380011785556110d2565b828001600101855582156110d2579182015b828111156110d15782518255916020019190600101906110b6565b5b5090506110df9190611108565b5090565b61110591905b808211156111015760008160009055506001016110e9565b5090565b90565b61112a91905b8082111561112657600081600090555060010161110e565b5090565b90565b6000611139823561180e565b905092915050565b600061114d823561182e565b905092915050565b600082601f830112151561116857600080fd5b813561117b61117682611734565b611707565b9150808252602083016020830185838301111561119757600080fd5b6111a2838284611842565b50505092915050565b60006111b78235611838565b905092915050565b6000602082840312156111d157600080fd5b60006111df84828501611141565b91505092915050565b600080600080608085870312156111fe57600080fd5b600061120c87828801611141565b945050602061121d8782880161112d565b935050604085013567ffffffffffffffff81111561123a57600080fd5b61124687828801611155565b92505060606112578782880161112d565b91505092959194509250565b6000806040838503121561127657600080fd5b600061128485828601611141565b925050602061129585828601611141565b9150509250929050565b600080604083850312156112b257600080fd5b60006112c085828601611141565b925050602083013567ffffffffffffffff8111156112dd57600080fd5b6112e985828601611155565b9150509250929050565b60006020828403121561130557600080fd5b6000611313848285016111ab565b91505092915050565b611325816117da565b82525050565b600061133682611787565b80845260208401935061134883611760565b60005b8281101561137a5761135e86835161144f565b611367826117b3565b915060208601955060018101905061134b565b50849250505092915050565b600061139182611792565b808452602084019350836020820285016113aa8561176d565b60005b848110156113e35783830388526113c5838351611575565b92506113d0826117c0565b91506020880197506001810190506113ad565b508196508694505050505092915050565b60006113ff8261179d565b8084526020840193506114118361177a565b60005b828110156114435761142786835161161f565b611430826117cd565b9150602086019550600181019050611414565b50849250505092915050565b611458816117fa565b82525050565b6000611469826117a8565b80845261147d816020860160208601611851565b61148681611884565b602085010191505092915050565b6000601482527f70726f64756374206973206e6f742065786973740000000000000000000000006020830152604082019050919050565b600060e0830160008301516114e3600086018261144f565b5060208301516114f6602086018261131c565b506040830151848203604086015261150e828261145e565b9150506060830151611523606086018261161f565b506080830151611536608086018261131c565b5060a083015184820360a086015261154e828261132b565b91505060c083015184820360c086015261156882826113f4565b9150508091505092915050565b600060e08301600083015161158d600086018261144f565b5060208301516115a0602086018261131c565b50604083015184820360408601526115b8828261145e565b91505060608301516115cd606086018261161f565b5060808301516115e0608086018261131c565b5060a083015184820360a08601526115f8828261132b565b91505060c083015184820360c086015261161282826113f4565b9150508091505092915050565b61162881611804565b82525050565b600060208201905081810360008301526116488184611386565b905092915050565b6000602082019050611665600083018461144f565b92915050565b600060a082019050611680600083018861144f565b61168d602083018761131c565b818103604083015261169f818661145e565b90506116ae606083018561161f565b6116bb608083018461131c565b9695505050505050565b600060208201905081810360008301526116de81611494565b9050919050565b600060208201905081810360008301526116ff81846114cb565b905092915050565b6000604051905081810181811067ffffffffffffffff8211171561172a57600080fd5b8060405250919050565b600067ffffffffffffffff82111561174b57600080fd5b601f19601f8301169050602081019050919050565b6000602082019050919050565b6000602082019050919050565b6000602082019050919050565b600081519050919050565b600081519050919050565b600081519050919050565b600081519050919050565b6000602082019050919050565b6000602082019050919050565b6000602082019050919050565b600073ffffffffffffffffffffffffffffffffffffffff82169050919050565b6000819050919050565b6000819050919050565b600073ffffffffffffffffffffffffffffffffffffffff82169050919050565b6000819050919050565b6000819050919050565b82818337600083830152505050565b60005b8381101561186f578082015181840152602081019050611854565b8381111561187e576000848401525b50505050565b6000601f19601f83011690509190505600a265627a7a7230582047e5086c2faad6fa9e928f571fb2251610336a02442eab9b2dc206e85772384c6c6578706572696d656e74616cf50037",
  "source": "pragma solidity ^0.4.24;\npragma experimental ABIEncoderV2;\n\nimport \"../model/PartnerModel.sol\";\nimport \"../util/ConvertUtils.sol\";\n\ncontract PartnerStorage {\n    using ConvertUtils for *;\n\n    mapping(bytes32 => PartnerModel.Partner) public partnerList;\n    bytes32[] public partnerIndex;\n\n    function createPartner(bytes32 _id, address _address, string _name, address _supplier) public {\n        uint256 newIndex = partnerIndex.length;\n\n        partnerList[_id].id = _id;\n        partnerList[_id].addr = _address;\n        partnerList[_id].name = _name;\n        partnerList[_id].supplier = _supplier;\n        partnerList[_id].index = newIndex;\n\n        partnerIndex.push(_id);\n    }\n\n    function getListPartners() public view returns(PartnerModel.Partner[]) {\n        PartnerModel.Partner[] memory list = new PartnerModel.Partner[](partnerIndex.length);\n        for (uint256 i = 0; i < partnerIndex.length; i++) {\n            list[i] = partnerList[partnerIndex[i]];\n        }\n        return list;\n    }\n\n    function getPartner(bytes32 _id) public view returns (PartnerModel.Partner) {\n        return partnerList[_id];\n    }\n\n    function deletePartner(bytes32 _id) public {\n        partnerList[_id].addr = 0x0;\n        uint256 toDeleteIndex = partnerList[_id].index;\n\n        partnerIndex[toDeleteIndex] = partnerIndex[partnerIndex.length-1];\n        partnerIndex.length--;\n\n        if(partnerIndex.length > 0) {\n            partnerList[partnerIndex[toDeleteIndex]].index = toDeleteIndex;\n        }\n    }\n\n    function updatePartner(bytes32 _id, string _name) public {\n        partnerList[_id].id = _id;\n        partnerList[_id].name = _name;\n    }\n\n    function addProduct(bytes32 _id, bytes32 _productID) public {\n        // prevent index == 0\n        if(partnerList[_id].productIds.length == 0){\n            partnerList[_id].productIds.length = 1;\n        }\n\n        partnerList[_id].productIds.push(_productID);\n\n        uint productIDHash = _productID.bytesArrayToUint();\n        if (partnerList[_id].productIdsIndex.length <= productIDHash) {\n            partnerList[_id].productIdsIndex.length = productIDHash + 1;\n        }\n        partnerList[_id].productIdsIndex[productIDHash] = partnerList[_id].productIds.length-1;\n    }\n\n    function removeProduct(bytes32 _id, bytes32 _productID) public {\n        uint productIDHash = _productID.bytesArrayToUint();\n        uint256 indexToRemove = partnerList[_id].productIdsIndex[productIDHash];\n        require(indexToRemove!=0x0, \"product is not exist\");\n\n        partnerList[_id].productIds[indexToRemove] = partnerList[_id].productIds[partnerList[_id].productIds.length-1];\n\n        //delete the last element from productIds\n        partnerList[_id].productIds.length--;\n\n        //reset index to 0\n        partnerList[_id].productIdsIndex[productIDHash] = 0;\n    }\n}",
  "sourcePath": "/home/hieudeptrai/Desktop/MyProject/truffle/xxx/contracts/storage/PartnerStorage.sol",
  "compiler": {
    "name": "solc",
    "version": "0.4.24+commit.e67f0147.Emscripten.clang"
  },
  "schemaVersion": "2.0.1",
  "updatedAt": "2018-12-01T21:24:43.656Z"
}