{
  "contractName": "ProductStorage",
  "abi": [
    {
      "constant": true,
      "inputs": [
        {
          "name": "",
          "type": "bytes32"
        }
      ],
      "name": "productList",
      "outputs": [
        {
          "name": "id",
          "type": "bytes32"
        },
        {
          "name": "name",
          "type": "string"
        },
        {
          "name": "description",
          "type": "string"
        },
        {
          "name": "image",
          "type": "string"
        },
        {
          "name": "index",
          "type": "uint256"
        },
        {
          "name": "owner",
          "type": "address"
        }
      ],
      "payable": false,
      "stateMutability": "view",
      "type": "function"
    },
    {
      "constant": true,
      "inputs": [
        {
          "name": "",
          "type": "uint256"
        }
      ],
      "name": "productIndex",
      "outputs": [
        {
          "name": "",
          "type": "bytes32"
        }
      ],
      "payable": false,
      "stateMutability": "view",
      "type": "function"
    },
    {
      "constant": false,
      "inputs": [
        {
          "name": "_id",
          "type": "bytes32"
        },
        {
          "name": "_owner",
          "type": "address"
        },
        {
          "name": "_name",
          "type": "string"
        },
        {
          "name": "_description",
          "type": "string"
        },
        {
          "name": "_image",
          "type": "string"
        }
      ],
      "name": "createProduct",
      "outputs": [],
      "payable": false,
      "stateMutability": "nonpayable",
      "type": "function"
    },
    {
      "constant": true,
      "inputs": [
        {
          "name": "_id",
          "type": "bytes32"
        }
      ],
      "name": "getProduct",
      "outputs": [
        {
          "components": [
            {
              "name": "id",
              "type": "bytes32"
            },
            {
              "name": "name",
              "type": "string"
            },
            {
              "name": "description",
              "type": "string"
            },
            {
              "name": "image",
              "type": "string"
            },
            {
              "name": "index",
              "type": "uint256"
            },
            {
              "name": "partnerIds",
              "type": "bytes32[]"
            },
            {
              "name": "partnerIdsIndex",
              "type": "uint256[]"
            },
            {
              "name": "owner",
              "type": "address"
            },
            {
              "name": "logIds",
              "type": "bytes32[]"
            },
            {
              "name": "logIdsIndex",
              "type": "uint256[]"
            }
          ],
          "name": "",
          "type": "tuple"
        }
      ],
      "payable": false,
      "stateMutability": "view",
      "type": "function"
    },
    {
      "constant": false,
      "inputs": [
        {
          "name": "_id",
          "type": "bytes32"
        }
      ],
      "name": "deleteProduct",
      "outputs": [],
      "payable": false,
      "stateMutability": "nonpayable",
      "type": "function"
    },
    {
      "constant": false,
      "inputs": [
        {
          "name": "_id",
          "type": "bytes32"
        },
        {
          "name": "_name",
          "type": "string"
        },
        {
          "name": "_description",
          "type": "string"
        },
        {
          "name": "_image",
          "type": "string"
        }
      ],
      "name": "updateProduct",
      "outputs": [],
      "payable": false,
      "stateMutability": "nonpayable",
      "type": "function"
    },
    {
      "constant": false,
      "inputs": [
        {
          "name": "_productID",
          "type": "bytes32"
        },
        {
          "name": "_logID",
          "type": "bytes32"
        }
      ],
      "name": "addLog",
      "outputs": [],
      "payable": false,
      "stateMutability": "nonpayable",
      "type": "function"
    },
    {
      "constant": false,
      "inputs": [
        {
          "name": "_productID",
          "type": "bytes32"
        },
        {
          "name": "_logID",
          "type": "bytes32"
        }
      ],
      "name": "removeLog",
      "outputs": [],
      "payable": false,
      "stateMutability": "nonpayable",
      "type": "function"
    },
    {
      "constant": false,
      "inputs": [
        {
          "name": "_productID",
          "type": "bytes32"
        },
        {
          "name": "_partner",
          "type": "bytes32"
        }
      ],
      "name": "addPartner",
      "outputs": [],
      "payable": false,
      "stateMutability": "nonpayable",
      "type": "function"
    },
    {
      "constant": false,
      "inputs": [
        {
          "name": "_productID",
          "type": "bytes32"
        },
        {
          "name": "_partner",
          "type": "bytes32"
        }
      ],
      "name": "removePartner",
      "outputs": [],
      "payable": false,
      "stateMutability": "nonpayable",
      "type": "function"
    }
  ],
  "bytecode": "0x608060405234801561001057600080fd5b50611d85806100206000396000f3006080604052600436106100a4576000357c0100000000000000000000000000000000000000000000000000000000900463ffffffff1680632aa0a2ab146100a9578063322d5a33146100eb5780633a20e9df14610128578063709b440d14610165578063870c61221461018e57806394727b41146101b75780639a4da53a146101e0578063ac5dede914610209578063adf2184814610232578063b68d6cee1461025b575b600080fd5b3480156100b557600080fd5b506100d060048036036100cb9190810190611615565b610284565b6040516100e296959493929190611aea565b60405180910390f35b3480156100f757600080fd5b50610112600480360361010d91908101906117e4565b6104a8565b60405161011f9190611acf565b60405180910390f35b34801561013457600080fd5b5061014f600480360361014a9190810190611615565b6104cb565b60405161015c9190611bc0565b60405180910390f35b34801561017157600080fd5b5061018c600480360361018791908101906116fd565b6108c1565b005b34801561019a57600080fd5b506101b560048036036101b091908101906116fd565b610a2b565b005b3480156101c357600080fd5b506101de60048036036101d99190810190611615565b610c31565b005b3480156101ec57600080fd5b50610207600480360361020291908101906116fd565b610cf8565b005b34801561021557600080fd5b50610230600480360361022b919081019061163e565b610e8c565b005b34801561023e57600080fd5b5061025960048036036102549190810190611739565b61100a565b005b34801561026757600080fd5b50610282600480360361027d91908101906116fd565b611141565b005b6000602052806000526040600020600091509050806000015490806001018054600181600116156101000203166002900480601f0160208091040260200160405190810160405280929190818152602001828054600181600116156101000203166002900480156103365780601f1061030b57610100808354040283529160200191610336565b820191906000526020600020905b81548152906001019060200180831161031957829003601f168201915b505050505090806002018054600181600116156101000203166002900480601f0160208091040260200160405190810160405280929190818152602001828054600181600116156101000203166002900480156103d45780601f106103a9576101008083540402835291602001916103d4565b820191906000526020600020905b8154815290600101906020018083116103b757829003601f168201915b505050505090806003018054600181600116156101000203166002900480601f0160208091040260200160405190810160405280929190818152602001828054600181600116156101000203166002900480156104725780601f1061044757610100808354040283529160200191610472565b820191906000526020600020905b81548152906001019060200180831161045557829003601f168201915b5050505050908060040154908060070160009054906101000a900473ffffffffffffffffffffffffffffffffffffffff16905086565b6001818154811015156104b757fe5b906000526020600020016000915090505481565b6104d36113f4565b60008083600019166000191681526020019081526020016000206101406040519081016040529081600082015460001916600019168152602001600182018054600181600116156101000203166002900480601f0160208091040260200160405190810160405280929190818152602001828054600181600116156101000203166002900480156105a55780601f1061057a576101008083540402835291602001916105a5565b820191906000526020600020905b81548152906001019060200180831161058857829003601f168201915b50505050508152602001600282018054600181600116156101000203166002900480601f0160208091040260200160405190810160405280929190818152602001828054600181600116156101000203166002900480156106475780601f1061061c57610100808354040283529160200191610647565b820191906000526020600020905b81548152906001019060200180831161062a57829003601f168201915b50505050508152602001600382018054600181600116156101000203166002900480601f0160208091040260200160405190810160405280929190818152602001828054600181600116156101000203166002900480156106e95780601f106106be576101008083540402835291602001916106e9565b820191906000526020600020905b8154815290600101906020018083116106cc57829003601f168201915b50505050508152602001600482015481526020016005820180548060200260200160405190810160405280929190818152602001828054801561074f57602002820191906000526020600020905b81546000191681526020019060010190808311610737575b50505050508152602001600682018054806020026020016040519081016040528092919081815260200182805480156107a757602002820191906000526020600020905b815481526020019060010190808311610793575b505050505081526020016007820160009054906101000a900473ffffffffffffffffffffffffffffffffffffffff1673ffffffffffffffffffffffffffffffffffffffff1673ffffffffffffffffffffffffffffffffffffffff1681526020016008820180548060200260200160405190810160405280929190818152602001828054801561085957602002820191906000526020600020905b81546000191681526020019060010190808311610841575b50505050508152602001600982018054806020026020016040519081016040528092919081815260200182805480156108b157602002820191906000526020600020905b81548152602001906001019080831161089d575b5050505050815250509050919050565b60008060008085600019166000191681526020019081526020016000206005018054905014156109175760016000808560001916600019168152602001908152602001600020600501816109159190611461565b505b60008084600019166000191681526020019081526020016000206005018290806001815401808255809150509060018203906000526020600020016000909192909190915090600019169055506109718260001916611370565b9050806000808560001916600019168152602001908152602001600020600601805490501115156109ca57600181016000808560001916600019168152602001908152602001600020600601816109c8919061148d565b505b600160008085600019166000191681526020019081526020016000206005018054905003600080856000191660001916815260200190815260200160002060060182815481101515610a1857fe5b9060005260206000200181905550505050565b6000826000806000836000191660001916815260200190815260200160002060070160009054906101000a900473ffffffffffffffffffffffffffffffffffffffff1673ffffffffffffffffffffffffffffffffffffffff1614151515610ac7576040517f08c379a0000000000000000000000000000000000000000000000000000000008152600401610abe90611ba0565b60405180910390fd5b60008060008660001916600019168152602001908152602001600020600801805490501415610b1c576001600080866000191660001916815260200190815260200160002060080181610b1a9190611461565b505b6000808560001916600019168152602001908152602001600020600801839080600181540180825580915050906001820390600052602060002001600090919290919091509060001916905550610b768360001916611370565b915081600080866000191660001916815260200190815260200160002060090180549050111515610bcf5760018201600080866000191660001916815260200190815260200160002060090181610bcd919061148d565b505b600160008086600019166000191681526020019081526020016000206008018054905003600080866000191660001916815260200190815260200160002060090183815481101515610c1d57fe5b906000526020600020018190555050505050565b60008060008360001916600019168152602001908152602001600020600401549050600180808054905003815481101515610c6857fe5b9060005260206000200154600182815481101515610c8257fe5b9060005260206000200181600019169055506001805480919060019003610ca99190611461565b5060006001805490501115610cf45780600080600184815481101515610ccb57fe5b906000526020600020015460001916600019168152602001908152602001600020600401819055505b5050565b600080610d088360001916611370565b9150600080856000191660001916815260200190815260200160002060060182815481101515610d3457fe5b9060005260206000200154905060008114151515610d87576040517f08c379a0000000000000000000000000000000000000000000000000000000008152600401610d7e90611b60565b60405180910390fd5b6000808560001916600019168152602001908152602001600020600501600160008087600019166000191681526020019081526020016000206005018054905003815481101515610dd457fe5b9060005260206000200154600080866000191660001916815260200190815260200160002060050182815481101515610e0957fe5b9060005260206000200181600019169055506000808560001916600019168152602001908152602001600020600501805480919060019003610e4b9190611461565b506000806000866000191660001916815260200190815260200160002060060183815481101515610e7857fe5b906000526020600020018190555050505050565b60006001805490509050856000808860001916600019168152602001908152602001600020600001816000191690555084600080886000191660001916815260200190815260200160002060070160006101000a81548173ffffffffffffffffffffffffffffffffffffffff021916908373ffffffffffffffffffffffffffffffffffffffff1602179055508360008088600019166000191681526020019081526020016000206001019080519060200190610f499291906114b9565b508260008088600019166000191681526020019081526020016000206002019080519060200190610f7b9291906114b9565b508160008088600019166000191681526020019081526020016000206003019080519060200190610fad9291906114b9565b50806000808860001916600019168152602001908152602001600020600401819055506001869080600181540180825580915050906001820390600052602060002001600090919290919091509060001916905550505050505050565b836000806000836000191660001916815260200190815260200160002060070160009054906101000a900473ffffffffffffffffffffffffffffffffffffffff1673ffffffffffffffffffffffffffffffffffffffff16141515156110a4576040517f08c379a000000000000000000000000000000000000000000000000000000000815260040161109b90611ba0565b60405180910390fd5b83600080876000191660001916815260200190815260200160002060010190805190602001906110d59291906114b9565b5082600080876000191660001916815260200190815260200160002060020190805190602001906111079291906114b9565b5081600080876000191660001916815260200190815260200160002060030190805190602001906111399291906114b9565b505050505050565b600080836000806000836000191660001916815260200190815260200160002060070160009054906101000a900473ffffffffffffffffffffffffffffffffffffffff1673ffffffffffffffffffffffffffffffffffffffff16141515156111de576040517f08c379a00000000000000000000000000000000000000000000000000000000081526004016111d590611ba0565b60405180910390fd5b6111eb8460001916611370565b925060008086600019166000191681526020019081526020016000206009018381548110151561121757fe5b906000526020600020015491506000821415151561126a576040517f08c379a000000000000000000000000000000000000000000000000000000000815260040161126190611b80565b60405180910390fd5b60008086600019166000191681526020019081526020016000206008016001600080886000191660001916815260200190815260200160002060080180549050038154811015156112b757fe5b90600052602060002001546000808760001916600019168152602001908152602001600020600801838154811015156112ec57fe5b906000526020600020018160001916905550600080866000191660001916815260200190815260200160002060080180548091906001900361132e9190611461565b50600080600087600019166000191681526020019081526020016000206009018481548110151561135b57fe5b90600052602060002001819055505050505050565b60008060008090505b602060ff168110156113ea57838160208110151561139357fe5b1a7f0100000000000000000000000000000000000000000000000000000000000000027f01000000000000000000000000000000000000000000000000000000000000009004820191508080600101915050611379565b8192505050919050565b6101406040519081016040528060008019168152602001606081526020016060815260200160608152602001600081526020016060815260200160608152602001600073ffffffffffffffffffffffffffffffffffffffff16815260200160608152602001606081525090565b815481835581811115611488578183600052602060002091820191016114879190611539565b5b505050565b8154818355818111156114b4578183600052602060002091820191016114b3919061155e565b5b505050565b828054600181600116156101000203166002900490600052602060002090601f016020900481019282601f106114fa57805160ff1916838001178555611528565b82800160010185558215611528579182015b8281111561152757825182559160200191906001019061150c565b5b509050611535919061155e565b5090565b61155b91905b8082111561155757600081600090555060010161153f565b5090565b90565b61158091905b8082111561157c576000816000905550600101611564565b5090565b90565b600061158f8235611cc4565b905092915050565b60006115a38235611ce4565b905092915050565b600082601f83011215156115be57600080fd5b81356115d16115cc82611c0f565b611be2565b915080825260208301602083018583830111156115ed57600080fd5b6115f8838284611cf8565b50505092915050565b600061160d8235611cee565b905092915050565b60006020828403121561162757600080fd5b600061163584828501611597565b91505092915050565b600080600080600060a0868803121561165657600080fd5b600061166488828901611597565b955050602061167588828901611583565b945050604086013567ffffffffffffffff81111561169257600080fd5b61169e888289016115ab565b935050606086013567ffffffffffffffff8111156116bb57600080fd5b6116c7888289016115ab565b925050608086013567ffffffffffffffff8111156116e457600080fd5b6116f0888289016115ab565b9150509295509295909350565b6000806040838503121561171057600080fd5b600061171e85828601611597565b925050602061172f85828601611597565b9150509250929050565b6000806000806080858703121561174f57600080fd5b600061175d87828801611597565b945050602085013567ffffffffffffffff81111561177a57600080fd5b611786878288016115ab565b935050604085013567ffffffffffffffff8111156117a357600080fd5b6117af878288016115ab565b925050606085013567ffffffffffffffff8111156117cc57600080fd5b6117d8878288016115ab565b91505092959194509250565b6000602082840312156117f657600080fd5b600061180484828501611601565b91505092915050565b61181681611c90565b82525050565b600061182782611c55565b80845260208401935061183983611c3b565b60005b8281101561186b5761184f8683516118d2565b61185882611c76565b915060208601955060018101905061183c565b50849250505092915050565b600061188282611c60565b80845260208401935061189483611c48565b60005b828110156118c6576118aa868351611ac0565b6118b382611c83565b9150602086019550600181019050611897565b50849250505092915050565b6118db81611cb0565b82525050565b60006118ec82611c6b565b808452611900816020860160208601611d07565b61190981611d3a565b602085010191505092915050565b6000601482527f706172746e6572206973206e6f742065786973740000000000000000000000006020830152604082019050919050565b6000601482527f70726f64756374206973206e6f742065786973740000000000000000000000006020830152604082019050919050565b6000601882527f74686973206964206973206e6f7420612070726f6475637400000000000000006020830152604082019050919050565b6000610140830160008301516119d560008601826118d2565b50602083015184820360208601526119ed82826118e1565b91505060408301518482036040860152611a0782826118e1565b91505060608301518482036060860152611a2182826118e1565b9150506080830151611a366080860182611ac0565b5060a083015184820360a0860152611a4e828261181c565b91505060c083015184820360c0860152611a688282611877565b91505060e0830151611a7d60e086018261180d565b50610100830151848203610100860152611a97828261181c565b915050610120830151848203610120860152611ab38282611877565b9150508091505092915050565b611ac981611cba565b82525050565b6000602082019050611ae460008301846118d2565b92915050565b600060c082019050611aff60008301896118d2565b8181036020830152611b1181886118e1565b90508181036040830152611b2581876118e1565b90508181036060830152611b3981866118e1565b9050611b486080830185611ac0565b611b5560a083018461180d565b979650505050505050565b60006020820190508181036000830152611b7981611917565b9050919050565b60006020820190508181036000830152611b998161194e565b9050919050565b60006020820190508181036000830152611bb981611985565b9050919050565b60006020820190508181036000830152611bda81846119bc565b905092915050565b6000604051905081810181811067ffffffffffffffff82111715611c0557600080fd5b8060405250919050565b600067ffffffffffffffff821115611c2657600080fd5b601f19601f8301169050602081019050919050565b6000602082019050919050565b6000602082019050919050565b600081519050919050565b600081519050919050565b600081519050919050565b6000602082019050919050565b6000602082019050919050565b600073ffffffffffffffffffffffffffffffffffffffff82169050919050565b6000819050919050565b6000819050919050565b600073ffffffffffffffffffffffffffffffffffffffff82169050919050565b6000819050919050565b6000819050919050565b82818337600083830152505050565b60005b83811015611d25578082015181840152602081019050611d0a565b83811115611d34576000848401525b50505050565b6000601f19601f83011690509190505600a265627a7a7230582012d0cf84311022bb650358614ded8816b5db4fdbba36ce715a0f033479766e656c6578706572696d656e74616cf50037",
  "source": "pragma solidity ^0.4.24;\npragma experimental ABIEncoderV2;\n\nimport \"../model/ProductModel.sol\";\nimport \"../util/ConvertUtils.sol\";\n\ncontract ProductStorage {\n    using ConvertUtils for *;\n\n    mapping(bytes32 => ProductModel.Product) public productList;\n    bytes32[] public productIndex;\n\n    modifier isProduct(bytes32 _id) {\n        require(productList[_id].owner!=0x0, \"this id is not a product\");\n        _;\n    }\n\n    modifier isNotProduct(bytes32 _id) {\n        require(productList[_id].owner==0x0, \"this id is  a product\");\n        _;\n    }\n\n    function createProduct(bytes32 _id, address _owner, string _name, string _description, string _image) public {\n        uint256 newIndex = productIndex.length;\n\n        productList[_id].id = _id;\n        productList[_id].owner = _owner;\n        productList[_id].name = _name;\n        productList[_id].description = _description;\n        productList[_id].image = _image;\n        productList[_id].index = newIndex;\n\n        productIndex.push(_id);\n    }\n\n    function getProduct(bytes32 _id) public view returns (ProductModel.Product) {\n        return productList[_id];\n    }\n\n    function deleteProduct(bytes32 _id) public {\n        uint256 toDeleteIndex = productList[_id].index;\n\n        productIndex[toDeleteIndex] = productIndex[productIndex.length-1];\n        productIndex.length--;\n\n        if(productIndex.length > 0) {\n            productList[productIndex[toDeleteIndex]].index = toDeleteIndex;\n        }\n    }\n\n    function updateProduct(bytes32 _id, string _name, string _description, string _image) public isProduct(_id) {\n        productList[_id].name = _name;\n        productList[_id].description = _description;\n        productList[_id].image = _image;\n    }\n\n    function addLog(bytes32 _productID, bytes32 _logID) public isProduct(_productID) {\n        // prevent index == 0\n        if(productList[_productID].logIds.length == 0){\n            productList[_productID].logIds.length = 1;\n        }\n\n        productList[_productID].logIds.push(_logID);\n\n        uint logIDHash = _logID.bytesArrayToUint();\n        if (productList[_productID].logIdsIndex.length <= logIDHash) {\n            productList[_productID].logIdsIndex.length = logIDHash + 1;\n        }\n        productList[_productID].logIdsIndex[logIDHash] = productList[_productID].logIds.length-1;\n    }\n\n    function removeLog(bytes32 _productID, bytes32 _logID) public isProduct(_productID) {\n        uint logIDHash = _logID.bytesArrayToUint();\n        uint256 indexToRemove = productList[_productID].logIdsIndex[logIDHash];\n        require(indexToRemove!=0x0, \"product is not exist\");\n\n        productList[_productID].logIds[indexToRemove] = productList[_productID].logIds[productList[_productID].logIds.length-1];\n\n        //delete the last element from logIds\n        productList[_productID].logIds.length--;\n\n        //reset index to 0\n        productList[_productID].logIdsIndex[logIDHash] = 0;\n    }\n\n    function addPartner(bytes32 _productID, bytes32 _partner) public {\n        // prevent index == 0\n        if(productList[_productID].partnerIds.length == 0){\n            productList[_productID].partnerIds.length = 1;\n        }\n\n        productList[_productID].partnerIds.push(_partner);\n\n        uint256 partnerHash = _partner.bytesArrayToUint();\n        if (productList[_productID].partnerIdsIndex.length <= partnerHash) {\n            productList[_productID].partnerIdsIndex.length = partnerHash + 1;\n        }\n        productList[_productID].partnerIdsIndex[partnerHash] = productList[_productID].partnerIds.length-1;\n    }\n\n    function removePartner(bytes32 _productID, bytes32 _partner) public {\n        uint256 partnerHash = _partner.bytesArrayToUint();\n        uint256 indexToRemove = productList[_productID].partnerIdsIndex[partnerHash];\n        require(indexToRemove!=0x0, \"partner is not exist\");\n\n        productList[_productID].partnerIds[indexToRemove] = productList[_productID].partnerIds[productList[_productID].partnerIds.length-1];\n\n        //delete the last element from partnerIds\n        productList[_productID].partnerIds.length--;\n\n        //reset index to 0\n        productList[_productID].partnerIdsIndex[partnerHash] = 0x0;\n    }\n}",
  "sourcePath": "/home/hieudeptrai/Desktop/MyProject/truffle/xxx/contracts/storage/ProductStorage.sol",
  "compiler": {
    "name": "solc",
    "version": "0.4.24+commit.e67f0147.Emscripten.clang"
  },
  "schemaVersion": "2.0.1",
  "updatedAt": "2018-12-01T21:24:43.663Z"
}