{
  "contractName": "RateStorage",
  "abi": [
    {
      "constant": true,
      "inputs": [
        {
          "name": "",
          "type": "bytes32"
        },
        {
          "name": "",
          "type": "uint256"
        }
      ],
      "name": "rateList",
      "outputs": [
        {
          "name": "",
          "type": "uint8"
        }
      ],
      "payable": false,
      "stateMutability": "view",
      "type": "function"
    },
    {
      "constant": false,
      "inputs": [
        {
          "name": "_partnerId",
          "type": "bytes32"
        },
        {
          "name": "_star",
          "type": "uint8"
        }
      ],
      "name": "rate",
      "outputs": [],
      "payable": false,
      "stateMutability": "nonpayable",
      "type": "function"
    },
    {
      "constant": true,
      "inputs": [
        {
          "name": "_partnerId",
          "type": "bytes32"
        }
      ],
      "name": "getAverageRate",
      "outputs": [
        {
          "name": "r",
          "type": "uint256"
        }
      ],
      "payable": false,
      "stateMutability": "view",
      "type": "function"
    },
    {
      "constant": true,
      "inputs": [
        {
          "name": "_partnerId",
          "type": "bytes32"
        }
      ],
      "name": "getRatesByPartner",
      "outputs": [
        {
          "name": "",
          "type": "uint8[]"
        }
      ],
      "payable": false,
      "stateMutability": "view",
      "type": "function"
    }
  ],
  "bytecode": "0x608060405234801561001057600080fd5b506105b1806100206000396000f300608060405260043610610062576000357c0100000000000000000000000000000000000000000000000000000000900463ffffffff1680634c8565751461006757806388e0b389146100a4578063b4bfea04146100e1578063bacca5271461011e575b600080fd5b34801561007357600080fd5b5061008e600480360361008991908101906103a8565b610147565b60405161009b91906104e4565b60405180910390f35b3480156100b057600080fd5b506100cb60048036036100c691908101906103d1565b61022e565b6040516100d891906104ff565b60405180910390f35b3480156100ed57600080fd5b50610108600480360361010391908101906103a8565b610270565b60405161011591906104c2565b60405180910390f35b34801561012a57600080fd5b506101456004803603610140919081019061040d565b610308565b005b60006060600080600085600019166000191681526020019081526020016000208054806020026020016040519081016040528092919081815260200182805480156101d757602002820191906000526020600020906000905b82829054906101000a900460ff1660ff16815260200190600101906020826000010492830192600103820291508084116101a05790505b50505050509150600090505b81518110156102185781818151811015156101fa57fe5b9060200190602002015160ff168301925080806001019150506101e3565b81518381151561022457fe5b0492505050919050565b60006020528160005260406000208181548110151561024957fe5b9060005260206000209060209182820401919006915091509054906101000a900460ff1681565b606060008083600019166000191681526020019081526020016000208054806020026020016040519081016040528092919081815260200182805480156102fc57602002820191906000526020600020906000905b82829054906101000a900460ff1660ff16815260200190600101906020826000010492830192600103820291508084116102c55790505b50505050509050919050565b600080836000191660001916815260200190815260200160002081908060018154018082558091505090600182039060005260206000209060209182820401919006909192909190916101000a81548160ff021916908360ff160217905550505050565b60006103788235610556565b905092915050565b600061038c8235610560565b905092915050565b60006103a0823561056a565b905092915050565b6000602082840312156103ba57600080fd5b60006103c88482850161036c565b91505092915050565b600080604083850312156103e457600080fd5b60006103f28582860161036c565b925050602061040385828601610380565b9150509250929050565b6000806040838503121561042057600080fd5b600061042e8582860161036c565b925050602061043f85828601610394565b9150509250929050565b600061045482610527565b8084526020840193506104668361051a565b60005b828110156104985761047c8683516104b3565b61048582610532565b9150602086019550600181019050610469565b50849250505092915050565b6104ad8161053f565b82525050565b6104bc81610549565b82525050565b600060208201905081810360008301526104dc8184610449565b905092915050565b60006020820190506104f960008301846104a4565b92915050565b600060208201905061051460008301846104b3565b92915050565b6000602082019050919050565b600081519050919050565b6000602082019050919050565b6000819050919050565b600060ff82169050919050565b6000819050919050565b6000819050919050565b600060ff821690509190505600a265627a7a72305820dc2565cb5084ba2f59faf0e1be13b1fcfd48cdea7c334105610f1ecb72f044746c6578706572696d656e74616cf50037",
  "source": "pragma solidity ^0.4.24;\npragma experimental ABIEncoderV2;\n\nimport \"../model/RateModel.sol\";\nimport \"../util/ConvertUtils.sol\";\n\ncontract RateStorage {\n    using ConvertUtils for *;\n\n    mapping(bytes32 => uint8[]) public rateList;\n\n    function rate(bytes32 _partnerId, uint8 _star) public {\n        rateList[_partnerId].push(_star);\n    }\n\n    function getAverageRate(bytes32 _partnerId) public view returns(uint256 r) {\n        uint8[] memory rates = rateList[_partnerId];\n        for (uint256 i = 0; i < rates.length; i++) {\n            r += rates[i];\n        }\n        r = r/rates.length;\n    }\n\n    function getRatesByPartner(bytes32 _partnerId) public view returns(uint8[]) {\n        return rateList[_partnerId];\n    }\n}",
  "sourcePath": "/home/hieudeptrai/Desktop/MyProject/truffle/merchandise-check/contracts/storage/RateStorage.sol",
  "compiler": {
    "name": "solc",
    "version": "0.4.24+commit.e67f0147.Emscripten.clang"
  },
  "schemaVersion": "2.0.1",
  "updatedAt": "2018-12-23T13:49:24.627Z"
}