{
  "contractName": "SupplierStorage",
  "abi": [
    {
      "constant": true,
      "inputs": [
        {
          "name": "",
          "type": "address"
        }
      ],
      "name": "supplierList",
      "outputs": [
        {
          "name": "addr",
          "type": "address"
        },
        {
          "name": "name",
          "type": "string"
        },
        {
          "name": "index",
          "type": "uint256"
        }
      ],
      "payable": false,
      "stateMutability": "view",
      "type": "function"
    },
    {
      "constant": true,
      "inputs": [
        {
          "name": "",
          "type": "uint256"
        }
      ],
      "name": "supplierIndex",
      "outputs": [
        {
          "name": "",
          "type": "address"
        }
      ],
      "payable": false,
      "stateMutability": "view",
      "type": "function"
    },
    {
      "constant": false,
      "inputs": [
        {
          "name": "_address",
          "type": "address"
        },
        {
          "name": "_name",
          "type": "string"
        }
      ],
      "name": "createSupplier",
      "outputs": [],
      "payable": false,
      "stateMutability": "nonpayable",
      "type": "function"
    },
    {
      "constant": true,
      "inputs": [],
      "name": "getListSuppliers",
      "outputs": [
        {
          "components": [
            {
              "name": "addr",
              "type": "address"
            },
            {
              "name": "name",
              "type": "string"
            },
            {
              "name": "index",
              "type": "uint256"
            },
            {
              "name": "productIds",
              "type": "bytes32[]"
            },
            {
              "name": "productIdsIndex",
              "type": "uint256[]"
            },
            {
              "name": "partnerIds",
              "type": "bytes32[]"
            },
            {
              "name": "partnerIdsIndex",
              "type": "uint256[]"
            }
          ],
          "name": "",
          "type": "tuple[]"
        }
      ],
      "payable": false,
      "stateMutability": "view",
      "type": "function"
    },
    {
      "constant": true,
      "inputs": [
        {
          "name": "_address",
          "type": "address"
        }
      ],
      "name": "getSupplier",
      "outputs": [
        {
          "components": [
            {
              "name": "addr",
              "type": "address"
            },
            {
              "name": "name",
              "type": "string"
            },
            {
              "name": "index",
              "type": "uint256"
            },
            {
              "name": "productIds",
              "type": "bytes32[]"
            },
            {
              "name": "productIdsIndex",
              "type": "uint256[]"
            },
            {
              "name": "partnerIds",
              "type": "bytes32[]"
            },
            {
              "name": "partnerIdsIndex",
              "type": "uint256[]"
            }
          ],
          "name": "",
          "type": "tuple"
        }
      ],
      "payable": false,
      "stateMutability": "view",
      "type": "function"
    },
    {
      "constant": false,
      "inputs": [
        {
          "name": "_address",
          "type": "address"
        }
      ],
      "name": "deleteSupplier",
      "outputs": [],
      "payable": false,
      "stateMutability": "nonpayable",
      "type": "function"
    },
    {
      "constant": false,
      "inputs": [
        {
          "name": "_address",
          "type": "address"
        },
        {
          "name": "_name",
          "type": "string"
        }
      ],
      "name": "updateSupplier",
      "outputs": [],
      "payable": false,
      "stateMutability": "nonpayable",
      "type": "function"
    },
    {
      "constant": false,
      "inputs": [
        {
          "name": "_address",
          "type": "address"
        },
        {
          "name": "_productID",
          "type": "bytes32"
        }
      ],
      "name": "addProduct",
      "outputs": [],
      "payable": false,
      "stateMutability": "nonpayable",
      "type": "function"
    },
    {
      "constant": false,
      "inputs": [
        {
          "name": "_address",
          "type": "address"
        },
        {
          "name": "_productID",
          "type": "bytes32"
        }
      ],
      "name": "removeProduct",
      "outputs": [],
      "payable": false,
      "stateMutability": "nonpayable",
      "type": "function"
    },
    {
      "constant": false,
      "inputs": [
        {
          "name": "_address",
          "type": "address"
        },
        {
          "name": "_partnerID",
          "type": "bytes32"
        }
      ],
      "name": "addPartner",
      "outputs": [],
      "payable": false,
      "stateMutability": "nonpayable",
      "type": "function"
    },
    {
      "constant": false,
      "inputs": [
        {
          "name": "_address",
          "type": "address"
        },
        {
          "name": "_partnerID",
          "type": "bytes32"
        }
      ],
      "name": "removePartner",
      "outputs": [],
      "payable": false,
      "stateMutability": "nonpayable",
      "type": "function"
    }
  ],
  "bytecode": "0x608060405234801561001057600080fd5b50612784806100206000396000f3006080604052600436106100af576000357c0100000000000000000000000000000000000000000000000000000000900463ffffffff16806333763ffe146100b457806342052185146100f357806342c00ce91461011c578063b0c6031f14610145578063b1dcdf3f1461016e578063c62062b014610197578063d58e7e72146101c0578063ded83458146101e9578063e368d75c14610226578063e66a788c14610251578063fe7009f21461027a575b600080fd5b3480156100c057600080fd5b506100db60048036036100d69190810190611fea565b6102b7565b6040516100ea939291906124ba565b60405180910390f35b3480156100ff57600080fd5b5061011a60048036036101159190810190612013565b610399565b005b34801561012857600080fd5b50610143600480360361013e9190810190611fea565b6106c4565b005b34801561015157600080fd5b5061016c6004803603610167919081019061204f565b6108c9565b005b34801561017a57600080fd5b5061019560048036036101909190810190612013565b610b18565b005b3480156101a357600080fd5b506101be60048036036101b9919081019061204f565b610e43565b005b3480156101cc57600080fd5b506101e760048036036101e29190810190612013565b610f5c565b005b3480156101f557600080fd5b50610210600480360361020b91908101906120a3565b611282565b60405161021d919061249f565b60405180910390f35b34801561023257600080fd5b5061023b6112c0565b60405161024891906124f8565b60405180910390f35b34801561025d57600080fd5b5061027860048036036102739190810190612013565b611636565b005b34801561028657600080fd5b506102a1600480360361029c9190810190611fea565b61195c565b6040516102ae919061259a565b60405180910390f35b60006020528060005260406000206000915090508060000160009054906101000a900473ffffffffffffffffffffffffffffffffffffffff1690806001018054600181600116156101000203166002900480601f0160208091040260200160405190810160405280929190818152602001828054600181600116156101000203166002900480156103895780601f1061035e57610100808354040283529160200191610389565b820191906000526020600020905b81548152906001019060200180831161036c57829003601f168201915b5050505050908060020154905083565b6000808360008060008373ffffffffffffffffffffffffffffffffffffffff1673ffffffffffffffffffffffffffffffffffffffff16815260200190815260200160002060000160009054906101000a900473ffffffffffffffffffffffffffffffffffffffff1673ffffffffffffffffffffffffffffffffffffffff161415151561045a576040517f08c379a00000000000000000000000000000000000000000000000000000000081526004016104519061251a565b60405180910390fd5b6104678460001916611cde565b92506000808673ffffffffffffffffffffffffffffffffffffffff1673ffffffffffffffffffffffffffffffffffffffff168152602001908152602001600020600401838154811015156104b757fe5b906000526020600020015491506000821415151561050a576040517f08c379a00000000000000000000000000000000000000000000000000000000081526004016105019061257a565b60405180910390fd5b6000808673ffffffffffffffffffffffffffffffffffffffff1673ffffffffffffffffffffffffffffffffffffffff16815260200190815260200160002060030160016000808873ffffffffffffffffffffffffffffffffffffffff1673ffffffffffffffffffffffffffffffffffffffff168152602001908152602001600020600301805490500381548110151561059f57fe5b90600052602060002001546000808773ffffffffffffffffffffffffffffffffffffffff1673ffffffffffffffffffffffffffffffffffffffff168152602001908152602001600020600301838154811015156105f857fe5b9060005260206000200181600019169055506000808673ffffffffffffffffffffffffffffffffffffffff1673ffffffffffffffffffffffffffffffffffffffff16815260200190815260200160002060030180548091906001900361065e9190611d62565b5060008060008773ffffffffffffffffffffffffffffffffffffffff1673ffffffffffffffffffffffffffffffffffffffff168152602001908152602001600020600401848154811015156106af57fe5b90600052602060002001819055505050505050565b6000806000808473ffffffffffffffffffffffffffffffffffffffff1673ffffffffffffffffffffffffffffffffffffffff16815260200190815260200160002060000160006101000a81548173ffffffffffffffffffffffffffffffffffffffff021916908373ffffffffffffffffffffffffffffffffffffffff1602179055506000808373ffffffffffffffffffffffffffffffffffffffff1673ffffffffffffffffffffffffffffffffffffffff16815260200190815260200160002060020154905060018080805490500381548110151561079f57fe5b9060005260206000200160009054906101000a900473ffffffffffffffffffffffffffffffffffffffff166001828154811015156107d957fe5b9060005260206000200160006101000a81548173ffffffffffffffffffffffffffffffffffffffff021916908373ffffffffffffffffffffffffffffffffffffffff16021790555060018054809190600190036108369190611d8e565b50600060018054905011156108c5578060008060018481548110151561085857fe5b9060005260206000200160009054906101000a900473ffffffffffffffffffffffffffffffffffffffff1673ffffffffffffffffffffffffffffffffffffffff1673ffffffffffffffffffffffffffffffffffffffff168152602001908152602001600020600201819055505b5050565b60008260008060008373ffffffffffffffffffffffffffffffffffffffff1673ffffffffffffffffffffffffffffffffffffffff16815260200190815260200160002060000160009054906101000a900473ffffffffffffffffffffffffffffffffffffffff1673ffffffffffffffffffffffffffffffffffffffff16141515610988576040517f08c379a000000000000000000000000000000000000000000000000000000000815260040161097f9061255a565b60405180910390fd5b6001805490509150836000808673ffffffffffffffffffffffffffffffffffffffff1673ffffffffffffffffffffffffffffffffffffffff16815260200190815260200160002060000160006101000a81548173ffffffffffffffffffffffffffffffffffffffff021916908373ffffffffffffffffffffffffffffffffffffffff160217905550826000808673ffffffffffffffffffffffffffffffffffffffff1673ffffffffffffffffffffffffffffffffffffffff1681526020019081526020016000206001019080519060200190610a65929190611dba565b50816000808673ffffffffffffffffffffffffffffffffffffffff1673ffffffffffffffffffffffffffffffffffffffff1681526020019081526020016000206002018190555060018490806001815401808255809150509060018203906000526020600020016000909192909190916101000a81548173ffffffffffffffffffffffffffffffffffffffff021916908373ffffffffffffffffffffffffffffffffffffffff1602179055505050505050565b6000808360008060008373ffffffffffffffffffffffffffffffffffffffff1673ffffffffffffffffffffffffffffffffffffffff16815260200190815260200160002060000160009054906101000a900473ffffffffffffffffffffffffffffffffffffffff1673ffffffffffffffffffffffffffffffffffffffff1614151515610bd9576040517f08c379a0000000000000000000000000000000000000000000000000000000008152600401610bd09061251a565b60405180910390fd5b610be68460001916611cde565b92506000808673ffffffffffffffffffffffffffffffffffffffff1673ffffffffffffffffffffffffffffffffffffffff16815260200190815260200160002060060183815481101515610c3657fe5b9060005260206000200154915060008214151515610c89576040517f08c379a0000000000000000000000000000000000000000000000000000000008152600401610c809061253a565b60405180910390fd5b6000808673ffffffffffffffffffffffffffffffffffffffff1673ffffffffffffffffffffffffffffffffffffffff16815260200190815260200160002060050160016000808873ffffffffffffffffffffffffffffffffffffffff1673ffffffffffffffffffffffffffffffffffffffff1681526020019081526020016000206005018054905003815481101515610d1e57fe5b90600052602060002001546000808773ffffffffffffffffffffffffffffffffffffffff1673ffffffffffffffffffffffffffffffffffffffff16815260200190815260200160002060050183815481101515610d7757fe5b9060005260206000200181600019169055506000808673ffffffffffffffffffffffffffffffffffffffff1673ffffffffffffffffffffffffffffffffffffffff168152602001908152602001600020600501805480919060019003610ddd9190611d62565b5060008060008773ffffffffffffffffffffffffffffffffffffffff1673ffffffffffffffffffffffffffffffffffffffff16815260200190815260200160002060060184815481101515610e2e57fe5b90600052602060002001819055505050505050565b8160008060008373ffffffffffffffffffffffffffffffffffffffff1673ffffffffffffffffffffffffffffffffffffffff16815260200190815260200160002060000160009054906101000a900473ffffffffffffffffffffffffffffffffffffffff1673ffffffffffffffffffffffffffffffffffffffff1614151515610f01576040517f08c379a0000000000000000000000000000000000000000000000000000000008152600401610ef89061251a565b60405180910390fd5b816000808573ffffffffffffffffffffffffffffffffffffffff1673ffffffffffffffffffffffffffffffffffffffff1681526020019081526020016000206001019080519060200190610f56929190611dba565b50505050565b60008260008060008373ffffffffffffffffffffffffffffffffffffffff1673ffffffffffffffffffffffffffffffffffffffff16815260200190815260200160002060000160009054906101000a900473ffffffffffffffffffffffffffffffffffffffff1673ffffffffffffffffffffffffffffffffffffffff161415151561101c576040517f08c379a00000000000000000000000000000000000000000000000000000000081526004016110139061251a565b60405180910390fd5b60008060008673ffffffffffffffffffffffffffffffffffffffff1673ffffffffffffffffffffffffffffffffffffffff1681526020019081526020016000206003018054905014156110b95760016000808673ffffffffffffffffffffffffffffffffffffffff1673ffffffffffffffffffffffffffffffffffffffff168152602001908152602001600020600301816110b79190611d62565b505b6000808573ffffffffffffffffffffffffffffffffffffffff1673ffffffffffffffffffffffffffffffffffffffff1681526020019081526020016000206003018390806001815401808255809150509060018203906000526020600020016000909192909190915090600019169055506111378360001916611cde565b9150816000808673ffffffffffffffffffffffffffffffffffffffff1673ffffffffffffffffffffffffffffffffffffffff168152602001908152602001600020600401805490501115156111d857600182016000808673ffffffffffffffffffffffffffffffffffffffff1673ffffffffffffffffffffffffffffffffffffffff168152602001908152602001600020600401816111d69190611e3a565b505b60016000808673ffffffffffffffffffffffffffffffffffffffff1673ffffffffffffffffffffffffffffffffffffffff16815260200190815260200160002060030180549050036000808673ffffffffffffffffffffffffffffffffffffffff1673ffffffffffffffffffffffffffffffffffffffff1681526020019081526020016000206004018381548110151561126e57fe5b906000526020600020018190555050505050565b60018181548110151561129157fe5b906000526020600020016000915054906101000a900473ffffffffffffffffffffffffffffffffffffffff1681565b606080600060018054905060405190808252806020026020018201604052801561130457816020015b6112f1611e66565b8152602001906001900390816112e95790505b509150600090505b60018054905081101561162e5760008060018381548110151561132b57fe5b9060005260206000200160009054906101000a900473ffffffffffffffffffffffffffffffffffffffff1673ffffffffffffffffffffffffffffffffffffffff1673ffffffffffffffffffffffffffffffffffffffff16815260200190815260200160002060e060405190810160405290816000820160009054906101000a900473ffffffffffffffffffffffffffffffffffffffff1673ffffffffffffffffffffffffffffffffffffffff1673ffffffffffffffffffffffffffffffffffffffff168152602001600182018054600181600116156101000203166002900480601f01602080910402602001604051908101604052809291908181526020018280546001816001161561010002031660029004801561148b5780601f106114605761010080835404028352916020019161148b565b820191906000526020600020905b81548152906001019060200180831161146e57829003601f168201915b5050505050815260200160028201548152602001600382018054806020026020016040519081016040528092919081815260200182805480156114f157602002820191906000526020600020905b815460001916815260200190600101908083116114d9575b505050505081526020016004820180548060200260200160405190810160405280929190818152602001828054801561154957602002820191906000526020600020905b815481526020019060010190808311611535575b50505050508152602001600582018054806020026020016040519081016040528092919081815260200182805480156115a557602002820191906000526020600020905b8154600019168152602001906001019080831161158d575b50505050508152602001600682018054806020026020016040519081016040528092919081815260200182805480156115fd57602002820191906000526020600020905b8154815260200190600101908083116115e9575b505050505081525050828281518110151561161457fe5b90602001906020020181905250808060010191505061130c565b819250505090565b60008260008060008373ffffffffffffffffffffffffffffffffffffffff1673ffffffffffffffffffffffffffffffffffffffff16815260200190815260200160002060000160009054906101000a900473ffffffffffffffffffffffffffffffffffffffff1673ffffffffffffffffffffffffffffffffffffffff16141515156116f6576040517f08c379a00000000000000000000000000000000000000000000000000000000081526004016116ed9061251a565b60405180910390fd5b60008060008673ffffffffffffffffffffffffffffffffffffffff1673ffffffffffffffffffffffffffffffffffffffff1681526020019081526020016000206005018054905014156117935760016000808673ffffffffffffffffffffffffffffffffffffffff1673ffffffffffffffffffffffffffffffffffffffff168152602001908152602001600020600501816117919190611d62565b505b6000808573ffffffffffffffffffffffffffffffffffffffff1673ffffffffffffffffffffffffffffffffffffffff1681526020019081526020016000206005018390806001815401808255809150509060018203906000526020600020016000909192909190915090600019169055506118118360001916611cde565b9150816000808673ffffffffffffffffffffffffffffffffffffffff1673ffffffffffffffffffffffffffffffffffffffff168152602001908152602001600020600601805490501115156118b257600182016000808673ffffffffffffffffffffffffffffffffffffffff1673ffffffffffffffffffffffffffffffffffffffff168152602001908152602001600020600601816118b09190611e3a565b505b60016000808673ffffffffffffffffffffffffffffffffffffffff1673ffffffffffffffffffffffffffffffffffffffff16815260200190815260200160002060050180549050036000808673ffffffffffffffffffffffffffffffffffffffff1673ffffffffffffffffffffffffffffffffffffffff1681526020019081526020016000206006018381548110151561194857fe5b906000526020600020018190555050505050565b611964611eba565b8160008060008373ffffffffffffffffffffffffffffffffffffffff1673ffffffffffffffffffffffffffffffffffffffff16815260200190815260200160002060000160009054906101000a900473ffffffffffffffffffffffffffffffffffffffff1673ffffffffffffffffffffffffffffffffffffffff1614151515611a22576040517f08c379a0000000000000000000000000000000000000000000000000000000008152600401611a199061251a565b60405180910390fd5b6000808473ffffffffffffffffffffffffffffffffffffffff1673ffffffffffffffffffffffffffffffffffffffff16815260200190815260200160002060e060405190810160405290816000820160009054906101000a900473ffffffffffffffffffffffffffffffffffffffff1673ffffffffffffffffffffffffffffffffffffffff1673ffffffffffffffffffffffffffffffffffffffff168152602001600182018054600181600116156101000203166002900480601f016020809104026020016040519081016040528092919081815260200182805460018160011615610100020316600290048015611b5b5780601f10611b3057610100808354040283529160200191611b5b565b820191906000526020600020905b815481529060010190602001808311611b3e57829003601f168201915b505050505081526020016002820154815260200160038201805480602002602001604051908101604052809291908181526020018280548015611bc157602002820191906000526020600020905b81546000191681526020019060010190808311611ba9575b5050505050815260200160048201805480602002602001604051908101604052809291908181526020018280548015611c1957602002820191906000526020600020905b815481526020019060010190808311611c05575b5050505050815260200160058201805480602002602001604051908101604052809291908181526020018280548015611c7557602002820191906000526020600020905b81546000191681526020019060010190808311611c5d575b5050505050815260200160068201805480602002602001604051908101604052809291908181526020018280548015611ccd57602002820191906000526020600020905b815481526020019060010190808311611cb9575b505050505081525050915050919050565b60008060008090505b602060ff16811015611d58578381602081101515611d0157fe5b1a7f0100000000000000000000000000000000000000000000000000000000000000027f01000000000000000000000000000000000000000000000000000000000000009004820191508080600101915050611ce7565b8192505050919050565b815481835581811115611d8957818360005260206000209182019101611d889190611f0e565b5b505050565b815481835581811115611db557818360005260206000209182019101611db49190611f33565b5b505050565b828054600181600116156101000203166002900490600052602060002090601f016020900481019282601f10611dfb57805160ff1916838001178555611e29565b82800160010185558215611e29579182015b82811115611e28578251825591602001919060010190611e0d565b5b509050611e369190611f33565b5090565b815481835581811115611e6157818360005260206000209182019101611e609190611f33565b5b505050565b60e060405190810160405280600073ffffffffffffffffffffffffffffffffffffffff1681526020016060815260200160008152602001606081526020016060815260200160608152602001606081525090565b60e060405190810160405280600073ffffffffffffffffffffffffffffffffffffffff1681526020016060815260200160008152602001606081526020016060815260200160608152602001606081525090565b611f3091905b80821115611f2c576000816000905550600101611f14565b5090565b90565b611f5591905b80821115611f51576000816000905550600101611f39565b5090565b90565b6000611f6482356126c3565b905092915050565b6000611f7882356126e3565b905092915050565b600082601f8301121515611f9357600080fd5b8135611fa6611fa1826125e9565b6125bc565b91508082526020830160208301858383011115611fc257600080fd5b611fcd8382846126f7565b50505092915050565b6000611fe282356126ed565b905092915050565b600060208284031215611ffc57600080fd5b600061200a84828501611f58565b91505092915050565b6000806040838503121561202657600080fd5b600061203485828601611f58565b925050602061204585828601611f6c565b9150509250929050565b6000806040838503121561206257600080fd5b600061207085828601611f58565b925050602083013567ffffffffffffffff81111561208d57600080fd5b61209985828601611f80565b9150509250929050565b6000602082840312156120b557600080fd5b60006120c384828501611fd6565b91505092915050565b6120d58161268f565b82525050565b60006120e68261263c565b8084526020840193506120f883612615565b60005b8281101561212a5761210e8683516121ff565b61211782612668565b91506020860195506001810190506120fb565b50849250505092915050565b600061214182612647565b8084526020840193508360208202850161215a85612622565b60005b848110156121935783830388526121758383516123d8565b925061218082612675565b915060208801975060018101905061215d565b508196508694505050505092915050565b60006121af82612652565b8084526020840193506121c18361262f565b60005b828110156121f3576121d7868351612490565b6121e082612682565b91506020860195506001810190506121c4565b50849250505092915050565b612208816126af565b82525050565b60006122198261265d565b80845261222d816020860160208601612706565b61223681612739565b602085010191505092915050565b6000601e82527f74686973206163636f756e74206973206e6f74206120737570706c69657200006020830152604082019050919050565b6000601482527f706172746e6572206973206e6f742065786973740000000000000000000000006020830152604082019050919050565b6000601a82527f74686973206163636f756e74206973206120737570706c6965720000000000006020830152604082019050919050565b6000601482527f70726f64756374206973206e6f742065786973740000000000000000000000006020830152604082019050919050565b600060e08301600083015161233860008601826120cc565b5060208301518482036020860152612350828261220e565b91505060408301516123656040860182612490565b506060830151848203606086015261237d82826120db565b9150506080830151848203608086015261239782826121a4565b91505060a083015184820360a08601526123b182826120db565b91505060c083015184820360c08601526123cb82826121a4565b9150508091505092915050565b600060e0830160008301516123f060008601826120cc565b5060208301518482036020860152612408828261220e565b915050604083015161241d6040860182612490565b506060830151848203606086015261243582826120db565b9150506080830151848203608086015261244f82826121a4565b91505060a083015184820360a086015261246982826120db565b91505060c083015184820360c086015261248382826121a4565b9150508091505092915050565b612499816126b9565b82525050565b60006020820190506124b460008301846120cc565b92915050565b60006060820190506124cf60008301866120cc565b81810360208301526124e1818561220e565b90506124f06040830184612490565b949350505050565b600060208201905081810360008301526125128184612136565b905092915050565b6000602082019050818103600083015261253381612244565b9050919050565b600060208201905081810360008301526125538161227b565b9050919050565b60006020820190508181036000830152612573816122b2565b9050919050565b60006020820190508181036000830152612593816122e9565b9050919050565b600060208201905081810360008301526125b48184612320565b905092915050565b6000604051905081810181811067ffffffffffffffff821117156125df57600080fd5b8060405250919050565b600067ffffffffffffffff82111561260057600080fd5b601f19601f8301169050602081019050919050565b6000602082019050919050565b6000602082019050919050565b6000602082019050919050565b600081519050919050565b600081519050919050565b600081519050919050565b600081519050919050565b6000602082019050919050565b6000602082019050919050565b6000602082019050919050565b600073ffffffffffffffffffffffffffffffffffffffff82169050919050565b6000819050919050565b6000819050919050565b600073ffffffffffffffffffffffffffffffffffffffff82169050919050565b6000819050919050565b6000819050919050565b82818337600083830152505050565b60005b83811015612724578082015181840152602081019050612709565b83811115612733576000848401525b50505050565b6000601f19601f83011690509190505600a265627a7a72305820b7613416dc9421c0a89e162c8db3613039101fd1eda5b093323f578379afc1d06c6578706572696d656e74616cf50037",
  "source": "pragma solidity ^0.4.24;\npragma experimental ABIEncoderV2;\n\nimport \"../model/SupplierModel.sol\";\nimport \"../util/ConvertUtils.sol\";\n\ncontract SupplierStorage {\n    using ConvertUtils for *;\n\n    mapping(address => SupplierModel.Supplier) public supplierList;\n    address[] public supplierIndex;\n\n    modifier isSupplier(address _address) {\n        require(supplierList[_address].addr!=0x0, \"this account is not a supplier\");\n        _;\n    }\n\n    modifier isNotSupplier(address _address) {\n        require(supplierList[_address].addr==0x0, \"this account is a supplier\");\n        _;\n    }\n\n    function createSupplier(address _address, string _name) public isNotSupplier(_address) {\n        uint256 newIndex = supplierIndex.length;\n\n        supplierList[_address].addr = _address;\n        supplierList[_address].name = _name;\n        supplierList[_address].index = newIndex;\n\n        supplierIndex.push(_address);\n    }\n\n    function getListSuppliers() public view returns(SupplierModel.Supplier[]) {\n        SupplierModel.Supplier[] memory list = new SupplierModel.Supplier[](supplierIndex.length);\n        for (uint256 i = 0; i < supplierIndex.length; i++) {\n            list[i] = supplierList[supplierIndex[i]];\n        }\n        return list;\n    }\n\n    function getSupplier(address _address) public view isSupplier(_address) returns (SupplierModel.Supplier) {\n        return supplierList[_address];\n    }\n\n    function deleteSupplier(address _address) public {\n        supplierList[_address].addr = 0x0;\n        uint256 toDeleteIndex = supplierList[_address].index;\n\n        supplierIndex[toDeleteIndex] = supplierIndex[supplierIndex.length-1];\n        supplierIndex.length--;\n\n        if(supplierIndex.length > 0) {\n            supplierList[supplierIndex[toDeleteIndex]].index = toDeleteIndex;\n        }\n    }\n\n    function updateSupplier(address _address, string _name) public isSupplier(_address) {\n        supplierList[_address].name = _name;\n    }\n\n    function addProduct(address _address, bytes32 _productID) public isSupplier(_address) {\n        // prevent index == 0\n        if(supplierList[_address].productIds.length == 0){\n            supplierList[_address].productIds.length = 1;\n        }\n\n        supplierList[_address].productIds.push(_productID);\n\n        uint productIDHash = _productID.bytesArrayToUint();\n        if (supplierList[_address].productIdsIndex.length <= productIDHash) {\n            supplierList[_address].productIdsIndex.length = productIDHash + 1;\n        }\n        supplierList[_address].productIdsIndex[productIDHash] = supplierList[_address].productIds.length-1;\n    }\n\n    function removeProduct(address _address, bytes32 _productID) public isSupplier(_address) {\n        uint productIDHash = _productID.bytesArrayToUint();\n        uint256 indexToRemove = supplierList[_address].productIdsIndex[productIDHash];\n        require(indexToRemove!=0x0, \"product is not exist\");\n\n        supplierList[_address].productIds[indexToRemove] = supplierList[_address].productIds[supplierList[_address].productIds.length-1];\n\n        //delete the last element from productIds\n        supplierList[_address].productIds.length--;\n\n        //reset index to 0\n        supplierList[_address].productIdsIndex[productIDHash] = 0;\n    }\n\n    function addPartner(address _address, bytes32 _partnerID) public isSupplier(_address) {\n        // prevent index == 0\n        if(supplierList[_address].partnerIds.length == 0){\n            supplierList[_address].partnerIds.length = 1;\n        }\n\n        supplierList[_address].partnerIds.push(_partnerID);\n\n        uint partnerIDHash = _partnerID.bytesArrayToUint();\n        if (supplierList[_address].partnerIdsIndex.length <= partnerIDHash) {\n            supplierList[_address].partnerIdsIndex.length = partnerIDHash + 1;\n        }\n        supplierList[_address].partnerIdsIndex[partnerIDHash] = supplierList[_address].partnerIds.length-1;\n    }\n\n    function removePartner(address _address, bytes32 _partnerID) public isSupplier(_address) {\n        uint partnerIDHash = _partnerID.bytesArrayToUint();\n        uint256 indexToRemove = supplierList[_address].partnerIdsIndex[partnerIDHash];\n        require(indexToRemove!=0x0, \"partner is not exist\");\n\n        supplierList[_address].partnerIds[indexToRemove] = supplierList[_address].partnerIds[supplierList[_address].partnerIds.length-1];\n\n        //delete the last element from partnerIds\n        supplierList[_address].partnerIds.length--;\n\n        //reset index to 0\n        supplierList[_address].partnerIdsIndex[partnerIDHash] = 0;\n    }\n}",
  "sourcePath": "/home/hieudeptrai/Desktop/MyProject/truffle/xxx/contracts/storage/SupplierStorage.sol",
  "compiler": {
    "name": "solc",
    "version": "0.4.24+commit.e67f0147.Emscripten.clang"
  },
  "schemaVersion": "2.0.1",
  "updatedAt": "2018-12-01T21:24:43.696Z"
}